{
	"Chainlink Bootcamp/Day2/Kay覺tOlv2.sol": {
		"Depolama": {
			"abi": [
				{
					"inputs": [],
					"stateMutability": "nonpayable",
					"type": "constructor"
				},
				{
					"inputs": [
						{
							"internalType": "address",
							"name": "yeniAdres",
							"type": "address"
						}
					],
					"name": "izinliAdresCikar",
					"outputs": [],
					"stateMutability": "nonpayable",
					"type": "function"
				},
				{
					"inputs": [
						{
							"internalType": "address",
							"name": "yeniAdres",
							"type": "address"
						}
					],
					"name": "izinliAdresEkle",
					"outputs": [],
					"stateMutability": "nonpayable",
					"type": "function"
				},
				{
					"inputs": [
						{
							"internalType": "address",
							"name": "",
							"type": "address"
						}
					],
					"name": "izinliListesi",
					"outputs": [
						{
							"internalType": "bool",
							"name": "",
							"type": "bool"
						}
					],
					"stateMutability": "view",
					"type": "function"
				},
				{
					"inputs": [],
					"name": "kontratSahibi",
					"outputs": [
						{
							"internalType": "address",
							"name": "",
							"type": "address"
						}
					],
					"stateMutability": "view",
					"type": "function"
				},
				{
					"inputs": [
						{
							"internalType": "string",
							"name": "yeniMesaj",
							"type": "string"
						},
						{
							"internalType": "uint256",
							"name": "index",
							"type": "uint256"
						}
					],
					"name": "mesajDegistir",
					"outputs": [],
					"stateMutability": "nonpayable",
					"type": "function"
				},
				{
					"inputs": [
						{
							"internalType": "string",
							"name": "yeniMesaj",
							"type": "string"
						}
					],
					"name": "mesajEkle",
					"outputs": [],
					"stateMutability": "nonpayable",
					"type": "function"
				},
				{
					"inputs": [
						{
							"internalType": "uint256",
							"name": "index",
							"type": "uint256"
						}
					],
					"name": "mesajiGoruntule",
					"outputs": [
						{
							"internalType": "string",
							"name": "",
							"type": "string"
						}
					],
					"stateMutability": "view",
					"type": "function"
				}
			],
			"devdoc": {
				"kind": "dev",
				"methods": {},
				"version": 1
			},
			"evm": {
				"assembly": "    /* \"Chainlink Bootcamp/Day2/Kay\\xc4\\xb1tOlv2.sol\":63:1402  contract Depolama {... */\n  mstore(0x40, 0x80)\n    /* \"Chainlink Bootcamp/Day2/Kay\\xc4\\xb1tOlv2.sol\":491:590  constructor() {... */\n  callvalue\n  dup1\n  iszero\n  tag_1\n  jumpi\n  0x00\n  dup1\n  revert\ntag_1:\n  pop\n    /* \"Chainlink Bootcamp/Day2/Kay\\xc4\\xb1tOlv2.sol\":531:541  msg.sender */\n  caller\n    /* \"Chainlink Bootcamp/Day2/Kay\\xc4\\xb1tOlv2.sol\":515:528  kontratSahibi */\n  0x01\n  0x00\n    /* \"Chainlink Bootcamp/Day2/Kay\\xc4\\xb1tOlv2.sol\":515:541  kontratSahibi = msg.sender */\n  0x0100\n  exp\n  dup2\n  sload\n  dup2\n  0xffffffffffffffffffffffffffffffffffffffff\n  mul\n  not\n  and\n  swap1\n  dup4\n  0xffffffffffffffffffffffffffffffffffffffff\n  and\n  mul\n  or\n  swap1\n  sstore\n  pop\n    /* \"Chainlink Bootcamp/Day2/Kay\\xc4\\xb1tOlv2.sol\":579:583  true */\n  0x01\n    /* \"Chainlink Bootcamp/Day2/Kay\\xc4\\xb1tOlv2.sol\":551:564  izinliListesi */\n  0x02\n    /* \"Chainlink Bootcamp/Day2/Kay\\xc4\\xb1tOlv2.sol\":551:576  izinliListesi[msg.sender] */\n  0x00\n    /* \"Chainlink Bootcamp/Day2/Kay\\xc4\\xb1tOlv2.sol\":565:575  msg.sender */\n  caller\n    /* \"Chainlink Bootcamp/Day2/Kay\\xc4\\xb1tOlv2.sol\":551:576  izinliListesi[msg.sender] */\n  0xffffffffffffffffffffffffffffffffffffffff\n  and\n  0xffffffffffffffffffffffffffffffffffffffff\n  and\n  dup2\n  mstore\n  0x20\n  add\n  swap1\n  dup2\n  mstore\n  0x20\n  add\n  0x00\n  keccak256\n  0x00\n    /* \"Chainlink Bootcamp/Day2/Kay\\xc4\\xb1tOlv2.sol\":551:583  izinliListesi[msg.sender] = true */\n  0x0100\n  exp\n  dup2\n  sload\n  dup2\n  0xff\n  mul\n  not\n  and\n  swap1\n  dup4\n  iszero\n  iszero\n  mul\n  or\n  swap1\n  sstore\n  pop\n    /* \"Chainlink Bootcamp/Day2/Kay\\xc4\\xb1tOlv2.sol\":63:1402  contract Depolama {... */\n  dataSize(sub_0)\n  dup1\n  dataOffset(sub_0)\n  0x00\n  codecopy\n  0x00\n  return\nstop\n\nsub_0: assembly {\n        /* \"Chainlink Bootcamp/Day2/Kay\\xc4\\xb1tOlv2.sol\":63:1402  contract Depolama {... */\n      mstore(0x40, 0x80)\n      callvalue\n      dup1\n      iszero\n      tag_1\n      jumpi\n      0x00\n      dup1\n      revert\n    tag_1:\n      pop\n      jumpi(tag_2, lt(calldatasize, 0x04))\n      shr(0xe0, calldataload(0x00))\n      dup1\n      0x8b62f9f8\n      gt\n      tag_10\n      jumpi\n      dup1\n      0x8b62f9f8\n      eq\n      tag_6\n      jumpi\n      dup1\n      0xa059a14f\n      eq\n      tag_7\n      jumpi\n      dup1\n      0xa0c054df\n      eq\n      tag_8\n      jumpi\n      dup1\n      0xbfa7c3cb\n      eq\n      tag_9\n      jumpi\n      jump(tag_2)\n    tag_10:\n      dup1\n      0x3d8fc625\n      eq\n      tag_3\n      jumpi\n      dup1\n      0x62ada0d7\n      eq\n      tag_4\n      jumpi\n      dup1\n      0x6f33506b\n      eq\n      tag_5\n      jumpi\n    tag_2:\n      0x00\n      dup1\n      revert\n        /* \"Chainlink Bootcamp/Day2/Kay\\xc4\\xb1tOlv2.sol\":152:198  mapping (address => bool) public izinliListesi */\n    tag_3:\n      tag_11\n      0x04\n      dup1\n      calldatasize\n      sub\n      dup2\n      add\n      swap1\n      tag_12\n      swap2\n      swap1\n      tag_13\n      jump\t// in\n    tag_12:\n      tag_14\n      jump\t// in\n    tag_11:\n      mload(0x40)\n      tag_15\n      swap2\n      swap1\n      tag_16\n      jump\t// in\n    tag_15:\n      mload(0x40)\n      dup1\n      swap2\n      sub\n      swap1\n      return\n        /* \"Chainlink Bootcamp/Day2/Kay\\xc4\\xb1tOlv2.sol\":596:710  function mesajiGoruntule(uint256 index) public view returns(string memory) {... */\n    tag_4:\n      tag_17\n      0x04\n      dup1\n      calldatasize\n      sub\n      dup2\n      add\n      swap1\n      tag_18\n      swap2\n      swap1\n      tag_19\n      jump\t// in\n    tag_18:\n      tag_20\n      jump\t// in\n    tag_17:\n      mload(0x40)\n      tag_21\n      swap2\n      swap1\n      tag_22\n      jump\t// in\n    tag_21:\n      mload(0x40)\n      dup1\n      swap2\n      sub\n      swap1\n      return\n        /* \"Chainlink Bootcamp/Day2/Kay\\xc4\\xb1tOlv2.sol\":118:146  address public kontratSahibi */\n    tag_5:\n      tag_23\n      tag_24\n      jump\t// in\n    tag_23:\n      mload(0x40)\n      tag_25\n      swap2\n      swap1\n      tag_26\n      jump\t// in\n    tag_25:\n      mload(0x40)\n      dup1\n      swap2\n      sub\n      swap1\n      return\n        /* \"Chainlink Bootcamp/Day2/Kay\\xc4\\xb1tOlv2.sol\":975:1088  function izinliAdresCikar(address yeniAdres) public sadeceSahip {... */\n    tag_6:\n      tag_27\n      0x04\n      dup1\n      calldatasize\n      sub\n      dup2\n      add\n      swap1\n      tag_28\n      swap2\n      swap1\n      tag_13\n      jump\t// in\n    tag_28:\n      tag_29\n      jump\t// in\n    tag_27:\n      stop\n        /* \"Chainlink Bootcamp/Day2/Kay\\xc4\\xb1tOlv2.sol\":716:828  function mesajEkle(string memory yeniMesaj) public sadeceIzinliListesi {... */\n    tag_7:\n      tag_30\n      0x04\n      dup1\n      calldatasize\n      sub\n      dup2\n      add\n      swap1\n      tag_31\n      swap2\n      swap1\n      tag_32\n      jump\t// in\n    tag_31:\n      tag_33\n      jump\t// in\n    tag_30:\n      stop\n        /* \"Chainlink Bootcamp/Day2/Kay\\xc4\\xb1tOlv2.sol\":838:969  function mesajDegistir(string memory yeniMesaj, uint index) public sadeceIzinliListesi {... */\n    tag_8:\n      tag_34\n      0x04\n      dup1\n      calldatasize\n      sub\n      dup2\n      add\n      swap1\n      tag_35\n      swap2\n      swap1\n      tag_36\n      jump\t// in\n    tag_35:\n      tag_37\n      jump\t// in\n    tag_34:\n      stop\n        /* \"Chainlink Bootcamp/Day2/Kay\\xc4\\xb1tOlv2.sol\":1094:1205  function izinliAdresEkle(address yeniAdres) public sadeceSahip {... */\n    tag_9:\n      tag_38\n      0x04\n      dup1\n      calldatasize\n      sub\n      dup2\n      add\n      swap1\n      tag_39\n      swap2\n      swap1\n      tag_13\n      jump\t// in\n    tag_39:\n      tag_40\n      jump\t// in\n    tag_38:\n      stop\n        /* \"Chainlink Bootcamp/Day2/Kay\\xc4\\xb1tOlv2.sol\":152:198  mapping (address => bool) public izinliListesi */\n    tag_14:\n      mstore(0x20, 0x02)\n      dup1\n      0x00\n      mstore\n      keccak256(0x00, 0x40)\n      0x00\n      swap2\n      pop\n      sload\n      swap1\n      0x0100\n      exp\n      swap1\n      div\n      0xff\n      and\n      dup2\n      jump\t// out\n        /* \"Chainlink Bootcamp/Day2/Kay\\xc4\\xb1tOlv2.sol\":596:710  function mesajiGoruntule(uint256 index) public view returns(string memory) {... */\n    tag_20:\n        /* \"Chainlink Bootcamp/Day2/Kay\\xc4\\xb1tOlv2.sol\":656:669  string memory */\n      0x60\n        /* \"Chainlink Bootcamp/Day2/Kay\\xc4\\xb1tOlv2.sol\":688:696  mesajlar */\n      0x00\n        /* \"Chainlink Bootcamp/Day2/Kay\\xc4\\xb1tOlv2.sol\":697:702  index */\n      dup3\n        /* \"Chainlink Bootcamp/Day2/Kay\\xc4\\xb1tOlv2.sol\":688:703  mesajlar[index] */\n      dup2\n      sload\n      dup2\n      lt\n      tag_42\n      jumpi\n      tag_43\n      tag_44\n      jump\t// in\n    tag_43:\n    tag_42:\n      swap1\n      0x00\n      mstore\n      keccak256(0x00, 0x20)\n      add\n        /* \"Chainlink Bootcamp/Day2/Kay\\xc4\\xb1tOlv2.sol\":681:703  return mesajlar[index] */\n      dup1\n      sload\n      tag_46\n      swap1\n      tag_47\n      jump\t// in\n    tag_46:\n      dup1\n      0x1f\n      add\n      0x20\n      dup1\n      swap2\n      div\n      mul\n      0x20\n      add\n      mload(0x40)\n      swap1\n      dup2\n      add\n      0x40\n      mstore\n      dup1\n      swap3\n      swap2\n      swap1\n      dup2\n      dup2\n      mstore\n      0x20\n      add\n      dup3\n      dup1\n      sload\n      tag_48\n      swap1\n      tag_47\n      jump\t// in\n    tag_48:\n      dup1\n      iszero\n      tag_49\n      jumpi\n      dup1\n      0x1f\n      lt\n      tag_50\n      jumpi\n      0x0100\n      dup1\n      dup4\n      sload\n      div\n      mul\n      dup4\n      mstore\n      swap2\n      0x20\n      add\n      swap2\n      jump(tag_49)\n    tag_50:\n      dup3\n      add\n      swap2\n      swap1\n      0x00\n      mstore\n      keccak256(0x00, 0x20)\n      swap1\n    tag_51:\n      dup2\n      sload\n      dup2\n      mstore\n      swap1\n      0x01\n      add\n      swap1\n      0x20\n      add\n      dup1\n      dup4\n      gt\n      tag_51\n      jumpi\n      dup3\n      swap1\n      sub\n      0x1f\n      and\n      dup3\n      add\n      swap2\n    tag_49:\n      pop\n      pop\n      pop\n      pop\n      pop\n      swap1\n      pop\n        /* \"Chainlink Bootcamp/Day2/Kay\\xc4\\xb1tOlv2.sol\":596:710  function mesajiGoruntule(uint256 index) public view returns(string memory) {... */\n      swap2\n      swap1\n      pop\n      jump\t// out\n        /* \"Chainlink Bootcamp/Day2/Kay\\xc4\\xb1tOlv2.sol\":118:146  address public kontratSahibi */\n    tag_24:\n      0x01\n      0x00\n      swap1\n      sload\n      swap1\n      0x0100\n      exp\n      swap1\n      div\n      0xffffffffffffffffffffffffffffffffffffffff\n      and\n      dup2\n      jump\t// out\n        /* \"Chainlink Bootcamp/Day2/Kay\\xc4\\xb1tOlv2.sol\":975:1088  function izinliAdresCikar(address yeniAdres) public sadeceSahip {... */\n    tag_29:\n        /* \"Chainlink Bootcamp/Day2/Kay\\xc4\\xb1tOlv2.sol\":1371:1381  msg.sender */\n      caller\n        /* \"Chainlink Bootcamp/Day2/Kay\\xc4\\xb1tOlv2.sol\":1354:1381  kontratSahibi == msg.sender */\n      0xffffffffffffffffffffffffffffffffffffffff\n      and\n        /* \"Chainlink Bootcamp/Day2/Kay\\xc4\\xb1tOlv2.sol\":1354:1367  kontratSahibi */\n      0x01\n      0x00\n      swap1\n      sload\n      swap1\n      0x0100\n      exp\n      swap1\n      div\n      0xffffffffffffffffffffffffffffffffffffffff\n      and\n        /* \"Chainlink Bootcamp/Day2/Kay\\xc4\\xb1tOlv2.sol\":1354:1381  kontratSahibi == msg.sender */\n      0xffffffffffffffffffffffffffffffffffffffff\n      and\n      eq\n        /* \"Chainlink Bootcamp/Day2/Kay\\xc4\\xb1tOlv2.sol\":1346:1382  require(kontratSahibi == msg.sender) */\n      tag_53\n      jumpi\n      0x00\n      dup1\n      revert\n    tag_53:\n        /* \"Chainlink Bootcamp/Day2/Kay\\xc4\\xb1tOlv2.sol\":1076:1081  false */\n      0x00\n        /* \"Chainlink Bootcamp/Day2/Kay\\xc4\\xb1tOlv2.sol\":1049:1062  izinliListesi */\n      0x02\n        /* \"Chainlink Bootcamp/Day2/Kay\\xc4\\xb1tOlv2.sol\":1049:1073  izinliListesi[yeniAdres] */\n      0x00\n        /* \"Chainlink Bootcamp/Day2/Kay\\xc4\\xb1tOlv2.sol\":1063:1072  yeniAdres */\n      dup4\n        /* \"Chainlink Bootcamp/Day2/Kay\\xc4\\xb1tOlv2.sol\":1049:1073  izinliListesi[yeniAdres] */\n      0xffffffffffffffffffffffffffffffffffffffff\n      and\n      0xffffffffffffffffffffffffffffffffffffffff\n      and\n      dup2\n      mstore\n      0x20\n      add\n      swap1\n      dup2\n      mstore\n      0x20\n      add\n      0x00\n      keccak256\n      0x00\n        /* \"Chainlink Bootcamp/Day2/Kay\\xc4\\xb1tOlv2.sol\":1049:1081  izinliListesi[yeniAdres] = false */\n      0x0100\n      exp\n      dup2\n      sload\n      dup2\n      0xff\n      mul\n      not\n      and\n      swap1\n      dup4\n      iszero\n      iszero\n      mul\n      or\n      swap1\n      sstore\n      pop\n        /* \"Chainlink Bootcamp/Day2/Kay\\xc4\\xb1tOlv2.sol\":975:1088  function izinliAdresCikar(address yeniAdres) public sadeceSahip {... */\n      pop\n      jump\t// out\n        /* \"Chainlink Bootcamp/Day2/Kay\\xc4\\xb1tOlv2.sol\":716:828  function mesajEkle(string memory yeniMesaj) public sadeceIzinliListesi {... */\n    tag_33:\n        /* \"Chainlink Bootcamp/Day2/Kay\\xc4\\xb1tOlv2.sol\":1287:1291  true */\n      0x01\n        /* \"Chainlink Bootcamp/Day2/Kay\\xc4\\xb1tOlv2.sol\":1258:1291  izinliListesi[msg.sender] == true */\n      iszero\n      iszero\n        /* \"Chainlink Bootcamp/Day2/Kay\\xc4\\xb1tOlv2.sol\":1258:1271  izinliListesi */\n      0x02\n        /* \"Chainlink Bootcamp/Day2/Kay\\xc4\\xb1tOlv2.sol\":1258:1283  izinliListesi[msg.sender] */\n      0x00\n        /* \"Chainlink Bootcamp/Day2/Kay\\xc4\\xb1tOlv2.sol\":1272:1282  msg.sender */\n      caller\n        /* \"Chainlink Bootcamp/Day2/Kay\\xc4\\xb1tOlv2.sol\":1258:1283  izinliListesi[msg.sender] */\n      0xffffffffffffffffffffffffffffffffffffffff\n      and\n      0xffffffffffffffffffffffffffffffffffffffff\n      and\n      dup2\n      mstore\n      0x20\n      add\n      swap1\n      dup2\n      mstore\n      0x20\n      add\n      0x00\n      keccak256\n      0x00\n      swap1\n      sload\n      swap1\n      0x0100\n      exp\n      swap1\n      div\n      0xff\n      and\n        /* \"Chainlink Bootcamp/Day2/Kay\\xc4\\xb1tOlv2.sol\":1258:1291  izinliListesi[msg.sender] == true */\n      iszero\n      iszero\n      eq\n        /* \"Chainlink Bootcamp/Day2/Kay\\xc4\\xb1tOlv2.sol\":1250:1292  require(izinliListesi[msg.sender] == true) */\n      tag_56\n      jumpi\n      0x00\n      dup1\n      revert\n    tag_56:\n        /* \"Chainlink Bootcamp/Day2/Kay\\xc4\\xb1tOlv2.sol\":797:805  mesajlar */\n      0x00\n        /* \"Chainlink Bootcamp/Day2/Kay\\xc4\\xb1tOlv2.sol\":811:820  yeniMesaj */\n      dup2\n        /* \"Chainlink Bootcamp/Day2/Kay\\xc4\\xb1tOlv2.sol\":797:821  mesajlar.push(yeniMesaj) */\n      swap1\n      dup1\n      0x01\n      dup2\n      sload\n      add\n      dup1\n      dup3\n      sstore\n      dup1\n      swap2\n      pop\n      pop\n      0x01\n      swap1\n      sub\n      swap1\n      0x00\n      mstore\n      keccak256(0x00, 0x20)\n      add\n      0x00\n      swap1\n      swap2\n      swap1\n      swap2\n      swap1\n      swap2\n      pop\n      swap1\n      dup2\n      tag_59\n      swap2\n      swap1\n      tag_60\n      jump\t// in\n    tag_59:\n      pop\n        /* \"Chainlink Bootcamp/Day2/Kay\\xc4\\xb1tOlv2.sol\":716:828  function mesajEkle(string memory yeniMesaj) public sadeceIzinliListesi {... */\n      pop\n      jump\t// out\n        /* \"Chainlink Bootcamp/Day2/Kay\\xc4\\xb1tOlv2.sol\":838:969  function mesajDegistir(string memory yeniMesaj, uint index) public sadeceIzinliListesi {... */\n    tag_37:\n        /* \"Chainlink Bootcamp/Day2/Kay\\xc4\\xb1tOlv2.sol\":1287:1291  true */\n      0x01\n        /* \"Chainlink Bootcamp/Day2/Kay\\xc4\\xb1tOlv2.sol\":1258:1291  izinliListesi[msg.sender] == true */\n      iszero\n      iszero\n        /* \"Chainlink Bootcamp/Day2/Kay\\xc4\\xb1tOlv2.sol\":1258:1271  izinliListesi */\n      0x02\n        /* \"Chainlink Bootcamp/Day2/Kay\\xc4\\xb1tOlv2.sol\":1258:1283  izinliListesi[msg.sender] */\n      0x00\n        /* \"Chainlink Bootcamp/Day2/Kay\\xc4\\xb1tOlv2.sol\":1272:1282  msg.sender */\n      caller\n        /* \"Chainlink Bootcamp/Day2/Kay\\xc4\\xb1tOlv2.sol\":1258:1283  izinliListesi[msg.sender] */\n      0xffffffffffffffffffffffffffffffffffffffff\n      and\n      0xffffffffffffffffffffffffffffffffffffffff\n      and\n      dup2\n      mstore\n      0x20\n      add\n      swap1\n      dup2\n      mstore\n      0x20\n      add\n      0x00\n      keccak256\n      0x00\n      swap1\n      sload\n      swap1\n      0x0100\n      exp\n      swap1\n      div\n      0xff\n      and\n        /* \"Chainlink Bootcamp/Day2/Kay\\xc4\\xb1tOlv2.sol\":1258:1291  izinliListesi[msg.sender] == true */\n      iszero\n      iszero\n      eq\n        /* \"Chainlink Bootcamp/Day2/Kay\\xc4\\xb1tOlv2.sol\":1250:1292  require(izinliListesi[msg.sender] == true) */\n      tag_62\n      jumpi\n      0x00\n      dup1\n      revert\n    tag_62:\n        /* \"Chainlink Bootcamp/Day2/Kay\\xc4\\xb1tOlv2.sol\":953:962  yeniMesaj */\n      dup2\n        /* \"Chainlink Bootcamp/Day2/Kay\\xc4\\xb1tOlv2.sol\":935:943  mesajlar */\n      0x00\n        /* \"Chainlink Bootcamp/Day2/Kay\\xc4\\xb1tOlv2.sol\":944:949  index */\n      dup3\n        /* \"Chainlink Bootcamp/Day2/Kay\\xc4\\xb1tOlv2.sol\":935:950  mesajlar[index] */\n      dup2\n      sload\n      dup2\n      lt\n      tag_64\n      jumpi\n      tag_65\n      tag_44\n      jump\t// in\n    tag_65:\n    tag_64:\n      swap1\n      0x00\n      mstore\n      keccak256(0x00, 0x20)\n      add\n        /* \"Chainlink Bootcamp/Day2/Kay\\xc4\\xb1tOlv2.sol\":935:962  mesajlar[index] = yeniMesaj */\n      swap1\n      dup2\n      tag_67\n      swap2\n      swap1\n      tag_60\n      jump\t// in\n    tag_67:\n      pop\n        /* \"Chainlink Bootcamp/Day2/Kay\\xc4\\xb1tOlv2.sol\":838:969  function mesajDegistir(string memory yeniMesaj, uint index) public sadeceIzinliListesi {... */\n      pop\n      pop\n      jump\t// out\n        /* \"Chainlink Bootcamp/Day2/Kay\\xc4\\xb1tOlv2.sol\":1094:1205  function izinliAdresEkle(address yeniAdres) public sadeceSahip {... */\n    tag_40:\n        /* \"Chainlink Bootcamp/Day2/Kay\\xc4\\xb1tOlv2.sol\":1371:1381  msg.sender */\n      caller\n        /* \"Chainlink Bootcamp/Day2/Kay\\xc4\\xb1tOlv2.sol\":1354:1381  kontratSahibi == msg.sender */\n      0xffffffffffffffffffffffffffffffffffffffff\n      and\n        /* \"Chainlink Bootcamp/Day2/Kay\\xc4\\xb1tOlv2.sol\":1354:1367  kontratSahibi */\n      0x01\n      0x00\n      swap1\n      sload\n      swap1\n      0x0100\n      exp\n      swap1\n      div\n      0xffffffffffffffffffffffffffffffffffffffff\n      and\n        /* \"Chainlink Bootcamp/Day2/Kay\\xc4\\xb1tOlv2.sol\":1354:1381  kontratSahibi == msg.sender */\n      0xffffffffffffffffffffffffffffffffffffffff\n      and\n      eq\n        /* \"Chainlink Bootcamp/Day2/Kay\\xc4\\xb1tOlv2.sol\":1346:1382  require(kontratSahibi == msg.sender) */\n      tag_69\n      jumpi\n      0x00\n      dup1\n      revert\n    tag_69:\n        /* \"Chainlink Bootcamp/Day2/Kay\\xc4\\xb1tOlv2.sol\":1194:1198  true */\n      0x01\n        /* \"Chainlink Bootcamp/Day2/Kay\\xc4\\xb1tOlv2.sol\":1167:1180  izinliListesi */\n      0x02\n        /* \"Chainlink Bootcamp/Day2/Kay\\xc4\\xb1tOlv2.sol\":1167:1191  izinliListesi[yeniAdres] */\n      0x00\n        /* \"Chainlink Bootcamp/Day2/Kay\\xc4\\xb1tOlv2.sol\":1181:1190  yeniAdres */\n      dup4\n        /* \"Chainlink Bootcamp/Day2/Kay\\xc4\\xb1tOlv2.sol\":1167:1191  izinliListesi[yeniAdres] */\n      0xffffffffffffffffffffffffffffffffffffffff\n      and\n      0xffffffffffffffffffffffffffffffffffffffff\n      and\n      dup2\n      mstore\n      0x20\n      add\n      swap1\n      dup2\n      mstore\n      0x20\n      add\n      0x00\n      keccak256\n      0x00\n        /* \"Chainlink Bootcamp/Day2/Kay\\xc4\\xb1tOlv2.sol\":1167:1198  izinliListesi[yeniAdres] = true */\n      0x0100\n      exp\n      dup2\n      sload\n      dup2\n      0xff\n      mul\n      not\n      and\n      swap1\n      dup4\n      iszero\n      iszero\n      mul\n      or\n      swap1\n      sstore\n      pop\n        /* \"Chainlink Bootcamp/Day2/Kay\\xc4\\xb1tOlv2.sol\":1094:1205  function izinliAdresEkle(address yeniAdres) public sadeceSahip {... */\n      pop\n      jump\t// out\n        /* \"#utility.yul\":7:82   */\n    tag_71:\n        /* \"#utility.yul\":40:46   */\n      0x00\n        /* \"#utility.yul\":73:75   */\n      0x40\n        /* \"#utility.yul\":67:76   */\n      mload\n        /* \"#utility.yul\":57:76   */\n      swap1\n      pop\n        /* \"#utility.yul\":7:82   */\n      swap1\n      jump\t// out\n        /* \"#utility.yul\":88:205   */\n    tag_72:\n        /* \"#utility.yul\":197:198   */\n      0x00\n        /* \"#utility.yul\":194:195   */\n      dup1\n        /* \"#utility.yul\":187:199   */\n      revert\n        /* \"#utility.yul\":211:328   */\n    tag_73:\n        /* \"#utility.yul\":320:321   */\n      0x00\n        /* \"#utility.yul\":317:318   */\n      dup1\n        /* \"#utility.yul\":310:322   */\n      revert\n        /* \"#utility.yul\":334:460   */\n    tag_74:\n        /* \"#utility.yul\":371:378   */\n      0x00\n        /* \"#utility.yul\":411:453   */\n      0xffffffffffffffffffffffffffffffffffffffff\n        /* \"#utility.yul\":404:409   */\n      dup3\n        /* \"#utility.yul\":400:454   */\n      and\n        /* \"#utility.yul\":389:454   */\n      swap1\n      pop\n        /* \"#utility.yul\":334:460   */\n      swap2\n      swap1\n      pop\n      jump\t// out\n        /* \"#utility.yul\":466:562   */\n    tag_75:\n        /* \"#utility.yul\":503:510   */\n      0x00\n        /* \"#utility.yul\":532:556   */\n      tag_120\n        /* \"#utility.yul\":550:555   */\n      dup3\n        /* \"#utility.yul\":532:556   */\n      tag_74\n      jump\t// in\n    tag_120:\n        /* \"#utility.yul\":521:556   */\n      swap1\n      pop\n        /* \"#utility.yul\":466:562   */\n      swap2\n      swap1\n      pop\n      jump\t// out\n        /* \"#utility.yul\":568:690   */\n    tag_76:\n        /* \"#utility.yul\":641:665   */\n      tag_122\n        /* \"#utility.yul\":659:664   */\n      dup2\n        /* \"#utility.yul\":641:665   */\n      tag_75\n      jump\t// in\n    tag_122:\n        /* \"#utility.yul\":634:639   */\n      dup2\n        /* \"#utility.yul\":631:666   */\n      eq\n        /* \"#utility.yul\":621:684   */\n      tag_123\n      jumpi\n        /* \"#utility.yul\":680:681   */\n      0x00\n        /* \"#utility.yul\":677:678   */\n      dup1\n        /* \"#utility.yul\":670:682   */\n      revert\n        /* \"#utility.yul\":621:684   */\n    tag_123:\n        /* \"#utility.yul\":568:690   */\n      pop\n      jump\t// out\n        /* \"#utility.yul\":696:835   */\n    tag_77:\n        /* \"#utility.yul\":742:747   */\n      0x00\n        /* \"#utility.yul\":780:786   */\n      dup2\n        /* \"#utility.yul\":767:787   */\n      calldataload\n        /* \"#utility.yul\":758:787   */\n      swap1\n      pop\n        /* \"#utility.yul\":796:829   */\n      tag_125\n        /* \"#utility.yul\":823:828   */\n      dup2\n        /* \"#utility.yul\":796:829   */\n      tag_76\n      jump\t// in\n    tag_125:\n        /* \"#utility.yul\":696:835   */\n      swap3\n      swap2\n      pop\n      pop\n      jump\t// out\n        /* \"#utility.yul\":841:1170   */\n    tag_13:\n        /* \"#utility.yul\":900:906   */\n      0x00\n        /* \"#utility.yul\":949:951   */\n      0x20\n        /* \"#utility.yul\":937:946   */\n      dup3\n        /* \"#utility.yul\":928:935   */\n      dup5\n        /* \"#utility.yul\":924:947   */\n      sub\n        /* \"#utility.yul\":920:952   */\n      slt\n        /* \"#utility.yul\":917:1036   */\n      iszero\n      tag_127\n      jumpi\n        /* \"#utility.yul\":955:1034   */\n      tag_128\n      tag_72\n      jump\t// in\n    tag_128:\n        /* \"#utility.yul\":917:1036   */\n    tag_127:\n        /* \"#utility.yul\":1075:1076   */\n      0x00\n        /* \"#utility.yul\":1100:1153   */\n      tag_129\n        /* \"#utility.yul\":1145:1152   */\n      dup5\n        /* \"#utility.yul\":1136:1142   */\n      dup3\n        /* \"#utility.yul\":1125:1134   */\n      dup6\n        /* \"#utility.yul\":1121:1143   */\n      add\n        /* \"#utility.yul\":1100:1153   */\n      tag_77\n      jump\t// in\n    tag_129:\n        /* \"#utility.yul\":1090:1153   */\n      swap2\n      pop\n        /* \"#utility.yul\":1046:1163   */\n      pop\n        /* \"#utility.yul\":841:1170   */\n      swap3\n      swap2\n      pop\n      pop\n      jump\t// out\n        /* \"#utility.yul\":1176:1266   */\n    tag_78:\n        /* \"#utility.yul\":1210:1217   */\n      0x00\n        /* \"#utility.yul\":1253:1258   */\n      dup2\n        /* \"#utility.yul\":1246:1259   */\n      iszero\n        /* \"#utility.yul\":1239:1260   */\n      iszero\n        /* \"#utility.yul\":1228:1260   */\n      swap1\n      pop\n        /* \"#utility.yul\":1176:1266   */\n      swap2\n      swap1\n      pop\n      jump\t// out\n        /* \"#utility.yul\":1272:1381   */\n    tag_79:\n        /* \"#utility.yul\":1353:1374   */\n      tag_132\n        /* \"#utility.yul\":1368:1373   */\n      dup2\n        /* \"#utility.yul\":1353:1374   */\n      tag_78\n      jump\t// in\n    tag_132:\n        /* \"#utility.yul\":1348:1351   */\n      dup3\n        /* \"#utility.yul\":1341:1375   */\n      mstore\n        /* \"#utility.yul\":1272:1381   */\n      pop\n      pop\n      jump\t// out\n        /* \"#utility.yul\":1387:1597   */\n    tag_16:\n        /* \"#utility.yul\":1474:1478   */\n      0x00\n        /* \"#utility.yul\":1512:1514   */\n      0x20\n        /* \"#utility.yul\":1501:1510   */\n      dup3\n        /* \"#utility.yul\":1497:1515   */\n      add\n        /* \"#utility.yul\":1489:1515   */\n      swap1\n      pop\n        /* \"#utility.yul\":1525:1590   */\n      tag_134\n        /* \"#utility.yul\":1587:1588   */\n      0x00\n        /* \"#utility.yul\":1576:1585   */\n      dup4\n        /* \"#utility.yul\":1572:1589   */\n      add\n        /* \"#utility.yul\":1563:1569   */\n      dup5\n        /* \"#utility.yul\":1525:1590   */\n      tag_79\n      jump\t// in\n    tag_134:\n        /* \"#utility.yul\":1387:1597   */\n      swap3\n      swap2\n      pop\n      pop\n      jump\t// out\n        /* \"#utility.yul\":1603:1680   */\n    tag_80:\n        /* \"#utility.yul\":1640:1647   */\n      0x00\n        /* \"#utility.yul\":1669:1674   */\n      dup2\n        /* \"#utility.yul\":1658:1674   */\n      swap1\n      pop\n        /* \"#utility.yul\":1603:1680   */\n      swap2\n      swap1\n      pop\n      jump\t// out\n        /* \"#utility.yul\":1686:1808   */\n    tag_81:\n        /* \"#utility.yul\":1759:1783   */\n      tag_137\n        /* \"#utility.yul\":1777:1782   */\n      dup2\n        /* \"#utility.yul\":1759:1783   */\n      tag_80\n      jump\t// in\n    tag_137:\n        /* \"#utility.yul\":1752:1757   */\n      dup2\n        /* \"#utility.yul\":1749:1784   */\n      eq\n        /* \"#utility.yul\":1739:1802   */\n      tag_138\n      jumpi\n        /* \"#utility.yul\":1798:1799   */\n      0x00\n        /* \"#utility.yul\":1795:1796   */\n      dup1\n        /* \"#utility.yul\":1788:1800   */\n      revert\n        /* \"#utility.yul\":1739:1802   */\n    tag_138:\n        /* \"#utility.yul\":1686:1808   */\n      pop\n      jump\t// out\n        /* \"#utility.yul\":1814:1953   */\n    tag_82:\n        /* \"#utility.yul\":1860:1865   */\n      0x00\n        /* \"#utility.yul\":1898:1904   */\n      dup2\n        /* \"#utility.yul\":1885:1905   */\n      calldataload\n        /* \"#utility.yul\":1876:1905   */\n      swap1\n      pop\n        /* \"#utility.yul\":1914:1947   */\n      tag_140\n        /* \"#utility.yul\":1941:1946   */\n      dup2\n        /* \"#utility.yul\":1914:1947   */\n      tag_81\n      jump\t// in\n    tag_140:\n        /* \"#utility.yul\":1814:1953   */\n      swap3\n      swap2\n      pop\n      pop\n      jump\t// out\n        /* \"#utility.yul\":1959:2288   */\n    tag_19:\n        /* \"#utility.yul\":2018:2024   */\n      0x00\n        /* \"#utility.yul\":2067:2069   */\n      0x20\n        /* \"#utility.yul\":2055:2064   */\n      dup3\n        /* \"#utility.yul\":2046:2053   */\n      dup5\n        /* \"#utility.yul\":2042:2065   */\n      sub\n        /* \"#utility.yul\":2038:2070   */\n      slt\n        /* \"#utility.yul\":2035:2154   */\n      iszero\n      tag_142\n      jumpi\n        /* \"#utility.yul\":2073:2152   */\n      tag_143\n      tag_72\n      jump\t// in\n    tag_143:\n        /* \"#utility.yul\":2035:2154   */\n    tag_142:\n        /* \"#utility.yul\":2193:2194   */\n      0x00\n        /* \"#utility.yul\":2218:2271   */\n      tag_144\n        /* \"#utility.yul\":2263:2270   */\n      dup5\n        /* \"#utility.yul\":2254:2260   */\n      dup3\n        /* \"#utility.yul\":2243:2252   */\n      dup6\n        /* \"#utility.yul\":2239:2261   */\n      add\n        /* \"#utility.yul\":2218:2271   */\n      tag_82\n      jump\t// in\n    tag_144:\n        /* \"#utility.yul\":2208:2271   */\n      swap2\n      pop\n        /* \"#utility.yul\":2164:2281   */\n      pop\n        /* \"#utility.yul\":1959:2288   */\n      swap3\n      swap2\n      pop\n      pop\n      jump\t// out\n        /* \"#utility.yul\":2294:2393   */\n    tag_83:\n        /* \"#utility.yul\":2346:2352   */\n      0x00\n        /* \"#utility.yul\":2380:2385   */\n      dup2\n        /* \"#utility.yul\":2374:2386   */\n      mload\n        /* \"#utility.yul\":2364:2386   */\n      swap1\n      pop\n        /* \"#utility.yul\":2294:2393   */\n      swap2\n      swap1\n      pop\n      jump\t// out\n        /* \"#utility.yul\":2399:2568   */\n    tag_84:\n        /* \"#utility.yul\":2483:2494   */\n      0x00\n        /* \"#utility.yul\":2517:2523   */\n      dup3\n        /* \"#utility.yul\":2512:2515   */\n      dup3\n        /* \"#utility.yul\":2505:2524   */\n      mstore\n        /* \"#utility.yul\":2557:2561   */\n      0x20\n        /* \"#utility.yul\":2552:2555   */\n      dup3\n        /* \"#utility.yul\":2548:2562   */\n      add\n        /* \"#utility.yul\":2533:2562   */\n      swap1\n      pop\n        /* \"#utility.yul\":2399:2568   */\n      swap3\n      swap2\n      pop\n      pop\n      jump\t// out\n        /* \"#utility.yul\":2574:2820   */\n    tag_85:\n        /* \"#utility.yul\":2655:2656   */\n      0x00\n        /* \"#utility.yul\":2665:2778   */\n    tag_148:\n        /* \"#utility.yul\":2679:2685   */\n      dup4\n        /* \"#utility.yul\":2676:2677   */\n      dup2\n        /* \"#utility.yul\":2673:2686   */\n      lt\n        /* \"#utility.yul\":2665:2778   */\n      iszero\n      tag_150\n      jumpi\n        /* \"#utility.yul\":2764:2765   */\n      dup1\n        /* \"#utility.yul\":2759:2762   */\n      dup3\n        /* \"#utility.yul\":2755:2766   */\n      add\n        /* \"#utility.yul\":2749:2767   */\n      mload\n        /* \"#utility.yul\":2745:2746   */\n      dup2\n        /* \"#utility.yul\":2740:2743   */\n      dup5\n        /* \"#utility.yul\":2736:2747   */\n      add\n        /* \"#utility.yul\":2729:2768   */\n      mstore\n        /* \"#utility.yul\":2701:2703   */\n      0x20\n        /* \"#utility.yul\":2698:2699   */\n      dup2\n        /* \"#utility.yul\":2694:2704   */\n      add\n        /* \"#utility.yul\":2689:2704   */\n      swap1\n      pop\n        /* \"#utility.yul\":2665:2778   */\n      jump(tag_148)\n    tag_150:\n        /* \"#utility.yul\":2812:2813   */\n      0x00\n        /* \"#utility.yul\":2803:2809   */\n      dup5\n        /* \"#utility.yul\":2798:2801   */\n      dup5\n        /* \"#utility.yul\":2794:2810   */\n      add\n        /* \"#utility.yul\":2787:2814   */\n      mstore\n        /* \"#utility.yul\":2636:2820   */\n      pop\n        /* \"#utility.yul\":2574:2820   */\n      pop\n      pop\n      pop\n      jump\t// out\n        /* \"#utility.yul\":2826:2928   */\n    tag_86:\n        /* \"#utility.yul\":2867:2873   */\n      0x00\n        /* \"#utility.yul\":2918:2920   */\n      0x1f\n        /* \"#utility.yul\":2914:2921   */\n      not\n        /* \"#utility.yul\":2909:2911   */\n      0x1f\n        /* \"#utility.yul\":2902:2907   */\n      dup4\n        /* \"#utility.yul\":2898:2912   */\n      add\n        /* \"#utility.yul\":2894:2922   */\n      and\n        /* \"#utility.yul\":2884:2922   */\n      swap1\n      pop\n        /* \"#utility.yul\":2826:2928   */\n      swap2\n      swap1\n      pop\n      jump\t// out\n        /* \"#utility.yul\":2934:3311   */\n    tag_87:\n        /* \"#utility.yul\":3022:3025   */\n      0x00\n        /* \"#utility.yul\":3050:3089   */\n      tag_153\n        /* \"#utility.yul\":3083:3088   */\n      dup3\n        /* \"#utility.yul\":3050:3089   */\n      tag_83\n      jump\t// in\n    tag_153:\n        /* \"#utility.yul\":3105:3176   */\n      tag_154\n        /* \"#utility.yul\":3169:3175   */\n      dup2\n        /* \"#utility.yul\":3164:3167   */\n      dup6\n        /* \"#utility.yul\":3105:3176   */\n      tag_84\n      jump\t// in\n    tag_154:\n        /* \"#utility.yul\":3098:3176   */\n      swap4\n      pop\n        /* \"#utility.yul\":3185:3250   */\n      tag_155\n        /* \"#utility.yul\":3243:3249   */\n      dup2\n        /* \"#utility.yul\":3238:3241   */\n      dup6\n        /* \"#utility.yul\":3231:3235   */\n      0x20\n        /* \"#utility.yul\":3224:3229   */\n      dup7\n        /* \"#utility.yul\":3220:3236   */\n      add\n        /* \"#utility.yul\":3185:3250   */\n      tag_85\n      jump\t// in\n    tag_155:\n        /* \"#utility.yul\":3275:3304   */\n      tag_156\n        /* \"#utility.yul\":3297:3303   */\n      dup2\n        /* \"#utility.yul\":3275:3304   */\n      tag_86\n      jump\t// in\n    tag_156:\n        /* \"#utility.yul\":3270:3273   */\n      dup5\n        /* \"#utility.yul\":3266:3305   */\n      add\n        /* \"#utility.yul\":3259:3305   */\n      swap2\n      pop\n        /* \"#utility.yul\":3026:3311   */\n      pop\n        /* \"#utility.yul\":2934:3311   */\n      swap3\n      swap2\n      pop\n      pop\n      jump\t// out\n        /* \"#utility.yul\":3317:3630   */\n    tag_22:\n        /* \"#utility.yul\":3430:3434   */\n      0x00\n        /* \"#utility.yul\":3468:3470   */\n      0x20\n        /* \"#utility.yul\":3457:3466   */\n      dup3\n        /* \"#utility.yul\":3453:3471   */\n      add\n        /* \"#utility.yul\":3445:3471   */\n      swap1\n      pop\n        /* \"#utility.yul\":3517:3526   */\n      dup2\n        /* \"#utility.yul\":3511:3515   */\n      dup2\n        /* \"#utility.yul\":3507:3527   */\n      sub\n        /* \"#utility.yul\":3503:3504   */\n      0x00\n        /* \"#utility.yul\":3492:3501   */\n      dup4\n        /* \"#utility.yul\":3488:3505   */\n      add\n        /* \"#utility.yul\":3481:3528   */\n      mstore\n        /* \"#utility.yul\":3545:3623   */\n      tag_158\n        /* \"#utility.yul\":3618:3622   */\n      dup2\n        /* \"#utility.yul\":3609:3615   */\n      dup5\n        /* \"#utility.yul\":3545:3623   */\n      tag_87\n      jump\t// in\n    tag_158:\n        /* \"#utility.yul\":3537:3623   */\n      swap1\n      pop\n        /* \"#utility.yul\":3317:3630   */\n      swap3\n      swap2\n      pop\n      pop\n      jump\t// out\n        /* \"#utility.yul\":3636:3754   */\n    tag_88:\n        /* \"#utility.yul\":3723:3747   */\n      tag_160\n        /* \"#utility.yul\":3741:3746   */\n      dup2\n        /* \"#utility.yul\":3723:3747   */\n      tag_75\n      jump\t// in\n    tag_160:\n        /* \"#utility.yul\":3718:3721   */\n      dup3\n        /* \"#utility.yul\":3711:3748   */\n      mstore\n        /* \"#utility.yul\":3636:3754   */\n      pop\n      pop\n      jump\t// out\n        /* \"#utility.yul\":3760:3982   */\n    tag_26:\n        /* \"#utility.yul\":3853:3857   */\n      0x00\n        /* \"#utility.yul\":3891:3893   */\n      0x20\n        /* \"#utility.yul\":3880:3889   */\n      dup3\n        /* \"#utility.yul\":3876:3894   */\n      add\n        /* \"#utility.yul\":3868:3894   */\n      swap1\n      pop\n        /* \"#utility.yul\":3904:3975   */\n      tag_162\n        /* \"#utility.yul\":3972:3973   */\n      0x00\n        /* \"#utility.yul\":3961:3970   */\n      dup4\n        /* \"#utility.yul\":3957:3974   */\n      add\n        /* \"#utility.yul\":3948:3954   */\n      dup5\n        /* \"#utility.yul\":3904:3975   */\n      tag_88\n      jump\t// in\n    tag_162:\n        /* \"#utility.yul\":3760:3982   */\n      swap3\n      swap2\n      pop\n      pop\n      jump\t// out\n        /* \"#utility.yul\":3988:4105   */\n    tag_89:\n        /* \"#utility.yul\":4097:4098   */\n      0x00\n        /* \"#utility.yul\":4094:4095   */\n      dup1\n        /* \"#utility.yul\":4087:4099   */\n      revert\n        /* \"#utility.yul\":4111:4228   */\n    tag_90:\n        /* \"#utility.yul\":4220:4221   */\n      0x00\n        /* \"#utility.yul\":4217:4218   */\n      dup1\n        /* \"#utility.yul\":4210:4222   */\n      revert\n        /* \"#utility.yul\":4234:4414   */\n    tag_91:\n        /* \"#utility.yul\":4282:4359   */\n      0x4e487b7100000000000000000000000000000000000000000000000000000000\n        /* \"#utility.yul\":4279:4280   */\n      0x00\n        /* \"#utility.yul\":4272:4360   */\n      mstore\n        /* \"#utility.yul\":4379:4383   */\n      0x41\n        /* \"#utility.yul\":4376:4377   */\n      0x04\n        /* \"#utility.yul\":4369:4384   */\n      mstore\n        /* \"#utility.yul\":4403:4407   */\n      0x24\n        /* \"#utility.yul\":4400:4401   */\n      0x00\n        /* \"#utility.yul\":4393:4408   */\n      revert\n        /* \"#utility.yul\":4420:4701   */\n    tag_92:\n        /* \"#utility.yul\":4503:4530   */\n      tag_167\n        /* \"#utility.yul\":4525:4529   */\n      dup3\n        /* \"#utility.yul\":4503:4530   */\n      tag_86\n      jump\t// in\n    tag_167:\n        /* \"#utility.yul\":4495:4501   */\n      dup2\n        /* \"#utility.yul\":4491:4531   */\n      add\n        /* \"#utility.yul\":4633:4639   */\n      dup2\n        /* \"#utility.yul\":4621:4631   */\n      dup2\n        /* \"#utility.yul\":4618:4640   */\n      lt\n        /* \"#utility.yul\":4597:4615   */\n      0xffffffffffffffff\n        /* \"#utility.yul\":4585:4595   */\n      dup3\n        /* \"#utility.yul\":4582:4616   */\n      gt\n        /* \"#utility.yul\":4579:4641   */\n      or\n        /* \"#utility.yul\":4576:4664   */\n      iszero\n      tag_168\n      jumpi\n        /* \"#utility.yul\":4644:4662   */\n      tag_169\n      tag_91\n      jump\t// in\n    tag_169:\n        /* \"#utility.yul\":4576:4664   */\n    tag_168:\n        /* \"#utility.yul\":4684:4694   */\n      dup1\n        /* \"#utility.yul\":4680:4682   */\n      0x40\n        /* \"#utility.yul\":4673:4695   */\n      mstore\n        /* \"#utility.yul\":4463:4701   */\n      pop\n        /* \"#utility.yul\":4420:4701   */\n      pop\n      pop\n      jump\t// out\n        /* \"#utility.yul\":4707:4836   */\n    tag_93:\n        /* \"#utility.yul\":4741:4747   */\n      0x00\n        /* \"#utility.yul\":4768:4788   */\n      tag_171\n      tag_71\n      jump\t// in\n    tag_171:\n        /* \"#utility.yul\":4758:4788   */\n      swap1\n      pop\n        /* \"#utility.yul\":4797:4830   */\n      tag_172\n        /* \"#utility.yul\":4825:4829   */\n      dup3\n        /* \"#utility.yul\":4817:4823   */\n      dup3\n        /* \"#utility.yul\":4797:4830   */\n      tag_92\n      jump\t// in\n    tag_172:\n        /* \"#utility.yul\":4707:4836   */\n      swap2\n      swap1\n      pop\n      jump\t// out\n        /* \"#utility.yul\":4842:5150   */\n    tag_94:\n        /* \"#utility.yul\":4904:4908   */\n      0x00\n        /* \"#utility.yul\":4994:5012   */\n      0xffffffffffffffff\n        /* \"#utility.yul\":4986:4992   */\n      dup3\n        /* \"#utility.yul\":4983:5013   */\n      gt\n        /* \"#utility.yul\":4980:5036   */\n      iszero\n      tag_174\n      jumpi\n        /* \"#utility.yul\":5016:5034   */\n      tag_175\n      tag_91\n      jump\t// in\n    tag_175:\n        /* \"#utility.yul\":4980:5036   */\n    tag_174:\n        /* \"#utility.yul\":5054:5083   */\n      tag_176\n        /* \"#utility.yul\":5076:5082   */\n      dup3\n        /* \"#utility.yul\":5054:5083   */\n      tag_86\n      jump\t// in\n    tag_176:\n        /* \"#utility.yul\":5046:5083   */\n      swap1\n      pop\n        /* \"#utility.yul\":5138:5142   */\n      0x20\n        /* \"#utility.yul\":5132:5136   */\n      dup2\n        /* \"#utility.yul\":5128:5143   */\n      add\n        /* \"#utility.yul\":5120:5143   */\n      swap1\n      pop\n        /* \"#utility.yul\":4842:5150   */\n      swap2\n      swap1\n      pop\n      jump\t// out\n        /* \"#utility.yul\":5156:5302   */\n    tag_95:\n        /* \"#utility.yul\":5253:5259   */\n      dup3\n        /* \"#utility.yul\":5248:5251   */\n      dup2\n        /* \"#utility.yul\":5243:5246   */\n      dup4\n        /* \"#utility.yul\":5230:5260   */\n      calldatacopy\n        /* \"#utility.yul\":5294:5295   */\n      0x00\n        /* \"#utility.yul\":5285:5291   */\n      dup4\n        /* \"#utility.yul\":5280:5283   */\n      dup4\n        /* \"#utility.yul\":5276:5292   */\n      add\n        /* \"#utility.yul\":5269:5296   */\n      mstore\n        /* \"#utility.yul\":5156:5302   */\n      pop\n      pop\n      pop\n      jump\t// out\n        /* \"#utility.yul\":5308:5733   */\n    tag_96:\n        /* \"#utility.yul\":5386:5391   */\n      0x00\n        /* \"#utility.yul\":5411:5477   */\n      tag_179\n        /* \"#utility.yul\":5427:5476   */\n      tag_180\n        /* \"#utility.yul\":5469:5475   */\n      dup5\n        /* \"#utility.yul\":5427:5476   */\n      tag_94\n      jump\t// in\n    tag_180:\n        /* \"#utility.yul\":5411:5477   */\n      tag_93\n      jump\t// in\n    tag_179:\n        /* \"#utility.yul\":5402:5477   */\n      swap1\n      pop\n        /* \"#utility.yul\":5500:5506   */\n      dup3\n        /* \"#utility.yul\":5493:5498   */\n      dup2\n        /* \"#utility.yul\":5486:5507   */\n      mstore\n        /* \"#utility.yul\":5538:5542   */\n      0x20\n        /* \"#utility.yul\":5531:5536   */\n      dup2\n        /* \"#utility.yul\":5527:5543   */\n      add\n        /* \"#utility.yul\":5576:5579   */\n      dup5\n        /* \"#utility.yul\":5567:5573   */\n      dup5\n        /* \"#utility.yul\":5562:5565   */\n      dup5\n        /* \"#utility.yul\":5558:5574   */\n      add\n        /* \"#utility.yul\":5555:5580   */\n      gt\n        /* \"#utility.yul\":5552:5664   */\n      iszero\n      tag_181\n      jumpi\n        /* \"#utility.yul\":5583:5662   */\n      tag_182\n      tag_90\n      jump\t// in\n    tag_182:\n        /* \"#utility.yul\":5552:5664   */\n    tag_181:\n        /* \"#utility.yul\":5673:5727   */\n      tag_183\n        /* \"#utility.yul\":5720:5726   */\n      dup5\n        /* \"#utility.yul\":5715:5718   */\n      dup3\n        /* \"#utility.yul\":5710:5713   */\n      dup6\n        /* \"#utility.yul\":5673:5727   */\n      tag_95\n      jump\t// in\n    tag_183:\n        /* \"#utility.yul\":5392:5733   */\n      pop\n        /* \"#utility.yul\":5308:5733   */\n      swap4\n      swap3\n      pop\n      pop\n      pop\n      jump\t// out\n        /* \"#utility.yul\":5753:6093   */\n    tag_97:\n        /* \"#utility.yul\":5809:5814   */\n      0x00\n        /* \"#utility.yul\":5858:5861   */\n      dup3\n        /* \"#utility.yul\":5851:5855   */\n      0x1f\n        /* \"#utility.yul\":5843:5849   */\n      dup4\n        /* \"#utility.yul\":5839:5856   */\n      add\n        /* \"#utility.yul\":5835:5862   */\n      slt\n        /* \"#utility.yul\":5825:5947   */\n      tag_185\n      jumpi\n        /* \"#utility.yul\":5866:5945   */\n      tag_186\n      tag_89\n      jump\t// in\n    tag_186:\n        /* \"#utility.yul\":5825:5947   */\n    tag_185:\n        /* \"#utility.yul\":5983:5989   */\n      dup2\n        /* \"#utility.yul\":5970:5990   */\n      calldataload\n        /* \"#utility.yul\":6008:6087   */\n      tag_187\n        /* \"#utility.yul\":6083:6086   */\n      dup5\n        /* \"#utility.yul\":6075:6081   */\n      dup3\n        /* \"#utility.yul\":6068:6072   */\n      0x20\n        /* \"#utility.yul\":6060:6066   */\n      dup7\n        /* \"#utility.yul\":6056:6073   */\n      add\n        /* \"#utility.yul\":6008:6087   */\n      tag_96\n      jump\t// in\n    tag_187:\n        /* \"#utility.yul\":5999:6087   */\n      swap2\n      pop\n        /* \"#utility.yul\":5815:6093   */\n      pop\n        /* \"#utility.yul\":5753:6093   */\n      swap3\n      swap2\n      pop\n      pop\n      jump\t// out\n        /* \"#utility.yul\":6099:6608   */\n    tag_32:\n        /* \"#utility.yul\":6168:6174   */\n      0x00\n        /* \"#utility.yul\":6217:6219   */\n      0x20\n        /* \"#utility.yul\":6205:6214   */\n      dup3\n        /* \"#utility.yul\":6196:6203   */\n      dup5\n        /* \"#utility.yul\":6192:6215   */\n      sub\n        /* \"#utility.yul\":6188:6220   */\n      slt\n        /* \"#utility.yul\":6185:6304   */\n      iszero\n      tag_189\n      jumpi\n        /* \"#utility.yul\":6223:6302   */\n      tag_190\n      tag_72\n      jump\t// in\n    tag_190:\n        /* \"#utility.yul\":6185:6304   */\n    tag_189:\n        /* \"#utility.yul\":6371:6372   */\n      0x00\n        /* \"#utility.yul\":6360:6369   */\n      dup3\n        /* \"#utility.yul\":6356:6373   */\n      add\n        /* \"#utility.yul\":6343:6374   */\n      calldataload\n        /* \"#utility.yul\":6401:6419   */\n      0xffffffffffffffff\n        /* \"#utility.yul\":6393:6399   */\n      dup2\n        /* \"#utility.yul\":6390:6420   */\n      gt\n        /* \"#utility.yul\":6387:6504   */\n      iszero\n      tag_191\n      jumpi\n        /* \"#utility.yul\":6423:6502   */\n      tag_192\n      tag_73\n      jump\t// in\n    tag_192:\n        /* \"#utility.yul\":6387:6504   */\n    tag_191:\n        /* \"#utility.yul\":6528:6591   */\n      tag_193\n        /* \"#utility.yul\":6583:6590   */\n      dup5\n        /* \"#utility.yul\":6574:6580   */\n      dup3\n        /* \"#utility.yul\":6563:6572   */\n      dup6\n        /* \"#utility.yul\":6559:6581   */\n      add\n        /* \"#utility.yul\":6528:6591   */\n      tag_97\n      jump\t// in\n    tag_193:\n        /* \"#utility.yul\":6518:6591   */\n      swap2\n      pop\n        /* \"#utility.yul\":6314:6601   */\n      pop\n        /* \"#utility.yul\":6099:6608   */\n      swap3\n      swap2\n      pop\n      pop\n      jump\t// out\n        /* \"#utility.yul\":6614:7268   */\n    tag_36:\n        /* \"#utility.yul\":6692:6698   */\n      0x00\n        /* \"#utility.yul\":6700:6706   */\n      dup1\n        /* \"#utility.yul\":6749:6751   */\n      0x40\n        /* \"#utility.yul\":6737:6746   */\n      dup4\n        /* \"#utility.yul\":6728:6735   */\n      dup6\n        /* \"#utility.yul\":6724:6747   */\n      sub\n        /* \"#utility.yul\":6720:6752   */\n      slt\n        /* \"#utility.yul\":6717:6836   */\n      iszero\n      tag_195\n      jumpi\n        /* \"#utility.yul\":6755:6834   */\n      tag_196\n      tag_72\n      jump\t// in\n    tag_196:\n        /* \"#utility.yul\":6717:6836   */\n    tag_195:\n        /* \"#utility.yul\":6903:6904   */\n      0x00\n        /* \"#utility.yul\":6892:6901   */\n      dup4\n        /* \"#utility.yul\":6888:6905   */\n      add\n        /* \"#utility.yul\":6875:6906   */\n      calldataload\n        /* \"#utility.yul\":6933:6951   */\n      0xffffffffffffffff\n        /* \"#utility.yul\":6925:6931   */\n      dup2\n        /* \"#utility.yul\":6922:6952   */\n      gt\n        /* \"#utility.yul\":6919:7036   */\n      iszero\n      tag_197\n      jumpi\n        /* \"#utility.yul\":6955:7034   */\n      tag_198\n      tag_73\n      jump\t// in\n    tag_198:\n        /* \"#utility.yul\":6919:7036   */\n    tag_197:\n        /* \"#utility.yul\":7060:7123   */\n      tag_199\n        /* \"#utility.yul\":7115:7122   */\n      dup6\n        /* \"#utility.yul\":7106:7112   */\n      dup3\n        /* \"#utility.yul\":7095:7104   */\n      dup7\n        /* \"#utility.yul\":7091:7113   */\n      add\n        /* \"#utility.yul\":7060:7123   */\n      tag_97\n      jump\t// in\n    tag_199:\n        /* \"#utility.yul\":7050:7123   */\n      swap3\n      pop\n        /* \"#utility.yul\":6846:7133   */\n      pop\n        /* \"#utility.yul\":7172:7174   */\n      0x20\n        /* \"#utility.yul\":7198:7251   */\n      tag_200\n        /* \"#utility.yul\":7243:7250   */\n      dup6\n        /* \"#utility.yul\":7234:7240   */\n      dup3\n        /* \"#utility.yul\":7223:7232   */\n      dup7\n        /* \"#utility.yul\":7219:7241   */\n      add\n        /* \"#utility.yul\":7198:7251   */\n      tag_82\n      jump\t// in\n    tag_200:\n        /* \"#utility.yul\":7188:7251   */\n      swap2\n      pop\n        /* \"#utility.yul\":7143:7261   */\n      pop\n        /* \"#utility.yul\":6614:7268   */\n      swap3\n      pop\n      swap3\n      swap1\n      pop\n      jump\t// out\n        /* \"#utility.yul\":7274:7454   */\n    tag_44:\n        /* \"#utility.yul\":7322:7399   */\n      0x4e487b7100000000000000000000000000000000000000000000000000000000\n        /* \"#utility.yul\":7319:7320   */\n      0x00\n        /* \"#utility.yul\":7312:7400   */\n      mstore\n        /* \"#utility.yul\":7419:7423   */\n      0x32\n        /* \"#utility.yul\":7416:7417   */\n      0x04\n        /* \"#utility.yul\":7409:7424   */\n      mstore\n        /* \"#utility.yul\":7443:7447   */\n      0x24\n        /* \"#utility.yul\":7440:7441   */\n      0x00\n        /* \"#utility.yul\":7433:7448   */\n      revert\n        /* \"#utility.yul\":7460:7640   */\n    tag_98:\n        /* \"#utility.yul\":7508:7585   */\n      0x4e487b7100000000000000000000000000000000000000000000000000000000\n        /* \"#utility.yul\":7505:7506   */\n      0x00\n        /* \"#utility.yul\":7498:7586   */\n      mstore\n        /* \"#utility.yul\":7605:7609   */\n      0x22\n        /* \"#utility.yul\":7602:7603   */\n      0x04\n        /* \"#utility.yul\":7595:7610   */\n      mstore\n        /* \"#utility.yul\":7629:7633   */\n      0x24\n        /* \"#utility.yul\":7626:7627   */\n      0x00\n        /* \"#utility.yul\":7619:7634   */\n      revert\n        /* \"#utility.yul\":7646:7966   */\n    tag_47:\n        /* \"#utility.yul\":7690:7696   */\n      0x00\n        /* \"#utility.yul\":7727:7728   */\n      0x02\n        /* \"#utility.yul\":7721:7725   */\n      dup3\n        /* \"#utility.yul\":7717:7729   */\n      div\n        /* \"#utility.yul\":7707:7729   */\n      swap1\n      pop\n        /* \"#utility.yul\":7774:7775   */\n      0x01\n        /* \"#utility.yul\":7768:7772   */\n      dup3\n        /* \"#utility.yul\":7764:7776   */\n      and\n        /* \"#utility.yul\":7795:7813   */\n      dup1\n        /* \"#utility.yul\":7785:7866   */\n      tag_204\n      jumpi\n        /* \"#utility.yul\":7851:7855   */\n      0x7f\n        /* \"#utility.yul\":7843:7849   */\n      dup3\n        /* \"#utility.yul\":7839:7856   */\n      and\n        /* \"#utility.yul\":7829:7856   */\n      swap2\n      pop\n        /* \"#utility.yul\":7785:7866   */\n    tag_204:\n        /* \"#utility.yul\":7913:7915   */\n      0x20\n        /* \"#utility.yul\":7905:7911   */\n      dup3\n        /* \"#utility.yul\":7902:7916   */\n      lt\n        /* \"#utility.yul\":7882:7900   */\n      dup2\n        /* \"#utility.yul\":7879:7917   */\n      sub\n        /* \"#utility.yul\":7876:7960   */\n      tag_205\n      jumpi\n        /* \"#utility.yul\":7932:7950   */\n      tag_206\n      tag_98\n      jump\t// in\n    tag_206:\n        /* \"#utility.yul\":7876:7960   */\n    tag_205:\n        /* \"#utility.yul\":7697:7966   */\n      pop\n        /* \"#utility.yul\":7646:7966   */\n      swap2\n      swap1\n      pop\n      jump\t// out\n        /* \"#utility.yul\":7972:8113   */\n    tag_99:\n        /* \"#utility.yul\":8021:8025   */\n      0x00\n        /* \"#utility.yul\":8044:8047   */\n      dup2\n        /* \"#utility.yul\":8036:8047   */\n      swap1\n      pop\n        /* \"#utility.yul\":8067:8070   */\n      dup2\n        /* \"#utility.yul\":8064:8065   */\n      0x00\n        /* \"#utility.yul\":8057:8071   */\n      mstore\n        /* \"#utility.yul\":8101:8105   */\n      0x20\n        /* \"#utility.yul\":8098:8099   */\n      0x00\n        /* \"#utility.yul\":8088:8106   */\n      keccak256\n        /* \"#utility.yul\":8080:8106   */\n      swap1\n      pop\n        /* \"#utility.yul\":7972:8113   */\n      swap2\n      swap1\n      pop\n      jump\t// out\n        /* \"#utility.yul\":8119:8212   */\n    tag_100:\n        /* \"#utility.yul\":8156:8162   */\n      0x00\n        /* \"#utility.yul\":8203:8205   */\n      0x20\n        /* \"#utility.yul\":8198:8200   */\n      0x1f\n        /* \"#utility.yul\":8191:8196   */\n      dup4\n        /* \"#utility.yul\":8187:8201   */\n      add\n        /* \"#utility.yul\":8183:8206   */\n      div\n        /* \"#utility.yul\":8173:8206   */\n      swap1\n      pop\n        /* \"#utility.yul\":8119:8212   */\n      swap2\n      swap1\n      pop\n      jump\t// out\n        /* \"#utility.yul\":8218:8325   */\n    tag_101:\n        /* \"#utility.yul\":8262:8270   */\n      0x00\n        /* \"#utility.yul\":8312:8317   */\n      dup3\n        /* \"#utility.yul\":8306:8310   */\n      dup3\n        /* \"#utility.yul\":8302:8318   */\n      shl\n        /* \"#utility.yul\":8281:8318   */\n      swap1\n      pop\n        /* \"#utility.yul\":8218:8325   */\n      swap3\n      swap2\n      pop\n      pop\n      jump\t// out\n        /* \"#utility.yul\":8331:8724   */\n    tag_102:\n        /* \"#utility.yul\":8400:8406   */\n      0x00\n        /* \"#utility.yul\":8450:8451   */\n      0x08\n        /* \"#utility.yul\":8438:8448   */\n      dup4\n        /* \"#utility.yul\":8434:8452   */\n      mul\n        /* \"#utility.yul\":8473:8570   */\n      tag_211\n        /* \"#utility.yul\":8503:8569   */\n      0xffffffffffffffffffffffffffffffffffffffffffffffffffffffffffffffff\n        /* \"#utility.yul\":8492:8501   */\n      dup3\n        /* \"#utility.yul\":8473:8570   */\n      tag_101\n      jump\t// in\n    tag_211:\n        /* \"#utility.yul\":8591:8630   */\n      tag_212\n        /* \"#utility.yul\":8621:8629   */\n      dup7\n        /* \"#utility.yul\":8610:8619   */\n      dup4\n        /* \"#utility.yul\":8591:8630   */\n      tag_101\n      jump\t// in\n    tag_212:\n        /* \"#utility.yul\":8579:8630   */\n      swap6\n      pop\n        /* \"#utility.yul\":8663:8667   */\n      dup1\n        /* \"#utility.yul\":8659:8668   */\n      not\n        /* \"#utility.yul\":8652:8657   */\n      dup5\n        /* \"#utility.yul\":8648:8669   */\n      and\n        /* \"#utility.yul\":8639:8669   */\n      swap4\n      pop\n        /* \"#utility.yul\":8712:8716   */\n      dup1\n        /* \"#utility.yul\":8702:8710   */\n      dup7\n        /* \"#utility.yul\":8698:8717   */\n      and\n        /* \"#utility.yul\":8691:8696   */\n      dup5\n        /* \"#utility.yul\":8688:8718   */\n      or\n        /* \"#utility.yul\":8678:8718   */\n      swap3\n      pop\n        /* \"#utility.yul\":8407:8724   */\n      pop\n      pop\n        /* \"#utility.yul\":8331:8724   */\n      swap4\n      swap3\n      pop\n      pop\n      pop\n      jump\t// out\n        /* \"#utility.yul\":8730:8790   */\n    tag_103:\n        /* \"#utility.yul\":8758:8761   */\n      0x00\n        /* \"#utility.yul\":8779:8784   */\n      dup2\n        /* \"#utility.yul\":8772:8784   */\n      swap1\n      pop\n        /* \"#utility.yul\":8730:8790   */\n      swap2\n      swap1\n      pop\n      jump\t// out\n        /* \"#utility.yul\":8796:8938   */\n    tag_104:\n        /* \"#utility.yul\":8846:8855   */\n      0x00\n        /* \"#utility.yul\":8879:8932   */\n      tag_215\n        /* \"#utility.yul\":8897:8931   */\n      tag_216\n        /* \"#utility.yul\":8906:8930   */\n      tag_217\n        /* \"#utility.yul\":8924:8929   */\n      dup5\n        /* \"#utility.yul\":8906:8930   */\n      tag_80\n      jump\t// in\n    tag_217:\n        /* \"#utility.yul\":8897:8931   */\n      tag_103\n      jump\t// in\n    tag_216:\n        /* \"#utility.yul\":8879:8932   */\n      tag_80\n      jump\t// in\n    tag_215:\n        /* \"#utility.yul\":8866:8932   */\n      swap1\n      pop\n        /* \"#utility.yul\":8796:8938   */\n      swap2\n      swap1\n      pop\n      jump\t// out\n        /* \"#utility.yul\":8944:9019   */\n    tag_105:\n        /* \"#utility.yul\":8987:8990   */\n      0x00\n        /* \"#utility.yul\":9008:9013   */\n      dup2\n        /* \"#utility.yul\":9001:9013   */\n      swap1\n      pop\n        /* \"#utility.yul\":8944:9019   */\n      swap2\n      swap1\n      pop\n      jump\t// out\n        /* \"#utility.yul\":9025:9294   */\n    tag_106:\n        /* \"#utility.yul\":9135:9174   */\n      tag_220\n        /* \"#utility.yul\":9166:9173   */\n      dup4\n        /* \"#utility.yul\":9135:9174   */\n      tag_104\n      jump\t// in\n    tag_220:\n        /* \"#utility.yul\":9196:9287   */\n      tag_221\n        /* \"#utility.yul\":9245:9286   */\n      tag_222\n        /* \"#utility.yul\":9269:9285   */\n      dup3\n        /* \"#utility.yul\":9245:9286   */\n      tag_105\n      jump\t// in\n    tag_222:\n        /* \"#utility.yul\":9237:9243   */\n      dup5\n        /* \"#utility.yul\":9230:9234   */\n      dup5\n        /* \"#utility.yul\":9224:9235   */\n      sload\n        /* \"#utility.yul\":9196:9287   */\n      tag_102\n      jump\t// in\n    tag_221:\n        /* \"#utility.yul\":9190:9194   */\n      dup3\n        /* \"#utility.yul\":9183:9288   */\n      sstore\n        /* \"#utility.yul\":9101:9294   */\n      pop\n        /* \"#utility.yul\":9025:9294   */\n      pop\n      pop\n      pop\n      jump\t// out\n        /* \"#utility.yul\":9300:9373   */\n    tag_107:\n        /* \"#utility.yul\":9345:9348   */\n      0x00\n        /* \"#utility.yul\":9300:9373   */\n      swap1\n      jump\t// out\n        /* \"#utility.yul\":9379:9568   */\n    tag_108:\n        /* \"#utility.yul\":9456:9488   */\n      tag_225\n      tag_107\n      jump\t// in\n    tag_225:\n        /* \"#utility.yul\":9497:9562   */\n      tag_226\n        /* \"#utility.yul\":9555:9561   */\n      dup2\n        /* \"#utility.yul\":9547:9553   */\n      dup5\n        /* \"#utility.yul\":9541:9545   */\n      dup5\n        /* \"#utility.yul\":9497:9562   */\n      tag_106\n      jump\t// in\n    tag_226:\n        /* \"#utility.yul\":9432:9568   */\n      pop\n        /* \"#utility.yul\":9379:9568   */\n      pop\n      pop\n      jump\t// out\n        /* \"#utility.yul\":9574:9760   */\n    tag_109:\n        /* \"#utility.yul\":9634:9754   */\n    tag_228:\n        /* \"#utility.yul\":9651:9654   */\n      dup2\n        /* \"#utility.yul\":9644:9649   */\n      dup2\n        /* \"#utility.yul\":9641:9655   */\n      lt\n        /* \"#utility.yul\":9634:9754   */\n      iszero\n      tag_230\n      jumpi\n        /* \"#utility.yul\":9705:9744   */\n      tag_231\n        /* \"#utility.yul\":9742:9743   */\n      0x00\n        /* \"#utility.yul\":9735:9740   */\n      dup3\n        /* \"#utility.yul\":9705:9744   */\n      tag_108\n      jump\t// in\n    tag_231:\n        /* \"#utility.yul\":9678:9679   */\n      0x01\n        /* \"#utility.yul\":9671:9676   */\n      dup2\n        /* \"#utility.yul\":9667:9680   */\n      add\n        /* \"#utility.yul\":9658:9680   */\n      swap1\n      pop\n        /* \"#utility.yul\":9634:9754   */\n      jump(tag_228)\n    tag_230:\n        /* \"#utility.yul\":9574:9760   */\n      pop\n      pop\n      jump\t// out\n        /* \"#utility.yul\":9766:10309   */\n    tag_110:\n        /* \"#utility.yul\":9867:9869   */\n      0x1f\n        /* \"#utility.yul\":9862:9865   */\n      dup3\n        /* \"#utility.yul\":9859:9870   */\n      gt\n        /* \"#utility.yul\":9856:10302   */\n      iszero\n      tag_233\n      jumpi\n        /* \"#utility.yul\":9901:9939   */\n      tag_234\n        /* \"#utility.yul\":9933:9938   */\n      dup2\n        /* \"#utility.yul\":9901:9939   */\n      tag_99\n      jump\t// in\n    tag_234:\n        /* \"#utility.yul\":9985:10014   */\n      tag_235\n        /* \"#utility.yul\":10003:10013   */\n      dup5\n        /* \"#utility.yul\":9985:10014   */\n      tag_100\n      jump\t// in\n    tag_235:\n        /* \"#utility.yul\":9975:9983   */\n      dup2\n        /* \"#utility.yul\":9971:10015   */\n      add\n        /* \"#utility.yul\":10168:10170   */\n      0x20\n        /* \"#utility.yul\":10156:10166   */\n      dup6\n        /* \"#utility.yul\":10153:10171   */\n      lt\n        /* \"#utility.yul\":10150:10199   */\n      iszero\n      tag_236\n      jumpi\n        /* \"#utility.yul\":10189:10197   */\n      dup2\n        /* \"#utility.yul\":10174:10197   */\n      swap1\n      pop\n        /* \"#utility.yul\":10150:10199   */\n    tag_236:\n        /* \"#utility.yul\":10212:10292   */\n      tag_237\n        /* \"#utility.yul\":10268:10290   */\n      tag_238\n        /* \"#utility.yul\":10286:10289   */\n      dup6\n        /* \"#utility.yul\":10268:10290   */\n      tag_100\n      jump\t// in\n    tag_238:\n        /* \"#utility.yul\":10258:10266   */\n      dup4\n        /* \"#utility.yul\":10254:10291   */\n      add\n        /* \"#utility.yul\":10241:10252   */\n      dup3\n        /* \"#utility.yul\":10212:10292   */\n      tag_109\n      jump\t// in\n    tag_237:\n        /* \"#utility.yul\":9871:10302   */\n      pop\n      pop\n        /* \"#utility.yul\":9856:10302   */\n    tag_233:\n        /* \"#utility.yul\":9766:10309   */\n      pop\n      pop\n      pop\n      jump\t// out\n        /* \"#utility.yul\":10315:10432   */\n    tag_111:\n        /* \"#utility.yul\":10369:10377   */\n      0x00\n        /* \"#utility.yul\":10419:10424   */\n      dup3\n        /* \"#utility.yul\":10413:10417   */\n      dup3\n        /* \"#utility.yul\":10409:10425   */\n      shr\n        /* \"#utility.yul\":10388:10425   */\n      swap1\n      pop\n        /* \"#utility.yul\":10315:10432   */\n      swap3\n      swap2\n      pop\n      pop\n      jump\t// out\n        /* \"#utility.yul\":10438:10607   */\n    tag_112:\n        /* \"#utility.yul\":10482:10488   */\n      0x00\n        /* \"#utility.yul\":10515:10566   */\n      tag_241\n        /* \"#utility.yul\":10563:10564   */\n      0x00\n        /* \"#utility.yul\":10559:10565   */\n      not\n        /* \"#utility.yul\":10551:10556   */\n      dup5\n        /* \"#utility.yul\":10548:10549   */\n      0x08\n        /* \"#utility.yul\":10544:10557   */\n      mul\n        /* \"#utility.yul\":10515:10566   */\n      tag_111\n      jump\t// in\n    tag_241:\n        /* \"#utility.yul\":10511:10567   */\n      not\n        /* \"#utility.yul\":10596:10600   */\n      dup1\n        /* \"#utility.yul\":10590:10594   */\n      dup4\n        /* \"#utility.yul\":10586:10601   */\n      and\n        /* \"#utility.yul\":10576:10601   */\n      swap2\n      pop\n        /* \"#utility.yul\":10489:10607   */\n      pop\n        /* \"#utility.yul\":10438:10607   */\n      swap3\n      swap2\n      pop\n      pop\n      jump\t// out\n        /* \"#utility.yul\":10612:10907   */\n    tag_113:\n        /* \"#utility.yul\":10688:10692   */\n      0x00\n        /* \"#utility.yul\":10834:10863   */\n      tag_243\n        /* \"#utility.yul\":10859:10862   */\n      dup4\n        /* \"#utility.yul\":10853:10857   */\n      dup4\n        /* \"#utility.yul\":10834:10863   */\n      tag_112\n      jump\t// in\n    tag_243:\n        /* \"#utility.yul\":10826:10863   */\n      swap2\n      pop\n        /* \"#utility.yul\":10896:10899   */\n      dup3\n        /* \"#utility.yul\":10893:10894   */\n      0x02\n        /* \"#utility.yul\":10889:10900   */\n      mul\n        /* \"#utility.yul\":10883:10887   */\n      dup3\n        /* \"#utility.yul\":10880:10901   */\n      or\n        /* \"#utility.yul\":10872:10901   */\n      swap1\n      pop\n        /* \"#utility.yul\":10612:10907   */\n      swap3\n      swap2\n      pop\n      pop\n      jump\t// out\n        /* \"#utility.yul\":10912:12307   */\n    tag_60:\n        /* \"#utility.yul\":11029:11066   */\n      tag_245\n        /* \"#utility.yul\":11062:11065   */\n      dup3\n        /* \"#utility.yul\":11029:11066   */\n      tag_83\n      jump\t// in\n    tag_245:\n        /* \"#utility.yul\":11131:11149   */\n      0xffffffffffffffff\n        /* \"#utility.yul\":11123:11129   */\n      dup2\n        /* \"#utility.yul\":11120:11150   */\n      gt\n        /* \"#utility.yul\":11117:11173   */\n      iszero\n      tag_246\n      jumpi\n        /* \"#utility.yul\":11153:11171   */\n      tag_247\n      tag_91\n      jump\t// in\n    tag_247:\n        /* \"#utility.yul\":11117:11173   */\n    tag_246:\n        /* \"#utility.yul\":11197:11235   */\n      tag_248\n        /* \"#utility.yul\":11229:11233   */\n      dup3\n        /* \"#utility.yul\":11223:11234   */\n      sload\n        /* \"#utility.yul\":11197:11235   */\n      tag_47\n      jump\t// in\n    tag_248:\n        /* \"#utility.yul\":11282:11349   */\n      tag_249\n        /* \"#utility.yul\":11342:11348   */\n      dup3\n        /* \"#utility.yul\":11334:11340   */\n      dup3\n        /* \"#utility.yul\":11328:11332   */\n      dup6\n        /* \"#utility.yul\":11282:11349   */\n      tag_110\n      jump\t// in\n    tag_249:\n        /* \"#utility.yul\":11376:11377   */\n      0x00\n        /* \"#utility.yul\":11400:11404   */\n      0x20\n        /* \"#utility.yul\":11387:11404   */\n      swap1\n      pop\n        /* \"#utility.yul\":11432:11434   */\n      0x1f\n        /* \"#utility.yul\":11424:11430   */\n      dup4\n        /* \"#utility.yul\":11421:11435   */\n      gt\n        /* \"#utility.yul\":11449:11450   */\n      0x01\n        /* \"#utility.yul\":11444:12062   */\n      dup2\n      eq\n      tag_251\n      jumpi\n        /* \"#utility.yul\":12106:12107   */\n      0x00\n        /* \"#utility.yul\":12123:12129   */\n      dup5\n        /* \"#utility.yul\":12120:12197   */\n      iszero\n      tag_252\n      jumpi\n        /* \"#utility.yul\":12172:12181   */\n      dup3\n        /* \"#utility.yul\":12167:12170   */\n      dup8\n        /* \"#utility.yul\":12163:12182   */\n      add\n        /* \"#utility.yul\":12157:12183   */\n      mload\n        /* \"#utility.yul\":12148:12183   */\n      swap1\n      pop\n        /* \"#utility.yul\":12120:12197   */\n    tag_252:\n        /* \"#utility.yul\":12223:12290   */\n      tag_253\n        /* \"#utility.yul\":12283:12289   */\n      dup6\n        /* \"#utility.yul\":12276:12281   */\n      dup3\n        /* \"#utility.yul\":12223:12290   */\n      tag_113\n      jump\t// in\n    tag_253:\n        /* \"#utility.yul\":12217:12221   */\n      dup7\n        /* \"#utility.yul\":12210:12291   */\n      sstore\n        /* \"#utility.yul\":12079:12301   */\n      pop\n        /* \"#utility.yul\":11414:12301   */\n      jump(tag_250)\n        /* \"#utility.yul\":11444:12062   */\n    tag_251:\n        /* \"#utility.yul\":11496:11500   */\n      0x1f\n        /* \"#utility.yul\":11492:11501   */\n      not\n        /* \"#utility.yul\":11484:11490   */\n      dup5\n        /* \"#utility.yul\":11480:11502   */\n      and\n        /* \"#utility.yul\":11530:11567   */\n      tag_254\n        /* \"#utility.yul\":11562:11566   */\n      dup7\n        /* \"#utility.yul\":11530:11567   */\n      tag_99\n      jump\t// in\n    tag_254:\n        /* \"#utility.yul\":11589:11590   */\n      0x00\n        /* \"#utility.yul\":11603:11811   */\n    tag_255:\n        /* \"#utility.yul\":11617:11624   */\n      dup3\n        /* \"#utility.yul\":11614:11615   */\n      dup2\n        /* \"#utility.yul\":11611:11625   */\n      lt\n        /* \"#utility.yul\":11603:11811   */\n      iszero\n      tag_257\n      jumpi\n        /* \"#utility.yul\":11696:11705   */\n      dup5\n        /* \"#utility.yul\":11691:11694   */\n      dup10\n        /* \"#utility.yul\":11687:11706   */\n      add\n        /* \"#utility.yul\":11681:11707   */\n      mload\n        /* \"#utility.yul\":11673:11679   */\n      dup3\n        /* \"#utility.yul\":11666:11708   */\n      sstore\n        /* \"#utility.yul\":11747:11748   */\n      0x01\n        /* \"#utility.yul\":11739:11745   */\n      dup3\n        /* \"#utility.yul\":11735:11749   */\n      add\n        /* \"#utility.yul\":11725:11749   */\n      swap2\n      pop\n        /* \"#utility.yul\":11794:11796   */\n      0x20\n        /* \"#utility.yul\":11783:11792   */\n      dup6\n        /* \"#utility.yul\":11779:11797   */\n      add\n        /* \"#utility.yul\":11766:11797   */\n      swap5\n      pop\n        /* \"#utility.yul\":11640:11644   */\n      0x20\n        /* \"#utility.yul\":11637:11638   */\n      dup2\n        /* \"#utility.yul\":11633:11645   */\n      add\n        /* \"#utility.yul\":11628:11645   */\n      swap1\n      pop\n        /* \"#utility.yul\":11603:11811   */\n      jump(tag_255)\n    tag_257:\n        /* \"#utility.yul\":11839:11845   */\n      dup7\n        /* \"#utility.yul\":11830:11837   */\n      dup4\n        /* \"#utility.yul\":11827:11846   */\n      lt\n        /* \"#utility.yul\":11824:12003   */\n      iszero\n      tag_258\n      jumpi\n        /* \"#utility.yul\":11897:11906   */\n      dup5\n        /* \"#utility.yul\":11892:11895   */\n      dup10\n        /* \"#utility.yul\":11888:11907   */\n      add\n        /* \"#utility.yul\":11882:11908   */\n      mload\n        /* \"#utility.yul\":11940:11988   */\n      tag_259\n        /* \"#utility.yul\":11982:11986   */\n      0x1f\n        /* \"#utility.yul\":11974:11980   */\n      dup10\n        /* \"#utility.yul\":11970:11987   */\n      and\n        /* \"#utility.yul\":11959:11968   */\n      dup3\n        /* \"#utility.yul\":11940:11988   */\n      tag_112\n      jump\t// in\n    tag_259:\n        /* \"#utility.yul\":11932:11938   */\n      dup4\n        /* \"#utility.yul\":11925:11989   */\n      sstore\n        /* \"#utility.yul\":11847:12003   */\n      pop\n        /* \"#utility.yul\":11824:12003   */\n    tag_258:\n        /* \"#utility.yul\":12049:12050   */\n      0x01\n        /* \"#utility.yul\":12045:12046   */\n      0x02\n        /* \"#utility.yul\":12037:12043   */\n      dup9\n        /* \"#utility.yul\":12033:12047   */\n      mul\n        /* \"#utility.yul\":12029:12051   */\n      add\n        /* \"#utility.yul\":12023:12027   */\n      dup9\n        /* \"#utility.yul\":12016:12052   */\n      sstore\n        /* \"#utility.yul\":11451:12062   */\n      pop\n      pop\n      pop\n        /* \"#utility.yul\":11414:12301   */\n    tag_250:\n      pop\n        /* \"#utility.yul\":11004:12307   */\n      pop\n      pop\n      pop\n        /* \"#utility.yul\":10912:12307   */\n      pop\n      pop\n      jump\t// out\n\n    auxdata: 0xa26469706673582212207e97cfe0c6cd1131ee62797f0d9ec6674ca7ebe3255490f92e81e4bdefe762b564736f6c63430008130033\n}\n",
				"bytecode": {
					"linkReferences": {},
					"object": "608060405234801561001057600080fd5b5033600160006101000a81548173ffffffffffffffffffffffffffffffffffffffff021916908373ffffffffffffffffffffffffffffffffffffffff1602179055506001600260003373ffffffffffffffffffffffffffffffffffffffff1673ffffffffffffffffffffffffffffffffffffffff16815260200190815260200160002060006101000a81548160ff021916908315150217905550610c23806100b96000396000f3fe608060405234801561001057600080fd5b506004361061007d5760003560e01c80638b62f9f81161005b5780638b62f9f814610100578063a059a14f1461011c578063a0c054df14610138578063bfa7c3cb146101545761007d565b80633d8fc6251461008257806362ada0d7146100b25780636f33506b146100e2575b600080fd5b61009c60048036038101906100979190610564565b610170565b6040516100a991906105ac565b60405180910390f35b6100cc60048036038101906100c791906105fd565b610190565b6040516100d991906106ba565b60405180910390f35b6100ea610240565b6040516100f791906106eb565b60405180910390f35b61011a60048036038101906101159190610564565b610266565b005b6101366004803603810190610131919061083b565b61031b565b005b610152600480360381019061014d9190610884565b6103b0565b005b61016e60048036038101906101699190610564565b61043d565b005b60026020528060005260406000206000915054906101000a900460ff1681565b6060600082815481106101a6576101a56108e0565b5b9060005260206000200180546101bb9061093e565b80601f01602080910402602001604051908101604052809291908181526020018280546101e79061093e565b80156102345780601f1061020957610100808354040283529160200191610234565b820191906000526020600020905b81548152906001019060200180831161021757829003601f168201915b50505050509050919050565b600160009054906101000a900473ffffffffffffffffffffffffffffffffffffffff1681565b3373ffffffffffffffffffffffffffffffffffffffff16600160009054906101000a900473ffffffffffffffffffffffffffffffffffffffff1673ffffffffffffffffffffffffffffffffffffffff16146102c057600080fd5b6000600260008373ffffffffffffffffffffffffffffffffffffffff1673ffffffffffffffffffffffffffffffffffffffff16815260200190815260200160002060006101000a81548160ff02191690831515021790555050565b60011515600260003373ffffffffffffffffffffffffffffffffffffffff1673ffffffffffffffffffffffffffffffffffffffff16815260200190815260200160002060009054906101000a900460ff1615151461037857600080fd5b6000819080600181540180825580915050600190039060005260206000200160009091909190915090816103ac9190610b1b565b5050565b60011515600260003373ffffffffffffffffffffffffffffffffffffffff1673ffffffffffffffffffffffffffffffffffffffff16815260200190815260200160002060009054906101000a900460ff1615151461040d57600080fd5b8160008281548110610422576104216108e0565b5b9060005260206000200190816104389190610b1b565b505050565b3373ffffffffffffffffffffffffffffffffffffffff16600160009054906101000a900473ffffffffffffffffffffffffffffffffffffffff1673ffffffffffffffffffffffffffffffffffffffff161461049757600080fd5b6001600260008373ffffffffffffffffffffffffffffffffffffffff1673ffffffffffffffffffffffffffffffffffffffff16815260200190815260200160002060006101000a81548160ff02191690831515021790555050565b6000604051905090565b600080fd5b600080fd5b600073ffffffffffffffffffffffffffffffffffffffff82169050919050565b600061053182610506565b9050919050565b61054181610526565b811461054c57600080fd5b50565b60008135905061055e81610538565b92915050565b60006020828403121561057a576105796104fc565b5b60006105888482850161054f565b91505092915050565b60008115159050919050565b6105a681610591565b82525050565b60006020820190506105c1600083018461059d565b92915050565b6000819050919050565b6105da816105c7565b81146105e557600080fd5b50565b6000813590506105f7816105d1565b92915050565b600060208284031215610613576106126104fc565b5b6000610621848285016105e8565b91505092915050565b600081519050919050565b600082825260208201905092915050565b60005b83811015610664578082015181840152602081019050610649565b60008484015250505050565b6000601f19601f8301169050919050565b600061068c8261062a565b6106968185610635565b93506106a6818560208601610646565b6106af81610670565b840191505092915050565b600060208201905081810360008301526106d48184610681565b905092915050565b6106e581610526565b82525050565b600060208201905061070060008301846106dc565b92915050565b600080fd5b600080fd5b7f4e487b7100000000000000000000000000000000000000000000000000000000600052604160045260246000fd5b61074882610670565b810181811067ffffffffffffffff8211171561076757610766610710565b5b80604052505050565b600061077a6104f2565b9050610786828261073f565b919050565b600067ffffffffffffffff8211156107a6576107a5610710565b5b6107af82610670565b9050602081019050919050565b82818337600083830152505050565b60006107de6107d98461078b565b610770565b9050828152602081018484840111156107fa576107f961070b565b5b6108058482856107bc565b509392505050565b600082601f83011261082257610821610706565b5b81356108328482602086016107cb565b91505092915050565b600060208284031215610851576108506104fc565b5b600082013567ffffffffffffffff81111561086f5761086e610501565b5b61087b8482850161080d565b91505092915050565b6000806040838503121561089b5761089a6104fc565b5b600083013567ffffffffffffffff8111156108b9576108b8610501565b5b6108c58582860161080d565b92505060206108d6858286016105e8565b9150509250929050565b7f4e487b7100000000000000000000000000000000000000000000000000000000600052603260045260246000fd5b7f4e487b7100000000000000000000000000000000000000000000000000000000600052602260045260246000fd5b6000600282049050600182168061095657607f821691505b6020821081036109695761096861090f565b5b50919050565b60008190508160005260206000209050919050565b60006020601f8301049050919050565b600082821b905092915050565b6000600883026109d17fffffffffffffffffffffffffffffffffffffffffffffffffffffffffffffffff82610994565b6109db8683610994565b95508019841693508086168417925050509392505050565b6000819050919050565b6000610a18610a13610a0e846105c7565b6109f3565b6105c7565b9050919050565b6000819050919050565b610a32836109fd565b610a46610a3e82610a1f565b8484546109a1565b825550505050565b600090565b610a5b610a4e565b610a66818484610a29565b505050565b5b81811015610a8a57610a7f600082610a53565b600181019050610a6c565b5050565b601f821115610acf57610aa08161096f565b610aa984610984565b81016020851015610ab8578190505b610acc610ac485610984565b830182610a6b565b50505b505050565b600082821c905092915050565b6000610af260001984600802610ad4565b1980831691505092915050565b6000610b0b8383610ae1565b9150826002028217905092915050565b610b248261062a565b67ffffffffffffffff811115610b3d57610b3c610710565b5b610b47825461093e565b610b52828285610a8e565b600060209050601f831160018114610b855760008415610b73578287015190505b610b7d8582610aff565b865550610be5565b601f198416610b938661096f565b60005b82811015610bbb57848901518255600182019150602085019450602081019050610b96565b86831015610bd85784890151610bd4601f891682610ae1565b8355505b6001600288020188555050505b50505050505056fea26469706673582212207e97cfe0c6cd1131ee62797f0d9ec6674ca7ebe3255490f92e81e4bdefe762b564736f6c63430008130033",
					"opcodes": "PUSH1 0x80 PUSH1 0x40 MSTORE CALLVALUE DUP1 ISZERO PUSH2 0x10 JUMPI PUSH1 0x0 DUP1 REVERT JUMPDEST POP CALLER PUSH1 0x1 PUSH1 0x0 PUSH2 0x100 EXP DUP2 SLOAD DUP2 PUSH20 0xFFFFFFFFFFFFFFFFFFFFFFFFFFFFFFFFFFFFFFFF MUL NOT AND SWAP1 DUP4 PUSH20 0xFFFFFFFFFFFFFFFFFFFFFFFFFFFFFFFFFFFFFFFF AND MUL OR SWAP1 SSTORE POP PUSH1 0x1 PUSH1 0x2 PUSH1 0x0 CALLER PUSH20 0xFFFFFFFFFFFFFFFFFFFFFFFFFFFFFFFFFFFFFFFF AND PUSH20 0xFFFFFFFFFFFFFFFFFFFFFFFFFFFFFFFFFFFFFFFF AND DUP2 MSTORE PUSH1 0x20 ADD SWAP1 DUP2 MSTORE PUSH1 0x20 ADD PUSH1 0x0 KECCAK256 PUSH1 0x0 PUSH2 0x100 EXP DUP2 SLOAD DUP2 PUSH1 0xFF MUL NOT AND SWAP1 DUP4 ISZERO ISZERO MUL OR SWAP1 SSTORE POP PUSH2 0xC23 DUP1 PUSH2 0xB9 PUSH1 0x0 CODECOPY PUSH1 0x0 RETURN INVALID PUSH1 0x80 PUSH1 0x40 MSTORE CALLVALUE DUP1 ISZERO PUSH2 0x10 JUMPI PUSH1 0x0 DUP1 REVERT JUMPDEST POP PUSH1 0x4 CALLDATASIZE LT PUSH2 0x7D JUMPI PUSH1 0x0 CALLDATALOAD PUSH1 0xE0 SHR DUP1 PUSH4 0x8B62F9F8 GT PUSH2 0x5B JUMPI DUP1 PUSH4 0x8B62F9F8 EQ PUSH2 0x100 JUMPI DUP1 PUSH4 0xA059A14F EQ PUSH2 0x11C JUMPI DUP1 PUSH4 0xA0C054DF EQ PUSH2 0x138 JUMPI DUP1 PUSH4 0xBFA7C3CB EQ PUSH2 0x154 JUMPI PUSH2 0x7D JUMP JUMPDEST DUP1 PUSH4 0x3D8FC625 EQ PUSH2 0x82 JUMPI DUP1 PUSH4 0x62ADA0D7 EQ PUSH2 0xB2 JUMPI DUP1 PUSH4 0x6F33506B EQ PUSH2 0xE2 JUMPI JUMPDEST PUSH1 0x0 DUP1 REVERT JUMPDEST PUSH2 0x9C PUSH1 0x4 DUP1 CALLDATASIZE SUB DUP2 ADD SWAP1 PUSH2 0x97 SWAP2 SWAP1 PUSH2 0x564 JUMP JUMPDEST PUSH2 0x170 JUMP JUMPDEST PUSH1 0x40 MLOAD PUSH2 0xA9 SWAP2 SWAP1 PUSH2 0x5AC JUMP JUMPDEST PUSH1 0x40 MLOAD DUP1 SWAP2 SUB SWAP1 RETURN JUMPDEST PUSH2 0xCC PUSH1 0x4 DUP1 CALLDATASIZE SUB DUP2 ADD SWAP1 PUSH2 0xC7 SWAP2 SWAP1 PUSH2 0x5FD JUMP JUMPDEST PUSH2 0x190 JUMP JUMPDEST PUSH1 0x40 MLOAD PUSH2 0xD9 SWAP2 SWAP1 PUSH2 0x6BA JUMP JUMPDEST PUSH1 0x40 MLOAD DUP1 SWAP2 SUB SWAP1 RETURN JUMPDEST PUSH2 0xEA PUSH2 0x240 JUMP JUMPDEST PUSH1 0x40 MLOAD PUSH2 0xF7 SWAP2 SWAP1 PUSH2 0x6EB JUMP JUMPDEST PUSH1 0x40 MLOAD DUP1 SWAP2 SUB SWAP1 RETURN JUMPDEST PUSH2 0x11A PUSH1 0x4 DUP1 CALLDATASIZE SUB DUP2 ADD SWAP1 PUSH2 0x115 SWAP2 SWAP1 PUSH2 0x564 JUMP JUMPDEST PUSH2 0x266 JUMP JUMPDEST STOP JUMPDEST PUSH2 0x136 PUSH1 0x4 DUP1 CALLDATASIZE SUB DUP2 ADD SWAP1 PUSH2 0x131 SWAP2 SWAP1 PUSH2 0x83B JUMP JUMPDEST PUSH2 0x31B JUMP JUMPDEST STOP JUMPDEST PUSH2 0x152 PUSH1 0x4 DUP1 CALLDATASIZE SUB DUP2 ADD SWAP1 PUSH2 0x14D SWAP2 SWAP1 PUSH2 0x884 JUMP JUMPDEST PUSH2 0x3B0 JUMP JUMPDEST STOP JUMPDEST PUSH2 0x16E PUSH1 0x4 DUP1 CALLDATASIZE SUB DUP2 ADD SWAP1 PUSH2 0x169 SWAP2 SWAP1 PUSH2 0x564 JUMP JUMPDEST PUSH2 0x43D JUMP JUMPDEST STOP JUMPDEST PUSH1 0x2 PUSH1 0x20 MSTORE DUP1 PUSH1 0x0 MSTORE PUSH1 0x40 PUSH1 0x0 KECCAK256 PUSH1 0x0 SWAP2 POP SLOAD SWAP1 PUSH2 0x100 EXP SWAP1 DIV PUSH1 0xFF AND DUP2 JUMP JUMPDEST PUSH1 0x60 PUSH1 0x0 DUP3 DUP2 SLOAD DUP2 LT PUSH2 0x1A6 JUMPI PUSH2 0x1A5 PUSH2 0x8E0 JUMP JUMPDEST JUMPDEST SWAP1 PUSH1 0x0 MSTORE PUSH1 0x20 PUSH1 0x0 KECCAK256 ADD DUP1 SLOAD PUSH2 0x1BB SWAP1 PUSH2 0x93E JUMP JUMPDEST DUP1 PUSH1 0x1F ADD PUSH1 0x20 DUP1 SWAP2 DIV MUL PUSH1 0x20 ADD PUSH1 0x40 MLOAD SWAP1 DUP2 ADD PUSH1 0x40 MSTORE DUP1 SWAP3 SWAP2 SWAP1 DUP2 DUP2 MSTORE PUSH1 0x20 ADD DUP3 DUP1 SLOAD PUSH2 0x1E7 SWAP1 PUSH2 0x93E JUMP JUMPDEST DUP1 ISZERO PUSH2 0x234 JUMPI DUP1 PUSH1 0x1F LT PUSH2 0x209 JUMPI PUSH2 0x100 DUP1 DUP4 SLOAD DIV MUL DUP4 MSTORE SWAP2 PUSH1 0x20 ADD SWAP2 PUSH2 0x234 JUMP JUMPDEST DUP3 ADD SWAP2 SWAP1 PUSH1 0x0 MSTORE PUSH1 0x20 PUSH1 0x0 KECCAK256 SWAP1 JUMPDEST DUP2 SLOAD DUP2 MSTORE SWAP1 PUSH1 0x1 ADD SWAP1 PUSH1 0x20 ADD DUP1 DUP4 GT PUSH2 0x217 JUMPI DUP3 SWAP1 SUB PUSH1 0x1F AND DUP3 ADD SWAP2 JUMPDEST POP POP POP POP POP SWAP1 POP SWAP2 SWAP1 POP JUMP JUMPDEST PUSH1 0x1 PUSH1 0x0 SWAP1 SLOAD SWAP1 PUSH2 0x100 EXP SWAP1 DIV PUSH20 0xFFFFFFFFFFFFFFFFFFFFFFFFFFFFFFFFFFFFFFFF AND DUP2 JUMP JUMPDEST CALLER PUSH20 0xFFFFFFFFFFFFFFFFFFFFFFFFFFFFFFFFFFFFFFFF AND PUSH1 0x1 PUSH1 0x0 SWAP1 SLOAD SWAP1 PUSH2 0x100 EXP SWAP1 DIV PUSH20 0xFFFFFFFFFFFFFFFFFFFFFFFFFFFFFFFFFFFFFFFF AND PUSH20 0xFFFFFFFFFFFFFFFFFFFFFFFFFFFFFFFFFFFFFFFF AND EQ PUSH2 0x2C0 JUMPI PUSH1 0x0 DUP1 REVERT JUMPDEST PUSH1 0x0 PUSH1 0x2 PUSH1 0x0 DUP4 PUSH20 0xFFFFFFFFFFFFFFFFFFFFFFFFFFFFFFFFFFFFFFFF AND PUSH20 0xFFFFFFFFFFFFFFFFFFFFFFFFFFFFFFFFFFFFFFFF AND DUP2 MSTORE PUSH1 0x20 ADD SWAP1 DUP2 MSTORE PUSH1 0x20 ADD PUSH1 0x0 KECCAK256 PUSH1 0x0 PUSH2 0x100 EXP DUP2 SLOAD DUP2 PUSH1 0xFF MUL NOT AND SWAP1 DUP4 ISZERO ISZERO MUL OR SWAP1 SSTORE POP POP JUMP JUMPDEST PUSH1 0x1 ISZERO ISZERO PUSH1 0x2 PUSH1 0x0 CALLER PUSH20 0xFFFFFFFFFFFFFFFFFFFFFFFFFFFFFFFFFFFFFFFF AND PUSH20 0xFFFFFFFFFFFFFFFFFFFFFFFFFFFFFFFFFFFFFFFF AND DUP2 MSTORE PUSH1 0x20 ADD SWAP1 DUP2 MSTORE PUSH1 0x20 ADD PUSH1 0x0 KECCAK256 PUSH1 0x0 SWAP1 SLOAD SWAP1 PUSH2 0x100 EXP SWAP1 DIV PUSH1 0xFF AND ISZERO ISZERO EQ PUSH2 0x378 JUMPI PUSH1 0x0 DUP1 REVERT JUMPDEST PUSH1 0x0 DUP2 SWAP1 DUP1 PUSH1 0x1 DUP2 SLOAD ADD DUP1 DUP3 SSTORE DUP1 SWAP2 POP POP PUSH1 0x1 SWAP1 SUB SWAP1 PUSH1 0x0 MSTORE PUSH1 0x20 PUSH1 0x0 KECCAK256 ADD PUSH1 0x0 SWAP1 SWAP2 SWAP1 SWAP2 SWAP1 SWAP2 POP SWAP1 DUP2 PUSH2 0x3AC SWAP2 SWAP1 PUSH2 0xB1B JUMP JUMPDEST POP POP JUMP JUMPDEST PUSH1 0x1 ISZERO ISZERO PUSH1 0x2 PUSH1 0x0 CALLER PUSH20 0xFFFFFFFFFFFFFFFFFFFFFFFFFFFFFFFFFFFFFFFF AND PUSH20 0xFFFFFFFFFFFFFFFFFFFFFFFFFFFFFFFFFFFFFFFF AND DUP2 MSTORE PUSH1 0x20 ADD SWAP1 DUP2 MSTORE PUSH1 0x20 ADD PUSH1 0x0 KECCAK256 PUSH1 0x0 SWAP1 SLOAD SWAP1 PUSH2 0x100 EXP SWAP1 DIV PUSH1 0xFF AND ISZERO ISZERO EQ PUSH2 0x40D JUMPI PUSH1 0x0 DUP1 REVERT JUMPDEST DUP2 PUSH1 0x0 DUP3 DUP2 SLOAD DUP2 LT PUSH2 0x422 JUMPI PUSH2 0x421 PUSH2 0x8E0 JUMP JUMPDEST JUMPDEST SWAP1 PUSH1 0x0 MSTORE PUSH1 0x20 PUSH1 0x0 KECCAK256 ADD SWAP1 DUP2 PUSH2 0x438 SWAP2 SWAP1 PUSH2 0xB1B JUMP JUMPDEST POP POP POP JUMP JUMPDEST CALLER PUSH20 0xFFFFFFFFFFFFFFFFFFFFFFFFFFFFFFFFFFFFFFFF AND PUSH1 0x1 PUSH1 0x0 SWAP1 SLOAD SWAP1 PUSH2 0x100 EXP SWAP1 DIV PUSH20 0xFFFFFFFFFFFFFFFFFFFFFFFFFFFFFFFFFFFFFFFF AND PUSH20 0xFFFFFFFFFFFFFFFFFFFFFFFFFFFFFFFFFFFFFFFF AND EQ PUSH2 0x497 JUMPI PUSH1 0x0 DUP1 REVERT JUMPDEST PUSH1 0x1 PUSH1 0x2 PUSH1 0x0 DUP4 PUSH20 0xFFFFFFFFFFFFFFFFFFFFFFFFFFFFFFFFFFFFFFFF AND PUSH20 0xFFFFFFFFFFFFFFFFFFFFFFFFFFFFFFFFFFFFFFFF AND DUP2 MSTORE PUSH1 0x20 ADD SWAP1 DUP2 MSTORE PUSH1 0x20 ADD PUSH1 0x0 KECCAK256 PUSH1 0x0 PUSH2 0x100 EXP DUP2 SLOAD DUP2 PUSH1 0xFF MUL NOT AND SWAP1 DUP4 ISZERO ISZERO MUL OR SWAP1 SSTORE POP POP JUMP JUMPDEST PUSH1 0x0 PUSH1 0x40 MLOAD SWAP1 POP SWAP1 JUMP JUMPDEST PUSH1 0x0 DUP1 REVERT JUMPDEST PUSH1 0x0 DUP1 REVERT JUMPDEST PUSH1 0x0 PUSH20 0xFFFFFFFFFFFFFFFFFFFFFFFFFFFFFFFFFFFFFFFF DUP3 AND SWAP1 POP SWAP2 SWAP1 POP JUMP JUMPDEST PUSH1 0x0 PUSH2 0x531 DUP3 PUSH2 0x506 JUMP JUMPDEST SWAP1 POP SWAP2 SWAP1 POP JUMP JUMPDEST PUSH2 0x541 DUP2 PUSH2 0x526 JUMP JUMPDEST DUP2 EQ PUSH2 0x54C JUMPI PUSH1 0x0 DUP1 REVERT JUMPDEST POP JUMP JUMPDEST PUSH1 0x0 DUP2 CALLDATALOAD SWAP1 POP PUSH2 0x55E DUP2 PUSH2 0x538 JUMP JUMPDEST SWAP3 SWAP2 POP POP JUMP JUMPDEST PUSH1 0x0 PUSH1 0x20 DUP3 DUP5 SUB SLT ISZERO PUSH2 0x57A JUMPI PUSH2 0x579 PUSH2 0x4FC JUMP JUMPDEST JUMPDEST PUSH1 0x0 PUSH2 0x588 DUP5 DUP3 DUP6 ADD PUSH2 0x54F JUMP JUMPDEST SWAP2 POP POP SWAP3 SWAP2 POP POP JUMP JUMPDEST PUSH1 0x0 DUP2 ISZERO ISZERO SWAP1 POP SWAP2 SWAP1 POP JUMP JUMPDEST PUSH2 0x5A6 DUP2 PUSH2 0x591 JUMP JUMPDEST DUP3 MSTORE POP POP JUMP JUMPDEST PUSH1 0x0 PUSH1 0x20 DUP3 ADD SWAP1 POP PUSH2 0x5C1 PUSH1 0x0 DUP4 ADD DUP5 PUSH2 0x59D JUMP JUMPDEST SWAP3 SWAP2 POP POP JUMP JUMPDEST PUSH1 0x0 DUP2 SWAP1 POP SWAP2 SWAP1 POP JUMP JUMPDEST PUSH2 0x5DA DUP2 PUSH2 0x5C7 JUMP JUMPDEST DUP2 EQ PUSH2 0x5E5 JUMPI PUSH1 0x0 DUP1 REVERT JUMPDEST POP JUMP JUMPDEST PUSH1 0x0 DUP2 CALLDATALOAD SWAP1 POP PUSH2 0x5F7 DUP2 PUSH2 0x5D1 JUMP JUMPDEST SWAP3 SWAP2 POP POP JUMP JUMPDEST PUSH1 0x0 PUSH1 0x20 DUP3 DUP5 SUB SLT ISZERO PUSH2 0x613 JUMPI PUSH2 0x612 PUSH2 0x4FC JUMP JUMPDEST JUMPDEST PUSH1 0x0 PUSH2 0x621 DUP5 DUP3 DUP6 ADD PUSH2 0x5E8 JUMP JUMPDEST SWAP2 POP POP SWAP3 SWAP2 POP POP JUMP JUMPDEST PUSH1 0x0 DUP2 MLOAD SWAP1 POP SWAP2 SWAP1 POP JUMP JUMPDEST PUSH1 0x0 DUP3 DUP3 MSTORE PUSH1 0x20 DUP3 ADD SWAP1 POP SWAP3 SWAP2 POP POP JUMP JUMPDEST PUSH1 0x0 JUMPDEST DUP4 DUP2 LT ISZERO PUSH2 0x664 JUMPI DUP1 DUP3 ADD MLOAD DUP2 DUP5 ADD MSTORE PUSH1 0x20 DUP2 ADD SWAP1 POP PUSH2 0x649 JUMP JUMPDEST PUSH1 0x0 DUP5 DUP5 ADD MSTORE POP POP POP POP JUMP JUMPDEST PUSH1 0x0 PUSH1 0x1F NOT PUSH1 0x1F DUP4 ADD AND SWAP1 POP SWAP2 SWAP1 POP JUMP JUMPDEST PUSH1 0x0 PUSH2 0x68C DUP3 PUSH2 0x62A JUMP JUMPDEST PUSH2 0x696 DUP2 DUP6 PUSH2 0x635 JUMP JUMPDEST SWAP4 POP PUSH2 0x6A6 DUP2 DUP6 PUSH1 0x20 DUP7 ADD PUSH2 0x646 JUMP JUMPDEST PUSH2 0x6AF DUP2 PUSH2 0x670 JUMP JUMPDEST DUP5 ADD SWAP2 POP POP SWAP3 SWAP2 POP POP JUMP JUMPDEST PUSH1 0x0 PUSH1 0x20 DUP3 ADD SWAP1 POP DUP2 DUP2 SUB PUSH1 0x0 DUP4 ADD MSTORE PUSH2 0x6D4 DUP2 DUP5 PUSH2 0x681 JUMP JUMPDEST SWAP1 POP SWAP3 SWAP2 POP POP JUMP JUMPDEST PUSH2 0x6E5 DUP2 PUSH2 0x526 JUMP JUMPDEST DUP3 MSTORE POP POP JUMP JUMPDEST PUSH1 0x0 PUSH1 0x20 DUP3 ADD SWAP1 POP PUSH2 0x700 PUSH1 0x0 DUP4 ADD DUP5 PUSH2 0x6DC JUMP JUMPDEST SWAP3 SWAP2 POP POP JUMP JUMPDEST PUSH1 0x0 DUP1 REVERT JUMPDEST PUSH1 0x0 DUP1 REVERT JUMPDEST PUSH32 0x4E487B7100000000000000000000000000000000000000000000000000000000 PUSH1 0x0 MSTORE PUSH1 0x41 PUSH1 0x4 MSTORE PUSH1 0x24 PUSH1 0x0 REVERT JUMPDEST PUSH2 0x748 DUP3 PUSH2 0x670 JUMP JUMPDEST DUP2 ADD DUP2 DUP2 LT PUSH8 0xFFFFFFFFFFFFFFFF DUP3 GT OR ISZERO PUSH2 0x767 JUMPI PUSH2 0x766 PUSH2 0x710 JUMP JUMPDEST JUMPDEST DUP1 PUSH1 0x40 MSTORE POP POP POP JUMP JUMPDEST PUSH1 0x0 PUSH2 0x77A PUSH2 0x4F2 JUMP JUMPDEST SWAP1 POP PUSH2 0x786 DUP3 DUP3 PUSH2 0x73F JUMP JUMPDEST SWAP2 SWAP1 POP JUMP JUMPDEST PUSH1 0x0 PUSH8 0xFFFFFFFFFFFFFFFF DUP3 GT ISZERO PUSH2 0x7A6 JUMPI PUSH2 0x7A5 PUSH2 0x710 JUMP JUMPDEST JUMPDEST PUSH2 0x7AF DUP3 PUSH2 0x670 JUMP JUMPDEST SWAP1 POP PUSH1 0x20 DUP2 ADD SWAP1 POP SWAP2 SWAP1 POP JUMP JUMPDEST DUP3 DUP2 DUP4 CALLDATACOPY PUSH1 0x0 DUP4 DUP4 ADD MSTORE POP POP POP JUMP JUMPDEST PUSH1 0x0 PUSH2 0x7DE PUSH2 0x7D9 DUP5 PUSH2 0x78B JUMP JUMPDEST PUSH2 0x770 JUMP JUMPDEST SWAP1 POP DUP3 DUP2 MSTORE PUSH1 0x20 DUP2 ADD DUP5 DUP5 DUP5 ADD GT ISZERO PUSH2 0x7FA JUMPI PUSH2 0x7F9 PUSH2 0x70B JUMP JUMPDEST JUMPDEST PUSH2 0x805 DUP5 DUP3 DUP6 PUSH2 0x7BC JUMP JUMPDEST POP SWAP4 SWAP3 POP POP POP JUMP JUMPDEST PUSH1 0x0 DUP3 PUSH1 0x1F DUP4 ADD SLT PUSH2 0x822 JUMPI PUSH2 0x821 PUSH2 0x706 JUMP JUMPDEST JUMPDEST DUP2 CALLDATALOAD PUSH2 0x832 DUP5 DUP3 PUSH1 0x20 DUP7 ADD PUSH2 0x7CB JUMP JUMPDEST SWAP2 POP POP SWAP3 SWAP2 POP POP JUMP JUMPDEST PUSH1 0x0 PUSH1 0x20 DUP3 DUP5 SUB SLT ISZERO PUSH2 0x851 JUMPI PUSH2 0x850 PUSH2 0x4FC JUMP JUMPDEST JUMPDEST PUSH1 0x0 DUP3 ADD CALLDATALOAD PUSH8 0xFFFFFFFFFFFFFFFF DUP2 GT ISZERO PUSH2 0x86F JUMPI PUSH2 0x86E PUSH2 0x501 JUMP JUMPDEST JUMPDEST PUSH2 0x87B DUP5 DUP3 DUP6 ADD PUSH2 0x80D JUMP JUMPDEST SWAP2 POP POP SWAP3 SWAP2 POP POP JUMP JUMPDEST PUSH1 0x0 DUP1 PUSH1 0x40 DUP4 DUP6 SUB SLT ISZERO PUSH2 0x89B JUMPI PUSH2 0x89A PUSH2 0x4FC JUMP JUMPDEST JUMPDEST PUSH1 0x0 DUP4 ADD CALLDATALOAD PUSH8 0xFFFFFFFFFFFFFFFF DUP2 GT ISZERO PUSH2 0x8B9 JUMPI PUSH2 0x8B8 PUSH2 0x501 JUMP JUMPDEST JUMPDEST PUSH2 0x8C5 DUP6 DUP3 DUP7 ADD PUSH2 0x80D JUMP JUMPDEST SWAP3 POP POP PUSH1 0x20 PUSH2 0x8D6 DUP6 DUP3 DUP7 ADD PUSH2 0x5E8 JUMP JUMPDEST SWAP2 POP POP SWAP3 POP SWAP3 SWAP1 POP JUMP JUMPDEST PUSH32 0x4E487B7100000000000000000000000000000000000000000000000000000000 PUSH1 0x0 MSTORE PUSH1 0x32 PUSH1 0x4 MSTORE PUSH1 0x24 PUSH1 0x0 REVERT JUMPDEST PUSH32 0x4E487B7100000000000000000000000000000000000000000000000000000000 PUSH1 0x0 MSTORE PUSH1 0x22 PUSH1 0x4 MSTORE PUSH1 0x24 PUSH1 0x0 REVERT JUMPDEST PUSH1 0x0 PUSH1 0x2 DUP3 DIV SWAP1 POP PUSH1 0x1 DUP3 AND DUP1 PUSH2 0x956 JUMPI PUSH1 0x7F DUP3 AND SWAP2 POP JUMPDEST PUSH1 0x20 DUP3 LT DUP2 SUB PUSH2 0x969 JUMPI PUSH2 0x968 PUSH2 0x90F JUMP JUMPDEST JUMPDEST POP SWAP2 SWAP1 POP JUMP JUMPDEST PUSH1 0x0 DUP2 SWAP1 POP DUP2 PUSH1 0x0 MSTORE PUSH1 0x20 PUSH1 0x0 KECCAK256 SWAP1 POP SWAP2 SWAP1 POP JUMP JUMPDEST PUSH1 0x0 PUSH1 0x20 PUSH1 0x1F DUP4 ADD DIV SWAP1 POP SWAP2 SWAP1 POP JUMP JUMPDEST PUSH1 0x0 DUP3 DUP3 SHL SWAP1 POP SWAP3 SWAP2 POP POP JUMP JUMPDEST PUSH1 0x0 PUSH1 0x8 DUP4 MUL PUSH2 0x9D1 PUSH32 0xFFFFFFFFFFFFFFFFFFFFFFFFFFFFFFFFFFFFFFFFFFFFFFFFFFFFFFFFFFFFFFFF DUP3 PUSH2 0x994 JUMP JUMPDEST PUSH2 0x9DB DUP7 DUP4 PUSH2 0x994 JUMP JUMPDEST SWAP6 POP DUP1 NOT DUP5 AND SWAP4 POP DUP1 DUP7 AND DUP5 OR SWAP3 POP POP POP SWAP4 SWAP3 POP POP POP JUMP JUMPDEST PUSH1 0x0 DUP2 SWAP1 POP SWAP2 SWAP1 POP JUMP JUMPDEST PUSH1 0x0 PUSH2 0xA18 PUSH2 0xA13 PUSH2 0xA0E DUP5 PUSH2 0x5C7 JUMP JUMPDEST PUSH2 0x9F3 JUMP JUMPDEST PUSH2 0x5C7 JUMP JUMPDEST SWAP1 POP SWAP2 SWAP1 POP JUMP JUMPDEST PUSH1 0x0 DUP2 SWAP1 POP SWAP2 SWAP1 POP JUMP JUMPDEST PUSH2 0xA32 DUP4 PUSH2 0x9FD JUMP JUMPDEST PUSH2 0xA46 PUSH2 0xA3E DUP3 PUSH2 0xA1F JUMP JUMPDEST DUP5 DUP5 SLOAD PUSH2 0x9A1 JUMP JUMPDEST DUP3 SSTORE POP POP POP POP JUMP JUMPDEST PUSH1 0x0 SWAP1 JUMP JUMPDEST PUSH2 0xA5B PUSH2 0xA4E JUMP JUMPDEST PUSH2 0xA66 DUP2 DUP5 DUP5 PUSH2 0xA29 JUMP JUMPDEST POP POP POP JUMP JUMPDEST JUMPDEST DUP2 DUP2 LT ISZERO PUSH2 0xA8A JUMPI PUSH2 0xA7F PUSH1 0x0 DUP3 PUSH2 0xA53 JUMP JUMPDEST PUSH1 0x1 DUP2 ADD SWAP1 POP PUSH2 0xA6C JUMP JUMPDEST POP POP JUMP JUMPDEST PUSH1 0x1F DUP3 GT ISZERO PUSH2 0xACF JUMPI PUSH2 0xAA0 DUP2 PUSH2 0x96F JUMP JUMPDEST PUSH2 0xAA9 DUP5 PUSH2 0x984 JUMP JUMPDEST DUP2 ADD PUSH1 0x20 DUP6 LT ISZERO PUSH2 0xAB8 JUMPI DUP2 SWAP1 POP JUMPDEST PUSH2 0xACC PUSH2 0xAC4 DUP6 PUSH2 0x984 JUMP JUMPDEST DUP4 ADD DUP3 PUSH2 0xA6B JUMP JUMPDEST POP POP JUMPDEST POP POP POP JUMP JUMPDEST PUSH1 0x0 DUP3 DUP3 SHR SWAP1 POP SWAP3 SWAP2 POP POP JUMP JUMPDEST PUSH1 0x0 PUSH2 0xAF2 PUSH1 0x0 NOT DUP5 PUSH1 0x8 MUL PUSH2 0xAD4 JUMP JUMPDEST NOT DUP1 DUP4 AND SWAP2 POP POP SWAP3 SWAP2 POP POP JUMP JUMPDEST PUSH1 0x0 PUSH2 0xB0B DUP4 DUP4 PUSH2 0xAE1 JUMP JUMPDEST SWAP2 POP DUP3 PUSH1 0x2 MUL DUP3 OR SWAP1 POP SWAP3 SWAP2 POP POP JUMP JUMPDEST PUSH2 0xB24 DUP3 PUSH2 0x62A JUMP JUMPDEST PUSH8 0xFFFFFFFFFFFFFFFF DUP2 GT ISZERO PUSH2 0xB3D JUMPI PUSH2 0xB3C PUSH2 0x710 JUMP JUMPDEST JUMPDEST PUSH2 0xB47 DUP3 SLOAD PUSH2 0x93E JUMP JUMPDEST PUSH2 0xB52 DUP3 DUP3 DUP6 PUSH2 0xA8E JUMP JUMPDEST PUSH1 0x0 PUSH1 0x20 SWAP1 POP PUSH1 0x1F DUP4 GT PUSH1 0x1 DUP2 EQ PUSH2 0xB85 JUMPI PUSH1 0x0 DUP5 ISZERO PUSH2 0xB73 JUMPI DUP3 DUP8 ADD MLOAD SWAP1 POP JUMPDEST PUSH2 0xB7D DUP6 DUP3 PUSH2 0xAFF JUMP JUMPDEST DUP7 SSTORE POP PUSH2 0xBE5 JUMP JUMPDEST PUSH1 0x1F NOT DUP5 AND PUSH2 0xB93 DUP7 PUSH2 0x96F JUMP JUMPDEST PUSH1 0x0 JUMPDEST DUP3 DUP2 LT ISZERO PUSH2 0xBBB JUMPI DUP5 DUP10 ADD MLOAD DUP3 SSTORE PUSH1 0x1 DUP3 ADD SWAP2 POP PUSH1 0x20 DUP6 ADD SWAP5 POP PUSH1 0x20 DUP2 ADD SWAP1 POP PUSH2 0xB96 JUMP JUMPDEST DUP7 DUP4 LT ISZERO PUSH2 0xBD8 JUMPI DUP5 DUP10 ADD MLOAD PUSH2 0xBD4 PUSH1 0x1F DUP10 AND DUP3 PUSH2 0xAE1 JUMP JUMPDEST DUP4 SSTORE POP JUMPDEST PUSH1 0x1 PUSH1 0x2 DUP9 MUL ADD DUP9 SSTORE POP POP POP JUMPDEST POP POP POP POP POP POP JUMP INVALID LOG2 PUSH5 0x6970667358 0x22 SLT KECCAK256 PUSH31 0x97CFE0C6CD1131EE62797F0D9EC6674CA7EBE3255490F92E81E4BDEFE762B5 PUSH5 0x736F6C6343 STOP ADDMOD SGT STOP CALLER "
				},
				"gasEstimates": {
					"creation": {
						"codeDepositCost": "621400",
						"executionCost": "49279",
						"totalCost": "670679"
					},
					"external": {
						"izinliAdresCikar(address)": "26982",
						"izinliAdresEkle(address)": "27048",
						"izinliListesi(address)": "2846",
						"kontratSahibi()": "2559",
						"mesajDegistir(string,uint256)": "infinite",
						"mesajEkle(string)": "infinite",
						"mesajiGoruntule(uint256)": "infinite"
					}
				},
				"methodIdentifiers": {
					"izinliAdresCikar(address)": "8b62f9f8",
					"izinliAdresEkle(address)": "bfa7c3cb",
					"izinliListesi(address)": "3d8fc625",
					"kontratSahibi()": "6f33506b",
					"mesajDegistir(string,uint256)": "a0c054df",
					"mesajEkle(string)": "a059a14f",
					"mesajiGoruntule(uint256)": "62ada0d7"
				}
			},
			"storageLayout": {
				"storage": [
					{
						"astId": 4,
						"contract": "Chainlink Bootcamp/Day2/Kay覺tOlv2.sol:Depolama",
						"label": "mesajlar",
						"offset": 0,
						"slot": "0",
						"type": "t_array(t_string_storage)dyn_storage"
					},
					{
						"astId": 6,
						"contract": "Chainlink Bootcamp/Day2/Kay覺tOlv2.sol:Depolama",
						"label": "kontratSahibi",
						"offset": 0,
						"slot": "1",
						"type": "t_address"
					},
					{
						"astId": 10,
						"contract": "Chainlink Bootcamp/Day2/Kay覺tOlv2.sol:Depolama",
						"label": "izinliListesi",
						"offset": 0,
						"slot": "2",
						"type": "t_mapping(t_address,t_bool)"
					}
				],
				"types": {
					"t_address": {
						"encoding": "inplace",
						"label": "address",
						"numberOfBytes": "20"
					},
					"t_array(t_string_storage)dyn_storage": {
						"base": "t_string_storage",
						"encoding": "dynamic_array",
						"label": "string[]",
						"numberOfBytes": "32"
					},
					"t_bool": {
						"encoding": "inplace",
						"label": "bool",
						"numberOfBytes": "1"
					},
					"t_mapping(t_address,t_bool)": {
						"encoding": "mapping",
						"key": "t_address",
						"label": "mapping(address => bool)",
						"numberOfBytes": "32",
						"value": "t_bool"
					},
					"t_string_storage": {
						"encoding": "bytes",
						"label": "string",
						"numberOfBytes": "32"
					}
				}
			},
			"userdoc": {
				"kind": "user",
				"methods": {},
				"version": 1
			}
		}
	}
}