{
	"Chainlink Bootcamp/Day4/TransferUSDCBasic.sol": {
		"TransferUSDCBasic": {
			"abi": [
				{
					"inputs": [],
					"stateMutability": "nonpayable",
					"type": "constructor"
				},
				{
					"inputs": [
						{
							"internalType": "uint256",
							"name": "currentBalance",
							"type": "uint256"
						},
						{
							"internalType": "uint256",
							"name": "calculatedFees",
							"type": "uint256"
						}
					],
					"name": "NotEnoughBalanceForFees",
					"type": "error"
				},
				{
					"inputs": [
						{
							"internalType": "uint256",
							"name": "currentBalance",
							"type": "uint256"
						}
					],
					"name": "NotEnoughBalanceUsdcForTransfer",
					"type": "error"
				},
				{
					"inputs": [],
					"name": "NothingToWithdraw",
					"type": "error"
				},
				{
					"anonymous": false,
					"inputs": [
						{
							"indexed": false,
							"internalType": "bytes32",
							"name": "messageId",
							"type": "bytes32"
						},
						{
							"indexed": false,
							"internalType": "uint64",
							"name": "destinationChainSelector",
							"type": "uint64"
						},
						{
							"indexed": false,
							"internalType": "address",
							"name": "receiver",
							"type": "address"
						},
						{
							"indexed": false,
							"internalType": "uint256",
							"name": "amount",
							"type": "uint256"
						},
						{
							"indexed": false,
							"internalType": "uint256",
							"name": "ccipFee",
							"type": "uint256"
						}
					],
					"name": "UsdcTransferred",
					"type": "event"
				},
				{
					"inputs": [],
					"name": "allowanceUsdc",
					"outputs": [
						{
							"internalType": "uint256",
							"name": "usdcAmount",
							"type": "uint256"
						}
					],
					"stateMutability": "view",
					"type": "function"
				},
				{
					"inputs": [
						{
							"internalType": "address",
							"name": "account",
							"type": "address"
						}
					],
					"name": "balancesOf",
					"outputs": [
						{
							"internalType": "uint256",
							"name": "linkBalance",
							"type": "uint256"
						},
						{
							"internalType": "uint256",
							"name": "usdcBalance",
							"type": "uint256"
						}
					],
					"stateMutability": "view",
					"type": "function"
				},
				{
					"inputs": [],
					"name": "owner",
					"outputs": [
						{
							"internalType": "address",
							"name": "",
							"type": "address"
						}
					],
					"stateMutability": "view",
					"type": "function"
				},
				{
					"inputs": [
						{
							"internalType": "address",
							"name": "_receiver",
							"type": "address"
						},
						{
							"internalType": "uint256",
							"name": "_amount",
							"type": "uint256"
						}
					],
					"name": "transferUsdcToSepolia",
					"outputs": [
						{
							"internalType": "bytes32",
							"name": "messageId",
							"type": "bytes32"
						}
					],
					"stateMutability": "nonpayable",
					"type": "function"
				},
				{
					"inputs": [
						{
							"internalType": "address",
							"name": "_beneficiary",
							"type": "address"
						},
						{
							"internalType": "address",
							"name": "_token",
							"type": "address"
						}
					],
					"name": "withdrawToken",
					"outputs": [],
					"stateMutability": "nonpayable",
					"type": "function"
				}
			],
			"devdoc": {
				"kind": "dev",
				"methods": {},
				"version": 1
			},
			"evm": {
				"assembly": "    /* \"Chainlink Bootcamp/Day4/TransferUSDCBasic.sol\":700:4472  contract TransferUSDCBasic {... */\n  mstore(0x40, 0xe0)\n    /* \"Chainlink Bootcamp/Day4/TransferUSDCBasic.sol\":1216:1258  0xF694E193200268f9a4868e4Aa017A0118C9a8177 */\n  0xf694e193200268f9a4868e4aa017a0118c9a8177\n    /* \"Chainlink Bootcamp/Day4/TransferUSDCBasic.sol\":1188:1258  address ccipRouterAddress = 0xF694E193200268f9a4868e4Aa017A0118C9a8177 */\n  0x01\n  exp(0x0100, 0x00)\n  dup2\n  sload\n  dup2\n  0xffffffffffffffffffffffffffffffffffffffff\n  mul\n  not\n  and\n  swap1\n  dup4\n  0xffffffffffffffffffffffffffffffffffffffff\n  and\n  mul\n  or\n  swap1\n  sstore\n  pop\n    /* \"Chainlink Bootcamp/Day4/TransferUSDCBasic.sol\":1362:1404  0x0b9d5D9136855f6FEc3c0993feE6E9CE8a297846 */\n  0x0b9d5d9136855f6fec3c0993fee6e9ce8a297846\n    /* \"Chainlink Bootcamp/Day4/TransferUSDCBasic.sol\":1340:1404  address linkAddress = 0x0b9d5D9136855f6FEc3c0993feE6E9CE8a297846 */\n  0x02\n  exp(0x0100, 0x00)\n  dup2\n  sload\n  dup2\n  0xffffffffffffffffffffffffffffffffffffffff\n  mul\n  not\n  and\n  swap1\n  dup4\n  0xffffffffffffffffffffffffffffffffffffffff\n  and\n  mul\n  or\n  swap1\n  sstore\n  pop\n    /* \"Chainlink Bootcamp/Day4/TransferUSDCBasic.sol\":1509:1551  0x5425890298aed601595a70AB815c96711a31Bc65 */\n  0x5425890298aed601595a70ab815c96711a31bc65\n    /* \"Chainlink Bootcamp/Day4/TransferUSDCBasic.sol\":1487:1551  address usdcAddress = 0x5425890298aed601595a70AB815c96711a31Bc65 */\n  0x03\n  exp(0x0100, 0x00)\n  dup2\n  sload\n  dup2\n  0xffffffffffffffffffffffffffffffffffffffff\n  mul\n  not\n  and\n  swap1\n  dup4\n  0xffffffffffffffffffffffffffffffffffffffff\n  and\n  mul\n  or\n  swap1\n  sstore\n  pop\n    /* \"Chainlink Bootcamp/Day4/TransferUSDCBasic.sol\":1679:1699  16015286601757825753 */\n  0xde41ba4fc9d91ad9\n    /* \"Chainlink Bootcamp/Day4/TransferUSDCBasic.sol\":1645:1699  uint64 destinationChainSelector = 16015286601757825753 */\n  0x03\n  exp(0x0100, 0x14)\n  dup2\n  sload\n  dup2\n  0xffffffffffffffff\n  mul\n  not\n  and\n  swap1\n  dup4\n  0xffffffffffffffff\n  and\n  mul\n  or\n  swap1\n  sstore\n  pop\n    /* \"Chainlink Bootcamp/Day4/TransferUSDCBasic.sol\":1883:2069  constructor() {... */\n  callvalue\n  dup1\n  iszero\n  tag_1\n  jumpi\n  0x00\n  dup1\n  revert\ntag_1:\n  pop\n    /* \"Chainlink Bootcamp/Day4/TransferUSDCBasic.sol\":1915:1925  msg.sender */\n  caller\n    /* \"Chainlink Bootcamp/Day4/TransferUSDCBasic.sol\":1907:1912  owner */\n  0x00\n  dup1\n    /* \"Chainlink Bootcamp/Day4/TransferUSDCBasic.sol\":1907:1925  owner = msg.sender */\n  0x0100\n  exp\n  dup2\n  sload\n  dup2\n  0xffffffffffffffffffffffffffffffffffffffff\n  mul\n  not\n  and\n  swap1\n  dup4\n  0xffffffffffffffffffffffffffffffffffffffff\n  and\n  mul\n  or\n  swap1\n  sstore\n  pop\n    /* \"Chainlink Bootcamp/Day4/TransferUSDCBasic.sol\":1962:1979  ccipRouterAddress */\n  0x01\n  0x00\n  swap1\n  sload\n  swap1\n  0x0100\n  exp\n  swap1\n  div\n  0xffffffffffffffffffffffffffffffffffffffff\n  and\n    /* \"Chainlink Bootcamp/Day4/TransferUSDCBasic.sol\":1935:1980  ccipRouter = IRouterClient(ccipRouterAddress) */\n  0xffffffffffffffffffffffffffffffffffffffff\n  and\n  0x80\n  dup2\n  0xffffffffffffffffffffffffffffffffffffffff\n  and\n  dup2\n  mstore\n  pop\n  pop\n    /* \"Chainlink Bootcamp/Day4/TransferUSDCBasic.sol\":2009:2020  linkAddress */\n  0x02\n  0x00\n  swap1\n  sload\n  swap1\n  0x0100\n  exp\n  swap1\n  div\n  0xffffffffffffffffffffffffffffffffffffffff\n  and\n    /* \"Chainlink Bootcamp/Day4/TransferUSDCBasic.sol\":1990:2021  linkToken = IERC20(linkAddress) */\n  0xffffffffffffffffffffffffffffffffffffffff\n  and\n  0xa0\n  dup2\n  0xffffffffffffffffffffffffffffffffffffffff\n  and\n  dup2\n  mstore\n  pop\n  pop\n    /* \"Chainlink Bootcamp/Day4/TransferUSDCBasic.sol\":2050:2061  usdcAddress */\n  0x03\n  0x00\n  swap1\n  sload\n  swap1\n  0x0100\n  exp\n  swap1\n  div\n  0xffffffffffffffffffffffffffffffffffffffff\n  and\n    /* \"Chainlink Bootcamp/Day4/TransferUSDCBasic.sol\":2031:2062  usdcToken = IERC20(usdcAddress) */\n  0xffffffffffffffffffffffffffffffffffffffff\n  and\n  0xc0\n  dup2\n  0xffffffffffffffffffffffffffffffffffffffff\n  and\n  dup2\n  mstore\n  pop\n  pop\n    /* \"Chainlink Bootcamp/Day4/TransferUSDCBasic.sol\":700:4472  contract TransferUSDCBasic {... */\n  mload(0x80)\n  mload(0xa0)\n  mload(0xc0)\n  codecopy(0x00, dataOffset(sub_0), dataSize(sub_0))\n  0x00\n  assignImmutable(\"0x02f6903e55725b8fb1e67e68fc4dfbf8e90ced5ec278dfd2021debfe4c69d139\")\n  0x00\n  assignImmutable(\"0x667e71f1383f6018017c7f9f00ba5758f756bb81173e5c0c2366813dad6f3e59\")\n  0x00\n  assignImmutable(\"0x0d39e801c12a1db7a049a11375544bfecda5660c1466262d86703950d5bcb07f\")\n  return(0x00, dataSize(sub_0))\nstop\n\nsub_0: assembly {\n        /* \"Chainlink Bootcamp/Day4/TransferUSDCBasic.sol\":700:4472  contract TransferUSDCBasic {... */\n      mstore(0x40, 0x80)\n      callvalue\n      dup1\n      iszero\n      tag_1\n      jumpi\n      0x00\n      dup1\n      revert\n    tag_1:\n      pop\n      jumpi(tag_2, lt(calldatasize, 0x04))\n      shr(0xe0, calldataload(0x00))\n      dup1\n      0x3aeac4e1\n      eq\n      tag_3\n      jumpi\n      dup1\n      0x6392a51f\n      eq\n      tag_4\n      jumpi\n      dup1\n      0x8da5cb5b\n      eq\n      tag_5\n      jumpi\n      dup1\n      0xed3bd5bc\n      eq\n      tag_6\n      jumpi\n      dup1\n      0xfe2c5d36\n      eq\n      tag_7\n      jumpi\n    tag_2:\n      0x00\n      dup1\n      revert\n        /* \"Chainlink Bootcamp/Day4/TransferUSDCBasic.sol\":4189:4470  function withdrawToken(... */\n    tag_3:\n      tag_8\n      0x04\n      dup1\n      calldatasize\n      sub\n      dup2\n      add\n      swap1\n      tag_9\n      swap2\n      swap1\n      tag_10\n      jump\t// in\n    tag_9:\n      tag_11\n      jump\t// in\n    tag_8:\n      stop\n        /* \"Chainlink Bootcamp/Day4/TransferUSDCBasic.sol\":3880:4100  function balancesOf(address account) public view returns (uint256 linkBalance, uint256 usdcBalance) {... */\n    tag_4:\n      tag_12\n      0x04\n      dup1\n      calldatasize\n      sub\n      dup2\n      add\n      swap1\n      tag_13\n      swap2\n      swap1\n      tag_14\n      jump\t// in\n    tag_13:\n      tag_15\n      jump\t// in\n    tag_12:\n      mload(0x40)\n      tag_16\n      swap3\n      swap2\n      swap1\n      tag_17\n      jump\t// in\n    tag_16:\n      mload(0x40)\n      dup1\n      swap2\n      sub\n      swap1\n      return\n        /* \"Chainlink Bootcamp/Day4/TransferUSDCBasic.sol\":948:968  address public owner */\n    tag_5:\n      tag_18\n      tag_19\n      jump\t// in\n    tag_18:\n      mload(0x40)\n      tag_20\n      swap2\n      swap1\n      tag_21\n      jump\t// in\n    tag_20:\n      mload(0x40)\n      dup1\n      swap2\n      sub\n      swap1\n      return\n        /* \"Chainlink Bootcamp/Day4/TransferUSDCBasic.sol\":3732:3874  function allowanceUsdc() public view returns (uint256 usdcAmount) {... */\n    tag_6:\n      tag_22\n      tag_23\n      jump\t// in\n    tag_22:\n      mload(0x40)\n      tag_24\n      swap2\n      swap1\n      tag_25\n      jump\t// in\n    tag_24:\n      mload(0x40)\n      dup1\n      swap2\n      sub\n      swap1\n      return\n        /* \"Chainlink Bootcamp/Day4/TransferUSDCBasic.sol\":2075:3726  function transferUsdcToSepolia(... */\n    tag_7:\n      tag_26\n      0x04\n      dup1\n      calldatasize\n      sub\n      dup2\n      add\n      swap1\n      tag_27\n      swap2\n      swap1\n      tag_28\n      jump\t// in\n    tag_27:\n      tag_29\n      jump\t// in\n    tag_26:\n      mload(0x40)\n      tag_30\n      swap2\n      swap1\n      tag_31\n      jump\t// in\n    tag_30:\n      mload(0x40)\n      dup1\n      swap2\n      sub\n      swap1\n      return\n        /* \"Chainlink Bootcamp/Day4/TransferUSDCBasic.sol\":4189:4470  function withdrawToken(... */\n    tag_11:\n        /* \"Chainlink Bootcamp/Day4/TransferUSDCBasic.sol\":4159:4164  owner */\n      0x00\n      dup1\n      sload\n      swap1\n      0x0100\n      exp\n      swap1\n      div\n      0xffffffffffffffffffffffffffffffffffffffff\n      and\n        /* \"Chainlink Bootcamp/Day4/TransferUSDCBasic.sol\":4145:4164  msg.sender == owner */\n      0xffffffffffffffffffffffffffffffffffffffff\n      and\n        /* \"Chainlink Bootcamp/Day4/TransferUSDCBasic.sol\":4145:4155  msg.sender */\n      caller\n        /* \"Chainlink Bootcamp/Day4/TransferUSDCBasic.sol\":4145:4164  msg.sender == owner */\n      0xffffffffffffffffffffffffffffffffffffffff\n      and\n      eq\n        /* \"Chainlink Bootcamp/Day4/TransferUSDCBasic.sol\":4137:4165  require(msg.sender == owner) */\n      tag_33\n      jumpi\n      0x00\n      dup1\n      revert\n    tag_33:\n        /* \"Chainlink Bootcamp/Day4/TransferUSDCBasic.sol\":4299:4313  uint256 amount */\n      0x00\n        /* \"Chainlink Bootcamp/Day4/TransferUSDCBasic.sol\":4323:4329  _token */\n      dup2\n        /* \"Chainlink Bootcamp/Day4/TransferUSDCBasic.sol\":4316:4340  IERC20(_token).balanceOf */\n      0xffffffffffffffffffffffffffffffffffffffff\n      and\n      0x70a08231\n        /* \"Chainlink Bootcamp/Day4/TransferUSDCBasic.sol\":4349:4353  this */\n      address\n        /* \"Chainlink Bootcamp/Day4/TransferUSDCBasic.sol\":4316:4355  IERC20(_token).balanceOf(address(this)) */\n      mload(0x40)\n      dup3\n      0xffffffff\n      and\n      0xe0\n      shl\n      dup2\n      mstore\n      0x04\n      add\n      tag_35\n      swap2\n      swap1\n      tag_21\n      jump\t// in\n    tag_35:\n      0x20\n      mload(0x40)\n      dup1\n      dup4\n      sub\n      dup2\n      dup7\n      gas\n      staticcall\n      iszero\n      dup1\n      iszero\n      tag_37\n      jumpi\n      returndatasize\n      0x00\n      dup1\n      returndatacopy\n      revert(0x00, returndatasize)\n    tag_37:\n      pop\n      pop\n      pop\n      pop\n      mload(0x40)\n      returndatasize\n      not(0x1f)\n      0x1f\n      dup3\n      add\n      and\n      dup3\n      add\n      dup1\n      0x40\n      mstore\n      pop\n      dup2\n      add\n      swap1\n      tag_38\n      swap2\n      swap1\n      tag_39\n      jump\t// in\n    tag_38:\n        /* \"Chainlink Bootcamp/Day4/TransferUSDCBasic.sol\":4299:4355  uint256 amount = IERC20(_token).balanceOf(address(this)) */\n      swap1\n      pop\n        /* \"Chainlink Bootcamp/Day4/TransferUSDCBasic.sol\":4379:4380  0 */\n      0x00\n        /* \"Chainlink Bootcamp/Day4/TransferUSDCBasic.sol\":4369:4375  amount */\n      dup2\n        /* \"Chainlink Bootcamp/Day4/TransferUSDCBasic.sol\":4369:4380  amount == 0 */\n      sub\n        /* \"Chainlink Bootcamp/Day4/TransferUSDCBasic.sol\":4365:4408  if (amount == 0) revert NothingToWithdraw() */\n      tag_40\n      jumpi\n        /* \"Chainlink Bootcamp/Day4/TransferUSDCBasic.sol\":4389:4408  NothingToWithdraw() */\n      mload(0x40)\n      0xd0d04f6000000000000000000000000000000000000000000000000000000000\n      dup2\n      mstore\n      0x04\n      add\n      mload(0x40)\n      dup1\n      swap2\n      sub\n      swap1\n      revert\n        /* \"Chainlink Bootcamp/Day4/TransferUSDCBasic.sol\":4365:4408  if (amount == 0) revert NothingToWithdraw() */\n    tag_40:\n        /* \"Chainlink Bootcamp/Day4/TransferUSDCBasic.sol\":4425:4431  _token */\n      dup2\n        /* \"Chainlink Bootcamp/Day4/TransferUSDCBasic.sol\":4418:4441  IERC20(_token).transfer */\n      0xffffffffffffffffffffffffffffffffffffffff\n      and\n      0xa9059cbb\n        /* \"Chainlink Bootcamp/Day4/TransferUSDCBasic.sol\":4442:4454  _beneficiary */\n      dup5\n        /* \"Chainlink Bootcamp/Day4/TransferUSDCBasic.sol\":4456:4462  amount */\n      dup4\n        /* \"Chainlink Bootcamp/Day4/TransferUSDCBasic.sol\":4418:4463  IERC20(_token).transfer(_beneficiary, amount) */\n      mload(0x40)\n      dup4\n      0xffffffff\n      and\n      0xe0\n      shl\n      dup2\n      mstore\n      0x04\n      add\n      tag_41\n      swap3\n      swap2\n      swap1\n      tag_42\n      jump\t// in\n    tag_41:\n      0x20\n      mload(0x40)\n      dup1\n      dup4\n      sub\n      dup2\n      0x00\n      dup8\n      gas\n      call\n      iszero\n      dup1\n      iszero\n      tag_44\n      jumpi\n      returndatasize\n      0x00\n      dup1\n      returndatacopy\n      revert(0x00, returndatasize)\n    tag_44:\n      pop\n      pop\n      pop\n      pop\n      mload(0x40)\n      returndatasize\n      not(0x1f)\n      0x1f\n      dup3\n      add\n      and\n      dup3\n      add\n      dup1\n      0x40\n      mstore\n      pop\n      dup2\n      add\n      swap1\n      tag_45\n      swap2\n      swap1\n      tag_46\n      jump\t// in\n    tag_45:\n      pop\n        /* \"Chainlink Bootcamp/Day4/TransferUSDCBasic.sol\":4289:4470  {... */\n      pop\n        /* \"Chainlink Bootcamp/Day4/TransferUSDCBasic.sol\":4189:4470  function withdrawToken(... */\n      pop\n      pop\n      jump\t// out\n        /* \"Chainlink Bootcamp/Day4/TransferUSDCBasic.sol\":3880:4100  function balancesOf(address account) public view returns (uint256 linkBalance, uint256 usdcBalance) {... */\n    tag_15:\n        /* \"Chainlink Bootcamp/Day4/TransferUSDCBasic.sol\":3938:3957  uint256 linkBalance */\n      0x00\n        /* \"Chainlink Bootcamp/Day4/TransferUSDCBasic.sol\":3959:3978  uint256 usdcBalance */\n      dup1\n        /* \"Chainlink Bootcamp/Day4/TransferUSDCBasic.sol\":4005:4014  linkToken */\n      immutable(\"0x667e71f1383f6018017c7f9f00ba5758f756bb81173e5c0c2366813dad6f3e59\")\n        /* \"Chainlink Bootcamp/Day4/TransferUSDCBasic.sol\":4005:4024  linkToken.balanceOf */\n      0xffffffffffffffffffffffffffffffffffffffff\n      and\n      0x70a08231\n        /* \"Chainlink Bootcamp/Day4/TransferUSDCBasic.sol\":4025:4032  account */\n      dup5\n        /* \"Chainlink Bootcamp/Day4/TransferUSDCBasic.sol\":4005:4033  linkToken.balanceOf(account) */\n      mload(0x40)\n      dup3\n      0xffffffff\n      and\n      0xe0\n      shl\n      dup2\n      mstore\n      0x04\n      add\n      tag_48\n      swap2\n      swap1\n      tag_21\n      jump\t// in\n    tag_48:\n      0x20\n      mload(0x40)\n      dup1\n      dup4\n      sub\n      dup2\n      dup7\n      gas\n      staticcall\n      iszero\n      dup1\n      iszero\n      tag_50\n      jumpi\n      returndatasize\n      0x00\n      dup1\n      returndatacopy\n      revert(0x00, returndatasize)\n    tag_50:\n      pop\n      pop\n      pop\n      pop\n      mload(0x40)\n      returndatasize\n      not(0x1f)\n      0x1f\n      dup3\n      add\n      and\n      dup3\n      add\n      dup1\n      0x40\n      mstore\n      pop\n      dup2\n      add\n      swap1\n      tag_51\n      swap2\n      swap1\n      tag_39\n      jump\t// in\n    tag_51:\n        /* \"Chainlink Bootcamp/Day4/TransferUSDCBasic.sol\":3990:4033  linkBalance =  linkToken.balanceOf(account) */\n      swap2\n      pop\n        /* \"Chainlink Bootcamp/Day4/TransferUSDCBasic.sol\":4064:4073  usdcToken */\n      immutable(\"0x02f6903e55725b8fb1e67e68fc4dfbf8e90ced5ec278dfd2021debfe4c69d139\")\n        /* \"Chainlink Bootcamp/Day4/TransferUSDCBasic.sol\":4057:4084  IERC20(usdcToken).balanceOf */\n      0xffffffffffffffffffffffffffffffffffffffff\n      and\n      0x70a08231\n        /* \"Chainlink Bootcamp/Day4/TransferUSDCBasic.sol\":4085:4092  account */\n      dup5\n        /* \"Chainlink Bootcamp/Day4/TransferUSDCBasic.sol\":4057:4093  IERC20(usdcToken).balanceOf(account) */\n      mload(0x40)\n      dup3\n      0xffffffff\n      and\n      0xe0\n      shl\n      dup2\n      mstore\n      0x04\n      add\n      tag_52\n      swap2\n      swap1\n      tag_21\n      jump\t// in\n    tag_52:\n      0x20\n      mload(0x40)\n      dup1\n      dup4\n      sub\n      dup2\n      dup7\n      gas\n      staticcall\n      iszero\n      dup1\n      iszero\n      tag_54\n      jumpi\n      returndatasize\n      0x00\n      dup1\n      returndatacopy\n      revert(0x00, returndatasize)\n    tag_54:\n      pop\n      pop\n      pop\n      pop\n      mload(0x40)\n      returndatasize\n      not(0x1f)\n      0x1f\n      dup3\n      add\n      and\n      dup3\n      add\n      dup1\n      0x40\n      mstore\n      pop\n      dup2\n      add\n      swap1\n      tag_55\n      swap2\n      swap1\n      tag_39\n      jump\t// in\n    tag_55:\n        /* \"Chainlink Bootcamp/Day4/TransferUSDCBasic.sol\":4043:4093  usdcBalance = IERC20(usdcToken).balanceOf(account) */\n      swap1\n      pop\n        /* \"Chainlink Bootcamp/Day4/TransferUSDCBasic.sol\":3880:4100  function balancesOf(address account) public view returns (uint256 linkBalance, uint256 usdcBalance) {... */\n      swap2\n      pop\n      swap2\n      jump\t// out\n        /* \"Chainlink Bootcamp/Day4/TransferUSDCBasic.sol\":948:968  address public owner */\n    tag_19:\n      0x00\n      dup1\n      sload\n      swap1\n      0x0100\n      exp\n      swap1\n      div\n      0xffffffffffffffffffffffffffffffffffffffff\n      and\n      dup2\n      jump\t// out\n        /* \"Chainlink Bootcamp/Day4/TransferUSDCBasic.sol\":3732:3874  function allowanceUsdc() public view returns (uint256 usdcAmount) {... */\n    tag_23:\n        /* \"Chainlink Bootcamp/Day4/TransferUSDCBasic.sol\":3778:3796  uint256 usdcAmount */\n      0x00\n        /* \"Chainlink Bootcamp/Day4/TransferUSDCBasic.sol\":3821:3830  usdcToken */\n      immutable(\"0x02f6903e55725b8fb1e67e68fc4dfbf8e90ced5ec278dfd2021debfe4c69d139\")\n        /* \"Chainlink Bootcamp/Day4/TransferUSDCBasic.sol\":3821:3840  usdcToken.allowance */\n      0xffffffffffffffffffffffffffffffffffffffff\n      and\n      0xdd62ed3e\n        /* \"Chainlink Bootcamp/Day4/TransferUSDCBasic.sol\":3841:3851  msg.sender */\n      caller\n        /* \"Chainlink Bootcamp/Day4/TransferUSDCBasic.sol\":3861:3865  this */\n      address\n        /* \"Chainlink Bootcamp/Day4/TransferUSDCBasic.sol\":3821:3867  usdcToken.allowance(msg.sender, address(this)) */\n      mload(0x40)\n      dup4\n      0xffffffff\n      and\n      0xe0\n      shl\n      dup2\n      mstore\n      0x04\n      add\n      tag_57\n      swap3\n      swap2\n      swap1\n      tag_58\n      jump\t// in\n    tag_57:\n      0x20\n      mload(0x40)\n      dup1\n      dup4\n      sub\n      dup2\n      dup7\n      gas\n      staticcall\n      iszero\n      dup1\n      iszero\n      tag_60\n      jumpi\n      returndatasize\n      0x00\n      dup1\n      returndatacopy\n      revert(0x00, returndatasize)\n    tag_60:\n      pop\n      pop\n      pop\n      pop\n      mload(0x40)\n      returndatasize\n      not(0x1f)\n      0x1f\n      dup3\n      add\n      and\n      dup3\n      add\n      dup1\n      0x40\n      mstore\n      pop\n      dup2\n      add\n      swap1\n      tag_61\n      swap2\n      swap1\n      tag_39\n      jump\t// in\n    tag_61:\n        /* \"Chainlink Bootcamp/Day4/TransferUSDCBasic.sol\":3808:3867  usdcAmount = usdcToken.allowance(msg.sender, address(this)) */\n      swap1\n      pop\n        /* \"Chainlink Bootcamp/Day4/TransferUSDCBasic.sol\":3732:3874  function allowanceUsdc() public view returns (uint256 usdcAmount) {... */\n      swap1\n      jump\t// out\n        /* \"Chainlink Bootcamp/Day4/TransferUSDCBasic.sol\":2075:3726  function transferUsdcToSepolia(... */\n    tag_29:\n        /* \"Chainlink Bootcamp/Day4/TransferUSDCBasic.sol\":2198:2215  bytes32 messageId */\n      0x00\n        /* \"Chainlink Bootcamp/Day4/TransferUSDCBasic.sol\":2231:2286  Client.EVMTokenAmount[]... */\n      dup1\n        /* \"Chainlink Bootcamp/Day4/TransferUSDCBasic.sol\":2317:2318  1 */\n      0x01\n        /* \"Chainlink Bootcamp/Day4/TransferUSDCBasic.sol\":2289:2319  new Client.EVMTokenAmount[](1) */\n      0xffffffffffffffff\n      dup2\n      gt\n      iszero\n      tag_63\n      jumpi\n      tag_64\n      tag_65\n      jump\t// in\n    tag_64:\n    tag_63:\n      mload(0x40)\n      swap1\n      dup1\n      dup3\n      mstore\n      dup1\n      0x20\n      mul\n      0x20\n      add\n      dup3\n      add\n      0x40\n      mstore\n      dup1\n      iszero\n      tag_66\n      jumpi\n      dup2\n      0x20\n      add\n    tag_67:\n      tag_68\n      tag_69\n      jump\t// in\n    tag_68:\n      dup2\n      mstore\n      0x20\n      add\n      swap1\n      0x01\n      swap1\n      sub\n      swap1\n      dup2\n      tag_67\n      jumpi\n      swap1\n      pop\n    tag_66:\n      pop\n        /* \"Chainlink Bootcamp/Day4/TransferUSDCBasic.sol\":2231:2319  Client.EVMTokenAmount[]... */\n      swap1\n      pop\n        /* \"Chainlink Bootcamp/Day4/TransferUSDCBasic.sol\":2329:2369  Client.EVMTokenAmount memory tokenAmount */\n      0x00\n        /* \"Chainlink Bootcamp/Day4/TransferUSDCBasic.sol\":2372:2473  Client.EVMTokenAmount({... */\n      mload(0x40)\n      dup1\n      0x40\n      add\n      0x40\n      mstore\n      dup1\n        /* \"Chainlink Bootcamp/Day4/TransferUSDCBasic.sol\":2423:2432  usdcToken */\n      immutable(\"0x02f6903e55725b8fb1e67e68fc4dfbf8e90ced5ec278dfd2021debfe4c69d139\")\n        /* \"Chainlink Bootcamp/Day4/TransferUSDCBasic.sol\":2372:2473  Client.EVMTokenAmount({... */\n      0xffffffffffffffffffffffffffffffffffffffff\n      and\n      dup2\n      mstore\n      0x20\n      add\n        /* \"Chainlink Bootcamp/Day4/TransferUSDCBasic.sol\":2455:2462  _amount */\n      dup6\n        /* \"Chainlink Bootcamp/Day4/TransferUSDCBasic.sol\":2372:2473  Client.EVMTokenAmount({... */\n      dup2\n      mstore\n      pop\n        /* \"Chainlink Bootcamp/Day4/TransferUSDCBasic.sol\":2329:2473  Client.EVMTokenAmount memory tokenAmount = Client.EVMTokenAmount({... */\n      swap1\n      pop\n        /* \"Chainlink Bootcamp/Day4/TransferUSDCBasic.sol\":2501:2512  tokenAmount */\n      dup1\n        /* \"Chainlink Bootcamp/Day4/TransferUSDCBasic.sol\":2483:2495  tokenAmounts */\n      dup3\n        /* \"Chainlink Bootcamp/Day4/TransferUSDCBasic.sol\":2496:2497  0 */\n      0x00\n        /* \"Chainlink Bootcamp/Day4/TransferUSDCBasic.sol\":2483:2498  tokenAmounts[0] */\n      dup2\n      mload\n      dup2\n      lt\n      tag_70\n      jumpi\n      tag_71\n      tag_72\n      jump\t// in\n    tag_71:\n    tag_70:\n      0x20\n      mul\n      0x20\n      add\n      add\n        /* \"Chainlink Bootcamp/Day4/TransferUSDCBasic.sol\":2483:2512  tokenAmounts[0] = tokenAmount */\n      dup2\n      swap1\n      mstore\n      pop\n        /* \"Chainlink Bootcamp/Day4/TransferUSDCBasic.sol\":2523:2559  Client.EVM2AnyMessage memory message */\n      0x00\n        /* \"Chainlink Bootcamp/Day4/TransferUSDCBasic.sol\":2562:2856  Client.EVM2AnyMessage({... */\n      mload(0x40)\n      dup1\n      0xa0\n      add\n      0x40\n      mstore\n      dup1\n        /* \"Chainlink Bootcamp/Day4/TransferUSDCBasic.sol\":2619:2628  _receiver */\n      dup8\n        /* \"Chainlink Bootcamp/Day4/TransferUSDCBasic.sol\":2608:2629  abi.encode(_receiver) */\n      add(0x20, mload(0x40))\n      tag_73\n      swap2\n      swap1\n      tag_21\n      jump\t// in\n    tag_73:\n      mload(0x40)\n      0x20\n      dup2\n      dup4\n      sub\n      sub\n      dup2\n      mstore\n      swap1\n      0x40\n      mstore\n        /* \"Chainlink Bootcamp/Day4/TransferUSDCBasic.sol\":2562:2856  Client.EVM2AnyMessage({... */\n      dup2\n      mstore\n      0x20\n      add\n      mload(0x40)\n      dup1\n      0x20\n      add\n      0x40\n      mstore\n      dup1\n      0x00\n      dup2\n      mstore\n      pop\n      dup2\n      mstore\n      0x20\n      add\n        /* \"Chainlink Bootcamp/Day4/TransferUSDCBasic.sol\":2679:2691  tokenAmounts */\n      dup5\n        /* \"Chainlink Bootcamp/Day4/TransferUSDCBasic.sol\":2562:2856  Client.EVM2AnyMessage({... */\n      dup2\n      mstore\n      0x20\n      add\n        /* \"Chainlink Bootcamp/Day4/TransferUSDCBasic.sol\":2835:2844  linkToken */\n      immutable(\"0x667e71f1383f6018017c7f9f00ba5758f756bb81173e5c0c2366813dad6f3e59\")\n        /* \"Chainlink Bootcamp/Day4/TransferUSDCBasic.sol\":2562:2856  Client.EVM2AnyMessage({... */\n      0xffffffffffffffffffffffffffffffffffffffff\n      and\n      dup2\n      mstore\n      0x20\n      add\n        /* \"Chainlink Bootcamp/Day4/TransferUSDCBasic.sol\":2716:2803  Client._argsToBytes(... */\n      tag_74\n        /* \"Chainlink Bootcamp/Day4/TransferUSDCBasic.sol\":2753:2789  Client.EVMExtraArgsV1({gasLimit: 0}) */\n      mload(0x40)\n      dup1\n      0x20\n      add\n      0x40\n      mstore\n      dup1\n        /* \"Chainlink Bootcamp/Day4/TransferUSDCBasic.sol\":2786:2787  0 */\n      0x00\n        /* \"Chainlink Bootcamp/Day4/TransferUSDCBasic.sol\":2753:2789  Client.EVMExtraArgsV1({gasLimit: 0}) */\n      dup2\n      mstore\n      pop\n        /* \"Chainlink Bootcamp/Day4/TransferUSDCBasic.sol\":2716:2735  Client._argsToBytes */\n      tag_75\n        /* \"Chainlink Bootcamp/Day4/TransferUSDCBasic.sol\":2716:2803  Client._argsToBytes(... */\n      jump\t// in\n    tag_74:\n        /* \"Chainlink Bootcamp/Day4/TransferUSDCBasic.sol\":2562:2856  Client.EVM2AnyMessage({... */\n      dup2\n      mstore\n      pop\n        /* \"Chainlink Bootcamp/Day4/TransferUSDCBasic.sol\":2523:2856  Client.EVM2AnyMessage memory message = Client.EVM2AnyMessage({... */\n      swap1\n      pop\n        /* \"Chainlink Bootcamp/Day4/TransferUSDCBasic.sol\":2867:2882  uint256 ccipFee */\n      0x00\n        /* \"Chainlink Bootcamp/Day4/TransferUSDCBasic.sol\":2885:2895  ccipRouter */\n      immutable(\"0x0d39e801c12a1db7a049a11375544bfecda5660c1466262d86703950d5bcb07f\")\n        /* \"Chainlink Bootcamp/Day4/TransferUSDCBasic.sol\":2885:2902  ccipRouter.getFee */\n      0xffffffffffffffffffffffffffffffffffffffff\n      and\n      0x20487ded\n        /* \"Chainlink Bootcamp/Day4/TransferUSDCBasic.sol\":2916:2940  destinationChainSelector */\n      0x03\n      0x14\n      swap1\n      sload\n      swap1\n      0x0100\n      exp\n      swap1\n      div\n      0xffffffffffffffff\n      and\n        /* \"Chainlink Bootcamp/Day4/TransferUSDCBasic.sol\":2954:2961  message */\n      dup5\n        /* \"Chainlink Bootcamp/Day4/TransferUSDCBasic.sol\":2885:2971  ccipRouter.getFee(... */\n      mload(0x40)\n      dup4\n      0xffffffff\n      and\n      0xe0\n      shl\n      dup2\n      mstore\n      0x04\n      add\n      tag_76\n      swap3\n      swap2\n      swap1\n      tag_77\n      jump\t// in\n    tag_76:\n      0x20\n      mload(0x40)\n      dup1\n      dup4\n      sub\n      dup2\n      dup7\n      gas\n      staticcall\n      iszero\n      dup1\n      iszero\n      tag_79\n      jumpi\n      returndatasize\n      0x00\n      dup1\n      returndatacopy\n      revert(0x00, returndatasize)\n    tag_79:\n      pop\n      pop\n      pop\n      pop\n      mload(0x40)\n      returndatasize\n      not(0x1f)\n      0x1f\n      dup3\n      add\n      and\n      dup3\n      add\n      dup1\n      0x40\n      mstore\n      pop\n      dup2\n      add\n      swap1\n      tag_80\n      swap2\n      swap1\n      tag_39\n      jump\t// in\n    tag_80:\n        /* \"Chainlink Bootcamp/Day4/TransferUSDCBasic.sol\":2867:2971  uint256 ccipFee = ccipRouter.getFee(... */\n      swap1\n      pop\n        /* \"Chainlink Bootcamp/Day4/TransferUSDCBasic.sol\":2996:3005  linkToken */\n      immutable(\"0x667e71f1383f6018017c7f9f00ba5758f756bb81173e5c0c2366813dad6f3e59\")\n        /* \"Chainlink Bootcamp/Day4/TransferUSDCBasic.sol\":2996:3015  linkToken.balanceOf */\n      0xffffffffffffffffffffffffffffffffffffffff\n      and\n      0x70a08231\n        /* \"Chainlink Bootcamp/Day4/TransferUSDCBasic.sol\":3024:3028  this */\n      address\n        /* \"Chainlink Bootcamp/Day4/TransferUSDCBasic.sol\":2996:3030  linkToken.balanceOf(address(this)) */\n      mload(0x40)\n      dup3\n      0xffffffff\n      and\n      0xe0\n      shl\n      dup2\n      mstore\n      0x04\n      add\n      tag_81\n      swap2\n      swap1\n      tag_21\n      jump\t// in\n    tag_81:\n      0x20\n      mload(0x40)\n      dup1\n      dup4\n      sub\n      dup2\n      dup7\n      gas\n      staticcall\n      iszero\n      dup1\n      iszero\n      tag_83\n      jumpi\n      returndatasize\n      0x00\n      dup1\n      returndatacopy\n      revert(0x00, returndatasize)\n    tag_83:\n      pop\n      pop\n      pop\n      pop\n      mload(0x40)\n      returndatasize\n      not(0x1f)\n      0x1f\n      dup3\n      add\n      and\n      dup3\n      add\n      dup1\n      0x40\n      mstore\n      pop\n      dup2\n      add\n      swap1\n      tag_84\n      swap2\n      swap1\n      tag_39\n      jump\t// in\n    tag_84:\n        /* \"Chainlink Bootcamp/Day4/TransferUSDCBasic.sol\":2986:2993  ccipFee */\n      dup2\n        /* \"Chainlink Bootcamp/Day4/TransferUSDCBasic.sol\":2986:3030  ccipFee > linkToken.balanceOf(address(this)) */\n      gt\n        /* \"Chainlink Bootcamp/Day4/TransferUSDCBasic.sol\":2982:3119  if (ccipFee > linkToken.balanceOf(address(this)))... */\n      iszero\n      tag_85\n      jumpi\n        /* \"Chainlink Bootcamp/Day4/TransferUSDCBasic.sol\":3075:3084  linkToken */\n      immutable(\"0x667e71f1383f6018017c7f9f00ba5758f756bb81173e5c0c2366813dad6f3e59\")\n        /* \"Chainlink Bootcamp/Day4/TransferUSDCBasic.sol\":3075:3094  linkToken.balanceOf */\n      0xffffffffffffffffffffffffffffffffffffffff\n      and\n      0x70a08231\n        /* \"Chainlink Bootcamp/Day4/TransferUSDCBasic.sol\":3103:3107  this */\n      address\n        /* \"Chainlink Bootcamp/Day4/TransferUSDCBasic.sol\":3075:3109  linkToken.balanceOf(address(this)) */\n      mload(0x40)\n      dup3\n      0xffffffff\n      and\n      0xe0\n      shl\n      dup2\n      mstore\n      0x04\n      add\n      tag_86\n      swap2\n      swap1\n      tag_21\n      jump\t// in\n    tag_86:\n      0x20\n      mload(0x40)\n      dup1\n      dup4\n      sub\n      dup2\n      dup7\n      gas\n      staticcall\n      iszero\n      dup1\n      iszero\n      tag_88\n      jumpi\n      returndatasize\n      0x00\n      dup1\n      returndatacopy\n      revert(0x00, returndatasize)\n    tag_88:\n      pop\n      pop\n      pop\n      pop\n      mload(0x40)\n      returndatasize\n      not(0x1f)\n      0x1f\n      dup3\n      add\n      and\n      dup3\n      add\n      dup1\n      0x40\n      mstore\n      pop\n      dup2\n      add\n      swap1\n      tag_89\n      swap2\n      swap1\n      tag_39\n      jump\t// in\n    tag_89:\n        /* \"Chainlink Bootcamp/Day4/TransferUSDCBasic.sol\":3111:3118  ccipFee */\n      dup2\n        /* \"Chainlink Bootcamp/Day4/TransferUSDCBasic.sol\":3051:3119  NotEnoughBalanceForFees(linkToken.balanceOf(address(this)), ccipFee) */\n      mload(0x40)\n      0x28fdcaa100000000000000000000000000000000000000000000000000000000\n      dup2\n      mstore\n      0x04\n      add\n      tag_90\n      swap3\n      swap2\n      swap1\n      tag_17\n      jump\t// in\n    tag_90:\n      mload(0x40)\n      dup1\n      swap2\n      sub\n      swap1\n      revert\n        /* \"Chainlink Bootcamp/Day4/TransferUSDCBasic.sol\":2982:3119  if (ccipFee > linkToken.balanceOf(address(this)))... */\n    tag_85:\n        /* \"Chainlink Bootcamp/Day4/TransferUSDCBasic.sol\":3129:3138  linkToken */\n      immutable(\"0x667e71f1383f6018017c7f9f00ba5758f756bb81173e5c0c2366813dad6f3e59\")\n        /* \"Chainlink Bootcamp/Day4/TransferUSDCBasic.sol\":3129:3146  linkToken.approve */\n      0xffffffffffffffffffffffffffffffffffffffff\n      and\n      0x095ea7b3\n        /* \"Chainlink Bootcamp/Day4/TransferUSDCBasic.sol\":3155:3165  ccipRouter */\n      immutable(\"0x0d39e801c12a1db7a049a11375544bfecda5660c1466262d86703950d5bcb07f\")\n        /* \"Chainlink Bootcamp/Day4/TransferUSDCBasic.sol\":3168:3175  ccipFee */\n      dup4\n        /* \"Chainlink Bootcamp/Day4/TransferUSDCBasic.sol\":3129:3176  linkToken.approve(address(ccipRouter), ccipFee) */\n      mload(0x40)\n      dup4\n      0xffffffff\n      and\n      0xe0\n      shl\n      dup2\n      mstore\n      0x04\n      add\n      tag_91\n      swap3\n      swap2\n      swap1\n      tag_42\n      jump\t// in\n    tag_91:\n      0x20\n      mload(0x40)\n      dup1\n      dup4\n      sub\n      dup2\n      0x00\n      dup8\n      gas\n      call\n      iszero\n      dup1\n      iszero\n      tag_93\n      jumpi\n      returndatasize\n      0x00\n      dup1\n      returndatacopy\n      revert(0x00, returndatasize)\n    tag_93:\n      pop\n      pop\n      pop\n      pop\n      mload(0x40)\n      returndatasize\n      not(0x1f)\n      0x1f\n      dup3\n      add\n      and\n      dup3\n      add\n      dup1\n      0x40\n      mstore\n      pop\n      dup2\n      add\n      swap1\n      tag_94\n      swap2\n      swap1\n      tag_46\n      jump\t// in\n    tag_94:\n      pop\n        /* \"Chainlink Bootcamp/Day4/TransferUSDCBasic.sol\":3201:3210  usdcToken */\n      immutable(\"0x02f6903e55725b8fb1e67e68fc4dfbf8e90ced5ec278dfd2021debfe4c69d139\")\n        /* \"Chainlink Bootcamp/Day4/TransferUSDCBasic.sol\":3201:3220  usdcToken.balanceOf */\n      0xffffffffffffffffffffffffffffffffffffffff\n      and\n      0x70a08231\n        /* \"Chainlink Bootcamp/Day4/TransferUSDCBasic.sol\":3221:3231  msg.sender */\n      caller\n        /* \"Chainlink Bootcamp/Day4/TransferUSDCBasic.sol\":3201:3232  usdcToken.balanceOf(msg.sender) */\n      mload(0x40)\n      dup3\n      0xffffffff\n      and\n      0xe0\n      shl\n      dup2\n      mstore\n      0x04\n      add\n      tag_95\n      swap2\n      swap1\n      tag_21\n      jump\t// in\n    tag_95:\n      0x20\n      mload(0x40)\n      dup1\n      dup4\n      sub\n      dup2\n      dup7\n      gas\n      staticcall\n      iszero\n      dup1\n      iszero\n      tag_97\n      jumpi\n      returndatasize\n      0x00\n      dup1\n      returndatacopy\n      revert(0x00, returndatasize)\n    tag_97:\n      pop\n      pop\n      pop\n      pop\n      mload(0x40)\n      returndatasize\n      not(0x1f)\n      0x1f\n      dup3\n      add\n      and\n      dup3\n      add\n      dup1\n      0x40\n      mstore\n      pop\n      dup2\n      add\n      swap1\n      tag_98\n      swap2\n      swap1\n      tag_39\n      jump\t// in\n    tag_98:\n        /* \"Chainlink Bootcamp/Day4/TransferUSDCBasic.sol\":3191:3198  _amount */\n      dup7\n        /* \"Chainlink Bootcamp/Day4/TransferUSDCBasic.sol\":3191:3232  _amount > usdcToken.balanceOf(msg.sender) */\n      gt\n        /* \"Chainlink Bootcamp/Day4/TransferUSDCBasic.sol\":3187:3317  if (_amount > usdcToken.balanceOf(msg.sender))... */\n      iszero\n      tag_99\n      jumpi\n        /* \"Chainlink Bootcamp/Day4/TransferUSDCBasic.sol\":3285:3294  usdcToken */\n      immutable(\"0x02f6903e55725b8fb1e67e68fc4dfbf8e90ced5ec278dfd2021debfe4c69d139\")\n        /* \"Chainlink Bootcamp/Day4/TransferUSDCBasic.sol\":3285:3304  usdcToken.balanceOf */\n      0xffffffffffffffffffffffffffffffffffffffff\n      and\n      0x70a08231\n        /* \"Chainlink Bootcamp/Day4/TransferUSDCBasic.sol\":3305:3315  msg.sender */\n      caller\n        /* \"Chainlink Bootcamp/Day4/TransferUSDCBasic.sol\":3285:3316  usdcToken.balanceOf(msg.sender) */\n      mload(0x40)\n      dup3\n      0xffffffff\n      and\n      0xe0\n      shl\n      dup2\n      mstore\n      0x04\n      add\n      tag_100\n      swap2\n      swap1\n      tag_21\n      jump\t// in\n    tag_100:\n      0x20\n      mload(0x40)\n      dup1\n      dup4\n      sub\n      dup2\n      dup7\n      gas\n      staticcall\n      iszero\n      dup1\n      iszero\n      tag_102\n      jumpi\n      returndatasize\n      0x00\n      dup1\n      returndatacopy\n      revert(0x00, returndatasize)\n    tag_102:\n      pop\n      pop\n      pop\n      pop\n      mload(0x40)\n      returndatasize\n      not(0x1f)\n      0x1f\n      dup3\n      add\n      and\n      dup3\n      add\n      dup1\n      0x40\n      mstore\n      pop\n      dup2\n      add\n      swap1\n      tag_103\n      swap2\n      swap1\n      tag_39\n      jump\t// in\n    tag_103:\n        /* \"Chainlink Bootcamp/Day4/TransferUSDCBasic.sol\":3253:3317  NotEnoughBalanceUsdcForTransfer(usdcToken.balanceOf(msg.sender)) */\n      mload(0x40)\n      0x6212cf3b00000000000000000000000000000000000000000000000000000000\n      dup2\n      mstore\n      0x04\n      add\n      tag_104\n      swap2\n      swap1\n      tag_25\n      jump\t// in\n    tag_104:\n      mload(0x40)\n      dup1\n      swap2\n      sub\n      swap1\n      revert\n        /* \"Chainlink Bootcamp/Day4/TransferUSDCBasic.sol\":3187:3317  if (_amount > usdcToken.balanceOf(msg.sender))... */\n    tag_99:\n        /* \"Chainlink Bootcamp/Day4/TransferUSDCBasic.sol\":3327:3389  usdcToken.safeTransferFrom(msg.sender, address(this), _amount) */\n      tag_105\n        /* \"Chainlink Bootcamp/Day4/TransferUSDCBasic.sol\":3354:3364  msg.sender */\n      caller\n        /* \"Chainlink Bootcamp/Day4/TransferUSDCBasic.sol\":3374:3378  this */\n      address\n        /* \"Chainlink Bootcamp/Day4/TransferUSDCBasic.sol\":3381:3388  _amount */\n      dup9\n        /* \"Chainlink Bootcamp/Day4/TransferUSDCBasic.sol\":3327:3336  usdcToken */\n      immutable(\"0x02f6903e55725b8fb1e67e68fc4dfbf8e90ced5ec278dfd2021debfe4c69d139\")\n        /* \"Chainlink Bootcamp/Day4/TransferUSDCBasic.sol\":3327:3353  usdcToken.safeTransferFrom */\n      0xffffffffffffffffffffffffffffffffffffffff\n      and\n      tag_106\n      swap1\n        /* \"Chainlink Bootcamp/Day4/TransferUSDCBasic.sol\":3327:3389  usdcToken.safeTransferFrom(msg.sender, address(this), _amount) */\n      swap4\n      swap3\n      swap2\n      swap1\n      0xffffffff\n      and\n      jump\t// in\n    tag_105:\n        /* \"Chainlink Bootcamp/Day4/TransferUSDCBasic.sol\":3399:3408  usdcToken */\n      immutable(\"0x02f6903e55725b8fb1e67e68fc4dfbf8e90ced5ec278dfd2021debfe4c69d139\")\n        /* \"Chainlink Bootcamp/Day4/TransferUSDCBasic.sol\":3399:3416  usdcToken.approve */\n      0xffffffffffffffffffffffffffffffffffffffff\n      and\n      0x095ea7b3\n        /* \"Chainlink Bootcamp/Day4/TransferUSDCBasic.sol\":3425:3435  ccipRouter */\n      immutable(\"0x0d39e801c12a1db7a049a11375544bfecda5660c1466262d86703950d5bcb07f\")\n        /* \"Chainlink Bootcamp/Day4/TransferUSDCBasic.sol\":3438:3445  _amount */\n      dup9\n        /* \"Chainlink Bootcamp/Day4/TransferUSDCBasic.sol\":3399:3446  usdcToken.approve(address(ccipRouter), _amount) */\n      mload(0x40)\n      dup4\n      0xffffffff\n      and\n      0xe0\n      shl\n      dup2\n      mstore\n      0x04\n      add\n      tag_107\n      swap3\n      swap2\n      swap1\n      tag_42\n      jump\t// in\n    tag_107:\n      0x20\n      mload(0x40)\n      dup1\n      dup4\n      sub\n      dup2\n      0x00\n      dup8\n      gas\n      call\n      iszero\n      dup1\n      iszero\n      tag_109\n      jumpi\n      returndatasize\n      0x00\n      dup1\n      returndatacopy\n      revert(0x00, returndatasize)\n    tag_109:\n      pop\n      pop\n      pop\n      pop\n      mload(0x40)\n      returndatasize\n      not(0x1f)\n      0x1f\n      dup3\n      add\n      and\n      dup3\n      add\n      dup1\n      0x40\n      mstore\n      pop\n      dup2\n      add\n      swap1\n      tag_110\n      swap2\n      swap1\n      tag_46\n      jump\t// in\n    tag_110:\n      pop\n        /* \"Chainlink Bootcamp/Day4/TransferUSDCBasic.sol\":3498:3508  ccipRouter */\n      immutable(\"0x0d39e801c12a1db7a049a11375544bfecda5660c1466262d86703950d5bcb07f\")\n        /* \"Chainlink Bootcamp/Day4/TransferUSDCBasic.sol\":3498:3517  ccipRouter.ccipSend */\n      0xffffffffffffffffffffffffffffffffffffffff\n      and\n      0x96f4e9f9\n        /* \"Chainlink Bootcamp/Day4/TransferUSDCBasic.sol\":3518:3542  destinationChainSelector */\n      0x03\n      0x14\n      swap1\n      sload\n      swap1\n      0x0100\n      exp\n      swap1\n      div\n      0xffffffffffffffff\n      and\n        /* \"Chainlink Bootcamp/Day4/TransferUSDCBasic.sol\":3544:3551  message */\n      dup5\n        /* \"Chainlink Bootcamp/Day4/TransferUSDCBasic.sol\":3498:3552  ccipRouter.ccipSend(destinationChainSelector, message) */\n      mload(0x40)\n      dup4\n      0xffffffff\n      and\n      0xe0\n      shl\n      dup2\n      mstore\n      0x04\n      add\n      tag_111\n      swap3\n      swap2\n      swap1\n      tag_77\n      jump\t// in\n    tag_111:\n      0x20\n      mload(0x40)\n      dup1\n      dup4\n      sub\n      dup2\n      0x00\n      dup8\n      gas\n      call\n      iszero\n      dup1\n      iszero\n      tag_113\n      jumpi\n      returndatasize\n      0x00\n      dup1\n      returndatacopy\n      revert(0x00, returndatasize)\n    tag_113:\n      pop\n      pop\n      pop\n      pop\n      mload(0x40)\n      returndatasize\n      not(0x1f)\n      0x1f\n      dup3\n      add\n      and\n      dup3\n      add\n      dup1\n      0x40\n      mstore\n      pop\n      dup2\n      add\n      swap1\n      tag_114\n      swap2\n      swap1\n      tag_115\n      jump\t// in\n    tag_114:\n        /* \"Chainlink Bootcamp/Day4/TransferUSDCBasic.sol\":3486:3552  messageId = ccipRouter.ccipSend(destinationChainSelector, message) */\n      swap5\n      pop\n        /* \"Chainlink Bootcamp/Day4/TransferUSDCBasic.sol\":3568:3719  UsdcTransferred(... */\n      0xb55a3d3f1ccd1c10f00aff03ad884028d98fa1d478fae03acecbf884ce8e8fbc\n        /* \"Chainlink Bootcamp/Day4/TransferUSDCBasic.sol\":3597:3606  messageId */\n      dup6\n        /* \"Chainlink Bootcamp/Day4/TransferUSDCBasic.sol\":3620:3644  destinationChainSelector */\n      0x03\n      0x14\n      swap1\n      sload\n      swap1\n      0x0100\n      exp\n      swap1\n      div\n      0xffffffffffffffff\n      and\n        /* \"Chainlink Bootcamp/Day4/TransferUSDCBasic.sol\":3658:3667  _receiver */\n      dup10\n        /* \"Chainlink Bootcamp/Day4/TransferUSDCBasic.sol\":3681:3688  _amount */\n      dup10\n        /* \"Chainlink Bootcamp/Day4/TransferUSDCBasic.sol\":3702:3709  ccipFee */\n      dup6\n        /* \"Chainlink Bootcamp/Day4/TransferUSDCBasic.sol\":3568:3719  UsdcTransferred(... */\n      mload(0x40)\n      tag_116\n      swap6\n      swap5\n      swap4\n      swap3\n      swap2\n      swap1\n      tag_117\n      jump\t// in\n    tag_116:\n      mload(0x40)\n      dup1\n      swap2\n      sub\n      swap1\n      log1\n        /* \"Chainlink Bootcamp/Day4/TransferUSDCBasic.sol\":2221:3726  {... */\n      pop\n      pop\n      pop\n      pop\n        /* \"Chainlink Bootcamp/Day4/TransferUSDCBasic.sol\":2075:3726  function transferUsdcToSepolia(... */\n      swap3\n      swap2\n      pop\n      pop\n      jump\t// out\n        /* \"@chainlink/contracts-ccip/src/v0.8/ccip/libraries/Client.sol\":1285:1455  function _argsToBytes(EVMExtraArgsV1 memory extraArgs) internal pure returns (bytes memory bts) {... */\n    tag_75:\n        /* \"@chainlink/contracts-ccip/src/v0.8/ccip/libraries/Client.sol\":1363:1379  bytes memory bts */\n      0x60\n        /* \"@chainlink/contracts-ccip/src/v0.8/ccip/libraries/Client.sol\":1218:1228  0x97a657c9 */\n      0x97a657c9\n        /* \"@chainlink/contracts-ccip/src/v0.8/ccip/libraries/Client.sol\":1417:1438  EVM_EXTRA_ARGS_V1_TAG */\n      0xe0\n      shl\n        /* \"@chainlink/contracts-ccip/src/v0.8/ccip/libraries/Client.sol\":1440:1449  extraArgs */\n      dup3\n        /* \"@chainlink/contracts-ccip/src/v0.8/ccip/libraries/Client.sol\":1394:1450  abi.encodeWithSelector(EVM_EXTRA_ARGS_V1_TAG, extraArgs) */\n      add(0x24, mload(0x40))\n      tag_119\n      swap2\n      swap1\n      tag_120\n      jump\t// in\n    tag_119:\n      mload(0x40)\n      0x20\n      dup2\n      dup4\n      sub\n      sub\n      dup2\n      mstore\n      swap1\n      0x40\n      mstore\n      swap1\n      not(0xffffffffffffffffffffffffffffffffffffffffffffffffffffffff)\n      and\n      0x20\n      dup3\n      add\n      dup1\n      mload\n      0xffffffffffffffffffffffffffffffffffffffffffffffffffffffff\n      dup4\n      dup2\n      dup4\n      and\n      or\n      dup4\n      mstore\n      pop\n      pop\n      pop\n      pop\n        /* \"@chainlink/contracts-ccip/src/v0.8/ccip/libraries/Client.sol\":1387:1450  return abi.encodeWithSelector(EVM_EXTRA_ARGS_V1_TAG, extraArgs) */\n      swap1\n      pop\n        /* \"@chainlink/contracts-ccip/src/v0.8/ccip/libraries/Client.sol\":1285:1455  function _argsToBytes(EVMExtraArgsV1 memory extraArgs) internal pure returns (bytes memory bts) {... */\n      swap2\n      swap1\n      pop\n      jump\t// out\n        /* \"@chainlink/contracts-ccip/src/v0.8/vendor/openzeppelin-solidity/v4.8.0/token/ERC20/utils/SafeERC20.sol\":948:1165  function safeTransferFrom(... */\n    tag_106:\n        /* \"@chainlink/contracts-ccip/src/v0.8/vendor/openzeppelin-solidity/v4.8.0/token/ERC20/utils/SafeERC20.sol\":1064:1160  _callOptionalReturn(token, abi.encodeWithSelector(token.transferFrom.selector, from, to, value)) */\n      tag_122\n        /* \"@chainlink/contracts-ccip/src/v0.8/vendor/openzeppelin-solidity/v4.8.0/token/ERC20/utils/SafeERC20.sol\":1084:1089  token */\n      dup5\n        /* \"@chainlink/contracts-ccip/src/v0.8/vendor/openzeppelin-solidity/v4.8.0/token/ERC20/utils/SafeERC20.sol\":1114:1141  token.transferFrom.selector */\n      shl(0xe0, 0x23b872dd)\n        /* \"@chainlink/contracts-ccip/src/v0.8/vendor/openzeppelin-solidity/v4.8.0/token/ERC20/utils/SafeERC20.sol\":1143:1147  from */\n      dup6\n        /* \"@chainlink/contracts-ccip/src/v0.8/vendor/openzeppelin-solidity/v4.8.0/token/ERC20/utils/SafeERC20.sol\":1149:1151  to */\n      dup6\n        /* \"@chainlink/contracts-ccip/src/v0.8/vendor/openzeppelin-solidity/v4.8.0/token/ERC20/utils/SafeERC20.sol\":1153:1158  value */\n      dup6\n        /* \"@chainlink/contracts-ccip/src/v0.8/vendor/openzeppelin-solidity/v4.8.0/token/ERC20/utils/SafeERC20.sol\":1091:1159  abi.encodeWithSelector(token.transferFrom.selector, from, to, value) */\n      add(0x24, mload(0x40))\n      tag_123\n      swap4\n      swap3\n      swap2\n      swap1\n      tag_124\n      jump\t// in\n    tag_123:\n      mload(0x40)\n      0x20\n      dup2\n      dup4\n      sub\n      sub\n      dup2\n      mstore\n      swap1\n      0x40\n      mstore\n      swap1\n      not(0xffffffffffffffffffffffffffffffffffffffffffffffffffffffff)\n      and\n      0x20\n      dup3\n      add\n      dup1\n      mload\n      0xffffffffffffffffffffffffffffffffffffffffffffffffffffffff\n      dup4\n      dup2\n      dup4\n      and\n      or\n      dup4\n      mstore\n      pop\n      pop\n      pop\n      pop\n        /* \"@chainlink/contracts-ccip/src/v0.8/vendor/openzeppelin-solidity/v4.8.0/token/ERC20/utils/SafeERC20.sol\":1064:1083  _callOptionalReturn */\n      tag_125\n        /* \"@chainlink/contracts-ccip/src/v0.8/vendor/openzeppelin-solidity/v4.8.0/token/ERC20/utils/SafeERC20.sol\":1064:1160  _callOptionalReturn(token, abi.encodeWithSelector(token.transferFrom.selector, from, to, value)) */\n      jump\t// in\n    tag_122:\n        /* \"@chainlink/contracts-ccip/src/v0.8/vendor/openzeppelin-solidity/v4.8.0/token/ERC20/utils/SafeERC20.sol\":948:1165  function safeTransferFrom(... */\n      pop\n      pop\n      pop\n      pop\n      jump\t// out\n        /* \"@chainlink/contracts-ccip/src/v0.8/vendor/openzeppelin-solidity/v4.8.0/token/ERC20/utils/SafeERC20.sol\":3485:4153  function _callOptionalReturn(IERC20 token, bytes memory data) private {... */\n    tag_125:\n        /* \"@chainlink/contracts-ccip/src/v0.8/vendor/openzeppelin-solidity/v4.8.0/token/ERC20/utils/SafeERC20.sol\":3888:3911  bytes memory returndata */\n      0x00\n        /* \"@chainlink/contracts-ccip/src/v0.8/vendor/openzeppelin-solidity/v4.8.0/token/ERC20/utils/SafeERC20.sol\":3914:3983  address(token).functionCall(data, \"SafeERC20: low-level call failed\") */\n      tag_127\n        /* \"@chainlink/contracts-ccip/src/v0.8/vendor/openzeppelin-solidity/v4.8.0/token/ERC20/utils/SafeERC20.sol\":3942:3946  data */\n      dup3\n        /* \"@chainlink/contracts-ccip/src/v0.8/vendor/openzeppelin-solidity/v4.8.0/token/ERC20/utils/SafeERC20.sol\":3914:3983  address(token).functionCall(data, \"SafeERC20: low-level call failed\") */\n      mload(0x40)\n      dup1\n      0x40\n      add\n      0x40\n      mstore\n      dup1\n      0x20\n      dup2\n      mstore\n      0x20\n      add\n      0x5361666545524332303a206c6f772d6c6576656c2063616c6c206661696c6564\n      dup2\n      mstore\n      pop\n        /* \"@chainlink/contracts-ccip/src/v0.8/vendor/openzeppelin-solidity/v4.8.0/token/ERC20/utils/SafeERC20.sol\":3922:3927  token */\n      dup6\n        /* \"@chainlink/contracts-ccip/src/v0.8/vendor/openzeppelin-solidity/v4.8.0/token/ERC20/utils/SafeERC20.sol\":3914:3941  address(token).functionCall */\n      0xffffffffffffffffffffffffffffffffffffffff\n      and\n      tag_128\n      swap1\n        /* \"@chainlink/contracts-ccip/src/v0.8/vendor/openzeppelin-solidity/v4.8.0/token/ERC20/utils/SafeERC20.sol\":3914:3983  address(token).functionCall(data, \"SafeERC20: low-level call failed\") */\n      swap3\n      swap2\n      swap1\n      0xffffffff\n      and\n      jump\t// in\n    tag_127:\n        /* \"@chainlink/contracts-ccip/src/v0.8/vendor/openzeppelin-solidity/v4.8.0/token/ERC20/utils/SafeERC20.sol\":3888:3983  bytes memory returndata = address(token).functionCall(data, \"SafeERC20: low-level call failed\") */\n      swap1\n      pop\n        /* \"@chainlink/contracts-ccip/src/v0.8/vendor/openzeppelin-solidity/v4.8.0/token/ERC20/utils/SafeERC20.sol\":4013:4014  0 */\n      0x00\n        /* \"@chainlink/contracts-ccip/src/v0.8/vendor/openzeppelin-solidity/v4.8.0/token/ERC20/utils/SafeERC20.sol\":3993:4003  returndata */\n      dup2\n        /* \"@chainlink/contracts-ccip/src/v0.8/vendor/openzeppelin-solidity/v4.8.0/token/ERC20/utils/SafeERC20.sol\":3993:4010  returndata.length */\n      mload\n        /* \"@chainlink/contracts-ccip/src/v0.8/vendor/openzeppelin-solidity/v4.8.0/token/ERC20/utils/SafeERC20.sol\":3993:4014  returndata.length > 0 */\n      gt\n        /* \"@chainlink/contracts-ccip/src/v0.8/vendor/openzeppelin-solidity/v4.8.0/token/ERC20/utils/SafeERC20.sol\":3989:4149  if (returndata.length > 0) {... */\n      iszero\n      tag_129\n      jumpi\n        /* \"@chainlink/contracts-ccip/src/v0.8/vendor/openzeppelin-solidity/v4.8.0/token/ERC20/utils/SafeERC20.sol\":4076:4086  returndata */\n      dup1\n        /* \"@chainlink/contracts-ccip/src/v0.8/vendor/openzeppelin-solidity/v4.8.0/token/ERC20/utils/SafeERC20.sol\":4065:4095  abi.decode(returndata, (bool)) */\n      dup1\n      0x20\n      add\n      swap1\n      mload\n      dup2\n      add\n      swap1\n      tag_130\n      swap2\n      swap1\n      tag_46\n      jump\t// in\n    tag_130:\n        /* \"@chainlink/contracts-ccip/src/v0.8/vendor/openzeppelin-solidity/v4.8.0/token/ERC20/utils/SafeERC20.sol\":4057:4142  require(abi.decode(returndata, (bool)), \"SafeERC20: ERC20 operation did not succeed\") */\n      tag_131\n      jumpi\n      mload(0x40)\n      0x08c379a000000000000000000000000000000000000000000000000000000000\n      dup2\n      mstore\n      0x04\n      add\n      tag_132\n      swap1\n      tag_133\n      jump\t// in\n    tag_132:\n      mload(0x40)\n      dup1\n      swap2\n      sub\n      swap1\n      revert\n    tag_131:\n        /* \"@chainlink/contracts-ccip/src/v0.8/vendor/openzeppelin-solidity/v4.8.0/token/ERC20/utils/SafeERC20.sol\":3989:4149  if (returndata.length > 0) {... */\n    tag_129:\n        /* \"@chainlink/contracts-ccip/src/v0.8/vendor/openzeppelin-solidity/v4.8.0/token/ERC20/utils/SafeERC20.sol\":3555:4153  {... */\n      pop\n        /* \"@chainlink/contracts-ccip/src/v0.8/vendor/openzeppelin-solidity/v4.8.0/token/ERC20/utils/SafeERC20.sol\":3485:4153  function _callOptionalReturn(IERC20 token, bytes memory data) private {... */\n      pop\n      pop\n      jump\t// out\n        /* \"@chainlink/contracts-ccip/src/v0.8/vendor/openzeppelin-solidity/v4.8.0/utils/Address.sol\":3695:3898  function functionCall(... */\n    tag_128:\n        /* \"@chainlink/contracts-ccip/src/v0.8/vendor/openzeppelin-solidity/v4.8.0/utils/Address.sol\":3814:3826  bytes memory */\n      0x60\n        /* \"@chainlink/contracts-ccip/src/v0.8/vendor/openzeppelin-solidity/v4.8.0/utils/Address.sol\":3841:3893  functionCallWithValue(target, data, 0, errorMessage) */\n      tag_135\n        /* \"@chainlink/contracts-ccip/src/v0.8/vendor/openzeppelin-solidity/v4.8.0/utils/Address.sol\":3863:3869  target */\n      dup5\n        /* \"@chainlink/contracts-ccip/src/v0.8/vendor/openzeppelin-solidity/v4.8.0/utils/Address.sol\":3871:3875  data */\n      dup5\n        /* \"@chainlink/contracts-ccip/src/v0.8/vendor/openzeppelin-solidity/v4.8.0/utils/Address.sol\":3877:3878  0 */\n      0x00\n        /* \"@chainlink/contracts-ccip/src/v0.8/vendor/openzeppelin-solidity/v4.8.0/utils/Address.sol\":3880:3892  errorMessage */\n      dup6\n        /* \"@chainlink/contracts-ccip/src/v0.8/vendor/openzeppelin-solidity/v4.8.0/utils/Address.sol\":3841:3862  functionCallWithValue */\n      tag_136\n        /* \"@chainlink/contracts-ccip/src/v0.8/vendor/openzeppelin-solidity/v4.8.0/utils/Address.sol\":3841:3893  functionCallWithValue(target, data, 0, errorMessage) */\n      jump\t// in\n    tag_135:\n        /* \"@chainlink/contracts-ccip/src/v0.8/vendor/openzeppelin-solidity/v4.8.0/utils/Address.sol\":3834:3893  return functionCallWithValue(target, data, 0, errorMessage) */\n      swap1\n      pop\n        /* \"@chainlink/contracts-ccip/src/v0.8/vendor/openzeppelin-solidity/v4.8.0/utils/Address.sol\":3695:3898  function functionCall(... */\n      swap4\n      swap3\n      pop\n      pop\n      pop\n      jump\t// out\n        /* \"@chainlink/contracts-ccip/src/v0.8/vendor/openzeppelin-solidity/v4.8.0/utils/Address.sol\":4704:5118  function functionCallWithValue(... */\n    tag_136:\n        /* \"@chainlink/contracts-ccip/src/v0.8/vendor/openzeppelin-solidity/v4.8.0/utils/Address.sol\":4851:4863  bytes memory */\n      0x60\n        /* \"@chainlink/contracts-ccip/src/v0.8/vendor/openzeppelin-solidity/v4.8.0/utils/Address.sol\":4904:4909  value */\n      dup3\n        /* \"@chainlink/contracts-ccip/src/v0.8/vendor/openzeppelin-solidity/v4.8.0/utils/Address.sol\":4879:4900  address(this).balance */\n      selfbalance\n        /* \"@chainlink/contracts-ccip/src/v0.8/vendor/openzeppelin-solidity/v4.8.0/utils/Address.sol\":4879:4909  address(this).balance >= value */\n      lt\n      iszero\n        /* \"@chainlink/contracts-ccip/src/v0.8/vendor/openzeppelin-solidity/v4.8.0/utils/Address.sol\":4871:4952  require(address(this).balance >= value, \"Address: insufficient balance for call\") */\n      tag_138\n      jumpi\n      mload(0x40)\n      0x08c379a000000000000000000000000000000000000000000000000000000000\n      dup2\n      mstore\n      0x04\n      add\n      tag_139\n      swap1\n      tag_140\n      jump\t// in\n    tag_139:\n      mload(0x40)\n      dup1\n      swap2\n      sub\n      swap1\n      revert\n    tag_138:\n        /* \"@chainlink/contracts-ccip/src/v0.8/vendor/openzeppelin-solidity/v4.8.0/utils/Address.sol\":4959:4971  bool success */\n      0x00\n        /* \"@chainlink/contracts-ccip/src/v0.8/vendor/openzeppelin-solidity/v4.8.0/utils/Address.sol\":4973:4996  bytes memory returndata */\n      dup1\n        /* \"@chainlink/contracts-ccip/src/v0.8/vendor/openzeppelin-solidity/v4.8.0/utils/Address.sol\":5000:5006  target */\n      dup7\n        /* \"@chainlink/contracts-ccip/src/v0.8/vendor/openzeppelin-solidity/v4.8.0/utils/Address.sol\":5000:5011  target.call */\n      0xffffffffffffffffffffffffffffffffffffffff\n      and\n        /* \"@chainlink/contracts-ccip/src/v0.8/vendor/openzeppelin-solidity/v4.8.0/utils/Address.sol\":5019:5024  value */\n      dup6\n        /* \"@chainlink/contracts-ccip/src/v0.8/vendor/openzeppelin-solidity/v4.8.0/utils/Address.sol\":5026:5030  data */\n      dup8\n        /* \"@chainlink/contracts-ccip/src/v0.8/vendor/openzeppelin-solidity/v4.8.0/utils/Address.sol\":5000:5031  target.call{value: value}(data) */\n      mload(0x40)\n      tag_141\n      swap2\n      swap1\n      tag_142\n      jump\t// in\n    tag_141:\n      0x00\n      mload(0x40)\n      dup1\n      dup4\n      sub\n      dup2\n      dup6\n      dup8\n      gas\n      call\n      swap3\n      pop\n      pop\n      pop\n      returndatasize\n      dup1\n      0x00\n      dup2\n      eq\n      tag_145\n      jumpi\n      mload(0x40)\n      swap2\n      pop\n      and(add(returndatasize, 0x3f), not(0x1f))\n      dup3\n      add\n      0x40\n      mstore\n      returndatasize\n      dup3\n      mstore\n      returndatasize\n      0x00\n      0x20\n      dup5\n      add\n      returndatacopy\n      jump(tag_144)\n    tag_145:\n      0x60\n      swap2\n      pop\n    tag_144:\n      pop\n        /* \"@chainlink/contracts-ccip/src/v0.8/vendor/openzeppelin-solidity/v4.8.0/utils/Address.sol\":4958:5031  (bool success, bytes memory returndata) = target.call{value: value}(data) */\n      swap2\n      pop\n      swap2\n      pop\n        /* \"@chainlink/contracts-ccip/src/v0.8/vendor/openzeppelin-solidity/v4.8.0/utils/Address.sol\":5044:5113  verifyCallResultFromTarget(target, success, returndata, errorMessage) */\n      tag_146\n        /* \"@chainlink/contracts-ccip/src/v0.8/vendor/openzeppelin-solidity/v4.8.0/utils/Address.sol\":5071:5077  target */\n      dup8\n        /* \"@chainlink/contracts-ccip/src/v0.8/vendor/openzeppelin-solidity/v4.8.0/utils/Address.sol\":5079:5086  success */\n      dup4\n        /* \"@chainlink/contracts-ccip/src/v0.8/vendor/openzeppelin-solidity/v4.8.0/utils/Address.sol\":5088:5098  returndata */\n      dup4\n        /* \"@chainlink/contracts-ccip/src/v0.8/vendor/openzeppelin-solidity/v4.8.0/utils/Address.sol\":5100:5112  errorMessage */\n      dup8\n        /* \"@chainlink/contracts-ccip/src/v0.8/vendor/openzeppelin-solidity/v4.8.0/utils/Address.sol\":5044:5070  verifyCallResultFromTarget */\n      tag_147\n        /* \"@chainlink/contracts-ccip/src/v0.8/vendor/openzeppelin-solidity/v4.8.0/utils/Address.sol\":5044:5113  verifyCallResultFromTarget(target, success, returndata, errorMessage) */\n      jump\t// in\n    tag_146:\n        /* \"@chainlink/contracts-ccip/src/v0.8/vendor/openzeppelin-solidity/v4.8.0/utils/Address.sol\":5037:5113  return verifyCallResultFromTarget(target, success, returndata, errorMessage) */\n      swap3\n      pop\n      pop\n      pop\n        /* \"@chainlink/contracts-ccip/src/v0.8/vendor/openzeppelin-solidity/v4.8.0/utils/Address.sol\":4704:5118  function functionCallWithValue(... */\n      swap5\n      swap4\n      pop\n      pop\n      pop\n      pop\n      jump\t// out\n        /* \"@chainlink/contracts-ccip/src/v0.8/vendor/openzeppelin-solidity/v4.8.0/utils/Address.sol\":7048:7596  function verifyCallResultFromTarget(... */\n    tag_147:\n        /* \"@chainlink/contracts-ccip/src/v0.8/vendor/openzeppelin-solidity/v4.8.0/utils/Address.sol\":7210:7222  bytes memory */\n      0x60\n        /* \"@chainlink/contracts-ccip/src/v0.8/vendor/openzeppelin-solidity/v4.8.0/utils/Address.sol\":7234:7241  success */\n      dup4\n        /* \"@chainlink/contracts-ccip/src/v0.8/vendor/openzeppelin-solidity/v4.8.0/utils/Address.sol\":7230:7592  if (success) {... */\n      iszero\n      tag_149\n      jumpi\n        /* \"@chainlink/contracts-ccip/src/v0.8/vendor/openzeppelin-solidity/v4.8.0/utils/Address.sol\":7276:7277  0 */\n      0x00\n        /* \"@chainlink/contracts-ccip/src/v0.8/vendor/openzeppelin-solidity/v4.8.0/utils/Address.sol\":7255:7265  returndata */\n      dup4\n        /* \"@chainlink/contracts-ccip/src/v0.8/vendor/openzeppelin-solidity/v4.8.0/utils/Address.sol\":7255:7272  returndata.length */\n      mload\n        /* \"@chainlink/contracts-ccip/src/v0.8/vendor/openzeppelin-solidity/v4.8.0/utils/Address.sol\":7255:7277  returndata.length == 0 */\n      sub\n        /* \"@chainlink/contracts-ccip/src/v0.8/vendor/openzeppelin-solidity/v4.8.0/utils/Address.sol\":7251:7507  if (returndata.length == 0) {... */\n      tag_150\n      jumpi\n        /* \"@chainlink/contracts-ccip/src/v0.8/vendor/openzeppelin-solidity/v4.8.0/utils/Address.sol\":7446:7464  isContract(target) */\n      tag_151\n        /* \"@chainlink/contracts-ccip/src/v0.8/vendor/openzeppelin-solidity/v4.8.0/utils/Address.sol\":7457:7463  target */\n      dup6\n        /* \"@chainlink/contracts-ccip/src/v0.8/vendor/openzeppelin-solidity/v4.8.0/utils/Address.sol\":7446:7456  isContract */\n      tag_152\n        /* \"@chainlink/contracts-ccip/src/v0.8/vendor/openzeppelin-solidity/v4.8.0/utils/Address.sol\":7446:7464  isContract(target) */\n      jump\t// in\n    tag_151:\n        /* \"@chainlink/contracts-ccip/src/v0.8/vendor/openzeppelin-solidity/v4.8.0/utils/Address.sol\":7438:7498  require(isContract(target), \"Address: call to non-contract\") */\n      tag_153\n      jumpi\n      mload(0x40)\n      0x08c379a000000000000000000000000000000000000000000000000000000000\n      dup2\n      mstore\n      0x04\n      add\n      tag_154\n      swap1\n      tag_155\n      jump\t// in\n    tag_154:\n      mload(0x40)\n      dup1\n      swap2\n      sub\n      swap1\n      revert\n    tag_153:\n        /* \"@chainlink/contracts-ccip/src/v0.8/vendor/openzeppelin-solidity/v4.8.0/utils/Address.sol\":7251:7507  if (returndata.length == 0) {... */\n    tag_150:\n        /* \"@chainlink/contracts-ccip/src/v0.8/vendor/openzeppelin-solidity/v4.8.0/utils/Address.sol\":7521:7531  returndata */\n      dup3\n        /* \"@chainlink/contracts-ccip/src/v0.8/vendor/openzeppelin-solidity/v4.8.0/utils/Address.sol\":7514:7531  return returndata */\n      swap1\n      pop\n      jump(tag_148)\n        /* \"@chainlink/contracts-ccip/src/v0.8/vendor/openzeppelin-solidity/v4.8.0/utils/Address.sol\":7230:7592  if (success) {... */\n    tag_149:\n        /* \"@chainlink/contracts-ccip/src/v0.8/vendor/openzeppelin-solidity/v4.8.0/utils/Address.sol\":7552:7585  _revert(returndata, errorMessage) */\n      tag_157\n        /* \"@chainlink/contracts-ccip/src/v0.8/vendor/openzeppelin-solidity/v4.8.0/utils/Address.sol\":7560:7570  returndata */\n      dup4\n        /* \"@chainlink/contracts-ccip/src/v0.8/vendor/openzeppelin-solidity/v4.8.0/utils/Address.sol\":7572:7584  errorMessage */\n      dup4\n        /* \"@chainlink/contracts-ccip/src/v0.8/vendor/openzeppelin-solidity/v4.8.0/utils/Address.sol\":7552:7559  _revert */\n      tag_158\n        /* \"@chainlink/contracts-ccip/src/v0.8/vendor/openzeppelin-solidity/v4.8.0/utils/Address.sol\":7552:7585  _revert(returndata, errorMessage) */\n      jump\t// in\n    tag_157:\n        /* \"@chainlink/contracts-ccip/src/v0.8/vendor/openzeppelin-solidity/v4.8.0/utils/Address.sol\":7048:7596  function verifyCallResultFromTarget(... */\n    tag_148:\n      swap5\n      swap4\n      pop\n      pop\n      pop\n      pop\n      jump\t// out\n        /* \"@chainlink/contracts-ccip/src/v0.8/vendor/openzeppelin-solidity/v4.8.0/utils/Address.sol\":1121:1423  function isContract(address account) internal view returns (bool) {... */\n    tag_152:\n        /* \"@chainlink/contracts-ccip/src/v0.8/vendor/openzeppelin-solidity/v4.8.0/utils/Address.sol\":1181:1185  bool */\n      0x00\n        /* \"@chainlink/contracts-ccip/src/v0.8/vendor/openzeppelin-solidity/v4.8.0/utils/Address.sol\":1417:1418  0 */\n      dup1\n        /* \"@chainlink/contracts-ccip/src/v0.8/vendor/openzeppelin-solidity/v4.8.0/utils/Address.sol\":1395:1402  account */\n      dup3\n        /* \"@chainlink/contracts-ccip/src/v0.8/vendor/openzeppelin-solidity/v4.8.0/utils/Address.sol\":1395:1414  account.code.length */\n      0xffffffffffffffffffffffffffffffffffffffff\n      and\n      extcodesize\n        /* \"@chainlink/contracts-ccip/src/v0.8/vendor/openzeppelin-solidity/v4.8.0/utils/Address.sol\":1395:1418  account.code.length > 0 */\n      gt\n        /* \"@chainlink/contracts-ccip/src/v0.8/vendor/openzeppelin-solidity/v4.8.0/utils/Address.sol\":1388:1418  return account.code.length > 0 */\n      swap1\n      pop\n        /* \"@chainlink/contracts-ccip/src/v0.8/vendor/openzeppelin-solidity/v4.8.0/utils/Address.sol\":1121:1423  function isContract(address account) internal view returns (bool) {... */\n      swap2\n      swap1\n      pop\n      jump\t// out\n        /* \"@chainlink/contracts-ccip/src/v0.8/vendor/openzeppelin-solidity/v4.8.0/utils/Address.sol\":8062:8538  function _revert(bytes memory returndata, string memory errorMessage) private pure {... */\n    tag_158:\n        /* \"@chainlink/contracts-ccip/src/v0.8/vendor/openzeppelin-solidity/v4.8.0/utils/Address.sol\":8233:8234  0 */\n      0x00\n        /* \"@chainlink/contracts-ccip/src/v0.8/vendor/openzeppelin-solidity/v4.8.0/utils/Address.sol\":8213:8223  returndata */\n      dup3\n        /* \"@chainlink/contracts-ccip/src/v0.8/vendor/openzeppelin-solidity/v4.8.0/utils/Address.sol\":8213:8230  returndata.length */\n      mload\n        /* \"@chainlink/contracts-ccip/src/v0.8/vendor/openzeppelin-solidity/v4.8.0/utils/Address.sol\":8213:8234  returndata.length > 0 */\n      gt\n        /* \"@chainlink/contracts-ccip/src/v0.8/vendor/openzeppelin-solidity/v4.8.0/utils/Address.sol\":8209:8534  if (returndata.length > 0) {... */\n      iszero\n      tag_161\n      jumpi\n        /* \"@chainlink/contracts-ccip/src/v0.8/vendor/openzeppelin-solidity/v4.8.0/utils/Address.sol\":8415:8425  returndata */\n      dup2\n        /* \"@chainlink/contracts-ccip/src/v0.8/vendor/openzeppelin-solidity/v4.8.0/utils/Address.sol\":8409:8426  mload(returndata) */\n      mload\n        /* \"@chainlink/contracts-ccip/src/v0.8/vendor/openzeppelin-solidity/v4.8.0/utils/Address.sol\":8463:8478  returndata_size */\n      dup1\n        /* \"@chainlink/contracts-ccip/src/v0.8/vendor/openzeppelin-solidity/v4.8.0/utils/Address.sol\":8450:8460  returndata */\n      dup4\n        /* \"@chainlink/contracts-ccip/src/v0.8/vendor/openzeppelin-solidity/v4.8.0/utils/Address.sol\":8446:8448  32 */\n      0x20\n        /* \"@chainlink/contracts-ccip/src/v0.8/vendor/openzeppelin-solidity/v4.8.0/utils/Address.sol\":8442:8461  add(32, returndata) */\n      add\n        /* \"@chainlink/contracts-ccip/src/v0.8/vendor/openzeppelin-solidity/v4.8.0/utils/Address.sol\":8435:8479  revert(add(32, returndata), returndata_size) */\n      revert\n        /* \"@chainlink/contracts-ccip/src/v0.8/vendor/openzeppelin-solidity/v4.8.0/utils/Address.sol\":8209:8534  if (returndata.length > 0) {... */\n    tag_161:\n        /* \"@chainlink/contracts-ccip/src/v0.8/vendor/openzeppelin-solidity/v4.8.0/utils/Address.sol\":8514:8526  errorMessage */\n      dup1\n        /* \"@chainlink/contracts-ccip/src/v0.8/vendor/openzeppelin-solidity/v4.8.0/utils/Address.sol\":8507:8527  revert(errorMessage) */\n      mload(0x40)\n      0x08c379a000000000000000000000000000000000000000000000000000000000\n      dup2\n      mstore\n      0x04\n      add\n      tag_163\n      swap2\n      swap1\n      tag_164\n      jump\t// in\n    tag_163:\n      mload(0x40)\n      dup1\n      swap2\n      sub\n      swap1\n      revert\n    tag_69:\n      mload(0x40)\n      dup1\n      0x40\n      add\n      0x40\n      mstore\n      dup1\n      and(0xffffffffffffffffffffffffffffffffffffffff, 0x00)\n      dup2\n      mstore\n      0x20\n      add\n      0x00\n      dup2\n      mstore\n      pop\n      swap1\n      jump\t// out\n        /* \"#utility.yul\":88:205   */\n    tag_166:\n        /* \"#utility.yul\":197:198   */\n      0x00\n        /* \"#utility.yul\":194:195   */\n      dup1\n        /* \"#utility.yul\":187:199   */\n      revert\n        /* \"#utility.yul\":334:460   */\n    tag_168:\n        /* \"#utility.yul\":371:378   */\n      0x00\n        /* \"#utility.yul\":411:453   */\n      0xffffffffffffffffffffffffffffffffffffffff\n        /* \"#utility.yul\":404:409   */\n      dup3\n        /* \"#utility.yul\":400:454   */\n      and\n        /* \"#utility.yul\":389:454   */\n      swap1\n      pop\n        /* \"#utility.yul\":334:460   */\n      swap2\n      swap1\n      pop\n      jump\t// out\n        /* \"#utility.yul\":466:562   */\n    tag_169:\n        /* \"#utility.yul\":503:510   */\n      0x00\n        /* \"#utility.yul\":532:556   */\n      tag_220\n        /* \"#utility.yul\":550:555   */\n      dup3\n        /* \"#utility.yul\":532:556   */\n      tag_168\n      jump\t// in\n    tag_220:\n        /* \"#utility.yul\":521:556   */\n      swap1\n      pop\n        /* \"#utility.yul\":466:562   */\n      swap2\n      swap1\n      pop\n      jump\t// out\n        /* \"#utility.yul\":568:690   */\n    tag_170:\n        /* \"#utility.yul\":641:665   */\n      tag_222\n        /* \"#utility.yul\":659:664   */\n      dup2\n        /* \"#utility.yul\":641:665   */\n      tag_169\n      jump\t// in\n    tag_222:\n        /* \"#utility.yul\":634:639   */\n      dup2\n        /* \"#utility.yul\":631:666   */\n      eq\n        /* \"#utility.yul\":621:684   */\n      tag_223\n      jumpi\n        /* \"#utility.yul\":680:681   */\n      0x00\n        /* \"#utility.yul\":677:678   */\n      dup1\n        /* \"#utility.yul\":670:682   */\n      revert\n        /* \"#utility.yul\":621:684   */\n    tag_223:\n        /* \"#utility.yul\":568:690   */\n      pop\n      jump\t// out\n        /* \"#utility.yul\":696:835   */\n    tag_171:\n        /* \"#utility.yul\":742:747   */\n      0x00\n        /* \"#utility.yul\":780:786   */\n      dup2\n        /* \"#utility.yul\":767:787   */\n      calldataload\n        /* \"#utility.yul\":758:787   */\n      swap1\n      pop\n        /* \"#utility.yul\":796:829   */\n      tag_225\n        /* \"#utility.yul\":823:828   */\n      dup2\n        /* \"#utility.yul\":796:829   */\n      tag_170\n      jump\t// in\n    tag_225:\n        /* \"#utility.yul\":696:835   */\n      swap3\n      swap2\n      pop\n      pop\n      jump\t// out\n        /* \"#utility.yul\":841:1315   */\n    tag_10:\n        /* \"#utility.yul\":909:915   */\n      0x00\n        /* \"#utility.yul\":917:923   */\n      dup1\n        /* \"#utility.yul\":966:968   */\n      0x40\n        /* \"#utility.yul\":954:963   */\n      dup4\n        /* \"#utility.yul\":945:952   */\n      dup6\n        /* \"#utility.yul\":941:964   */\n      sub\n        /* \"#utility.yul\":937:969   */\n      slt\n        /* \"#utility.yul\":934:1053   */\n      iszero\n      tag_227\n      jumpi\n        /* \"#utility.yul\":972:1051   */\n      tag_228\n      tag_166\n      jump\t// in\n    tag_228:\n        /* \"#utility.yul\":934:1053   */\n    tag_227:\n        /* \"#utility.yul\":1092:1093   */\n      0x00\n        /* \"#utility.yul\":1117:1170   */\n      tag_229\n        /* \"#utility.yul\":1162:1169   */\n      dup6\n        /* \"#utility.yul\":1153:1159   */\n      dup3\n        /* \"#utility.yul\":1142:1151   */\n      dup7\n        /* \"#utility.yul\":1138:1160   */\n      add\n        /* \"#utility.yul\":1117:1170   */\n      tag_171\n      jump\t// in\n    tag_229:\n        /* \"#utility.yul\":1107:1170   */\n      swap3\n      pop\n        /* \"#utility.yul\":1063:1180   */\n      pop\n        /* \"#utility.yul\":1219:1221   */\n      0x20\n        /* \"#utility.yul\":1245:1298   */\n      tag_230\n        /* \"#utility.yul\":1290:1297   */\n      dup6\n        /* \"#utility.yul\":1281:1287   */\n      dup3\n        /* \"#utility.yul\":1270:1279   */\n      dup7\n        /* \"#utility.yul\":1266:1288   */\n      add\n        /* \"#utility.yul\":1245:1298   */\n      tag_171\n      jump\t// in\n    tag_230:\n        /* \"#utility.yul\":1235:1298   */\n      swap2\n      pop\n        /* \"#utility.yul\":1190:1308   */\n      pop\n        /* \"#utility.yul\":841:1315   */\n      swap3\n      pop\n      swap3\n      swap1\n      pop\n      jump\t// out\n        /* \"#utility.yul\":1321:1650   */\n    tag_14:\n        /* \"#utility.yul\":1380:1386   */\n      0x00\n        /* \"#utility.yul\":1429:1431   */\n      0x20\n        /* \"#utility.yul\":1417:1426   */\n      dup3\n        /* \"#utility.yul\":1408:1415   */\n      dup5\n        /* \"#utility.yul\":1404:1427   */\n      sub\n        /* \"#utility.yul\":1400:1432   */\n      slt\n        /* \"#utility.yul\":1397:1516   */\n      iszero\n      tag_232\n      jumpi\n        /* \"#utility.yul\":1435:1514   */\n      tag_233\n      tag_166\n      jump\t// in\n    tag_233:\n        /* \"#utility.yul\":1397:1516   */\n    tag_232:\n        /* \"#utility.yul\":1555:1556   */\n      0x00\n        /* \"#utility.yul\":1580:1633   */\n      tag_234\n        /* \"#utility.yul\":1625:1632   */\n      dup5\n        /* \"#utility.yul\":1616:1622   */\n      dup3\n        /* \"#utility.yul\":1605:1614   */\n      dup6\n        /* \"#utility.yul\":1601:1623   */\n      add\n        /* \"#utility.yul\":1580:1633   */\n      tag_171\n      jump\t// in\n    tag_234:\n        /* \"#utility.yul\":1570:1633   */\n      swap2\n      pop\n        /* \"#utility.yul\":1526:1643   */\n      pop\n        /* \"#utility.yul\":1321:1650   */\n      swap3\n      swap2\n      pop\n      pop\n      jump\t// out\n        /* \"#utility.yul\":1656:1733   */\n    tag_172:\n        /* \"#utility.yul\":1693:1700   */\n      0x00\n        /* \"#utility.yul\":1722:1727   */\n      dup2\n        /* \"#utility.yul\":1711:1727   */\n      swap1\n      pop\n        /* \"#utility.yul\":1656:1733   */\n      swap2\n      swap1\n      pop\n      jump\t// out\n        /* \"#utility.yul\":1739:1857   */\n    tag_173:\n        /* \"#utility.yul\":1826:1850   */\n      tag_237\n        /* \"#utility.yul\":1844:1849   */\n      dup2\n        /* \"#utility.yul\":1826:1850   */\n      tag_172\n      jump\t// in\n    tag_237:\n        /* \"#utility.yul\":1821:1824   */\n      dup3\n        /* \"#utility.yul\":1814:1851   */\n      mstore\n        /* \"#utility.yul\":1739:1857   */\n      pop\n      pop\n      jump\t// out\n        /* \"#utility.yul\":1863:2195   */\n    tag_17:\n        /* \"#utility.yul\":1984:1988   */\n      0x00\n        /* \"#utility.yul\":2022:2024   */\n      0x40\n        /* \"#utility.yul\":2011:2020   */\n      dup3\n        /* \"#utility.yul\":2007:2025   */\n      add\n        /* \"#utility.yul\":1999:2025   */\n      swap1\n      pop\n        /* \"#utility.yul\":2035:2106   */\n      tag_239\n        /* \"#utility.yul\":2103:2104   */\n      0x00\n        /* \"#utility.yul\":2092:2101   */\n      dup4\n        /* \"#utility.yul\":2088:2105   */\n      add\n        /* \"#utility.yul\":2079:2085   */\n      dup6\n        /* \"#utility.yul\":2035:2106   */\n      tag_173\n      jump\t// in\n    tag_239:\n        /* \"#utility.yul\":2116:2188   */\n      tag_240\n        /* \"#utility.yul\":2184:2186   */\n      0x20\n        /* \"#utility.yul\":2173:2182   */\n      dup4\n        /* \"#utility.yul\":2169:2187   */\n      add\n        /* \"#utility.yul\":2160:2166   */\n      dup5\n        /* \"#utility.yul\":2116:2188   */\n      tag_173\n      jump\t// in\n    tag_240:\n        /* \"#utility.yul\":1863:2195   */\n      swap4\n      swap3\n      pop\n      pop\n      pop\n      jump\t// out\n        /* \"#utility.yul\":2201:2319   */\n    tag_174:\n        /* \"#utility.yul\":2288:2312   */\n      tag_242\n        /* \"#utility.yul\":2306:2311   */\n      dup2\n        /* \"#utility.yul\":2288:2312   */\n      tag_169\n      jump\t// in\n    tag_242:\n        /* \"#utility.yul\":2283:2286   */\n      dup3\n        /* \"#utility.yul\":2276:2313   */\n      mstore\n        /* \"#utility.yul\":2201:2319   */\n      pop\n      pop\n      jump\t// out\n        /* \"#utility.yul\":2325:2547   */\n    tag_21:\n        /* \"#utility.yul\":2418:2422   */\n      0x00\n        /* \"#utility.yul\":2456:2458   */\n      0x20\n        /* \"#utility.yul\":2445:2454   */\n      dup3\n        /* \"#utility.yul\":2441:2459   */\n      add\n        /* \"#utility.yul\":2433:2459   */\n      swap1\n      pop\n        /* \"#utility.yul\":2469:2540   */\n      tag_244\n        /* \"#utility.yul\":2537:2538   */\n      0x00\n        /* \"#utility.yul\":2526:2535   */\n      dup4\n        /* \"#utility.yul\":2522:2539   */\n      add\n        /* \"#utility.yul\":2513:2519   */\n      dup5\n        /* \"#utility.yul\":2469:2540   */\n      tag_174\n      jump\t// in\n    tag_244:\n        /* \"#utility.yul\":2325:2547   */\n      swap3\n      swap2\n      pop\n      pop\n      jump\t// out\n        /* \"#utility.yul\":2553:2775   */\n    tag_25:\n        /* \"#utility.yul\":2646:2650   */\n      0x00\n        /* \"#utility.yul\":2684:2686   */\n      0x20\n        /* \"#utility.yul\":2673:2682   */\n      dup3\n        /* \"#utility.yul\":2669:2687   */\n      add\n        /* \"#utility.yul\":2661:2687   */\n      swap1\n      pop\n        /* \"#utility.yul\":2697:2768   */\n      tag_246\n        /* \"#utility.yul\":2765:2766   */\n      0x00\n        /* \"#utility.yul\":2754:2763   */\n      dup4\n        /* \"#utility.yul\":2750:2767   */\n      add\n        /* \"#utility.yul\":2741:2747   */\n      dup5\n        /* \"#utility.yul\":2697:2768   */\n      tag_173\n      jump\t// in\n    tag_246:\n        /* \"#utility.yul\":2553:2775   */\n      swap3\n      swap2\n      pop\n      pop\n      jump\t// out\n        /* \"#utility.yul\":2781:2903   */\n    tag_175:\n        /* \"#utility.yul\":2854:2878   */\n      tag_248\n        /* \"#utility.yul\":2872:2877   */\n      dup2\n        /* \"#utility.yul\":2854:2878   */\n      tag_172\n      jump\t// in\n    tag_248:\n        /* \"#utility.yul\":2847:2852   */\n      dup2\n        /* \"#utility.yul\":2844:2879   */\n      eq\n        /* \"#utility.yul\":2834:2897   */\n      tag_249\n      jumpi\n        /* \"#utility.yul\":2893:2894   */\n      0x00\n        /* \"#utility.yul\":2890:2891   */\n      dup1\n        /* \"#utility.yul\":2883:2895   */\n      revert\n        /* \"#utility.yul\":2834:2897   */\n    tag_249:\n        /* \"#utility.yul\":2781:2903   */\n      pop\n      jump\t// out\n        /* \"#utility.yul\":2909:3048   */\n    tag_176:\n        /* \"#utility.yul\":2955:2960   */\n      0x00\n        /* \"#utility.yul\":2993:2999   */\n      dup2\n        /* \"#utility.yul\":2980:3000   */\n      calldataload\n        /* \"#utility.yul\":2971:3000   */\n      swap1\n      pop\n        /* \"#utility.yul\":3009:3042   */\n      tag_251\n        /* \"#utility.yul\":3036:3041   */\n      dup2\n        /* \"#utility.yul\":3009:3042   */\n      tag_175\n      jump\t// in\n    tag_251:\n        /* \"#utility.yul\":2909:3048   */\n      swap3\n      swap2\n      pop\n      pop\n      jump\t// out\n        /* \"#utility.yul\":3054:3528   */\n    tag_28:\n        /* \"#utility.yul\":3122:3128   */\n      0x00\n        /* \"#utility.yul\":3130:3136   */\n      dup1\n        /* \"#utility.yul\":3179:3181   */\n      0x40\n        /* \"#utility.yul\":3167:3176   */\n      dup4\n        /* \"#utility.yul\":3158:3165   */\n      dup6\n        /* \"#utility.yul\":3154:3177   */\n      sub\n        /* \"#utility.yul\":3150:3182   */\n      slt\n        /* \"#utility.yul\":3147:3266   */\n      iszero\n      tag_253\n      jumpi\n        /* \"#utility.yul\":3185:3264   */\n      tag_254\n      tag_166\n      jump\t// in\n    tag_254:\n        /* \"#utility.yul\":3147:3266   */\n    tag_253:\n        /* \"#utility.yul\":3305:3306   */\n      0x00\n        /* \"#utility.yul\":3330:3383   */\n      tag_255\n        /* \"#utility.yul\":3375:3382   */\n      dup6\n        /* \"#utility.yul\":3366:3372   */\n      dup3\n        /* \"#utility.yul\":3355:3364   */\n      dup7\n        /* \"#utility.yul\":3351:3373   */\n      add\n        /* \"#utility.yul\":3330:3383   */\n      tag_171\n      jump\t// in\n    tag_255:\n        /* \"#utility.yul\":3320:3383   */\n      swap3\n      pop\n        /* \"#utility.yul\":3276:3393   */\n      pop\n        /* \"#utility.yul\":3432:3434   */\n      0x20\n        /* \"#utility.yul\":3458:3511   */\n      tag_256\n        /* \"#utility.yul\":3503:3510   */\n      dup6\n        /* \"#utility.yul\":3494:3500   */\n      dup3\n        /* \"#utility.yul\":3483:3492   */\n      dup7\n        /* \"#utility.yul\":3479:3501   */\n      add\n        /* \"#utility.yul\":3458:3511   */\n      tag_176\n      jump\t// in\n    tag_256:\n        /* \"#utility.yul\":3448:3511   */\n      swap2\n      pop\n        /* \"#utility.yul\":3403:3521   */\n      pop\n        /* \"#utility.yul\":3054:3528   */\n      swap3\n      pop\n      swap3\n      swap1\n      pop\n      jump\t// out\n        /* \"#utility.yul\":3534:3611   */\n    tag_177:\n        /* \"#utility.yul\":3571:3578   */\n      0x00\n        /* \"#utility.yul\":3600:3605   */\n      dup2\n        /* \"#utility.yul\":3589:3605   */\n      swap1\n      pop\n        /* \"#utility.yul\":3534:3611   */\n      swap2\n      swap1\n      pop\n      jump\t// out\n        /* \"#utility.yul\":3617:3735   */\n    tag_178:\n        /* \"#utility.yul\":3704:3728   */\n      tag_259\n        /* \"#utility.yul\":3722:3727   */\n      dup2\n        /* \"#utility.yul\":3704:3728   */\n      tag_177\n      jump\t// in\n    tag_259:\n        /* \"#utility.yul\":3699:3702   */\n      dup3\n        /* \"#utility.yul\":3692:3729   */\n      mstore\n        /* \"#utility.yul\":3617:3735   */\n      pop\n      pop\n      jump\t// out\n        /* \"#utility.yul\":3741:3963   */\n    tag_31:\n        /* \"#utility.yul\":3834:3838   */\n      0x00\n        /* \"#utility.yul\":3872:3874   */\n      0x20\n        /* \"#utility.yul\":3861:3870   */\n      dup3\n        /* \"#utility.yul\":3857:3875   */\n      add\n        /* \"#utility.yul\":3849:3875   */\n      swap1\n      pop\n        /* \"#utility.yul\":3885:3956   */\n      tag_261\n        /* \"#utility.yul\":3953:3954   */\n      0x00\n        /* \"#utility.yul\":3942:3951   */\n      dup4\n        /* \"#utility.yul\":3938:3955   */\n      add\n        /* \"#utility.yul\":3929:3935   */\n      dup5\n        /* \"#utility.yul\":3885:3956   */\n      tag_178\n      jump\t// in\n    tag_261:\n        /* \"#utility.yul\":3741:3963   */\n      swap3\n      swap2\n      pop\n      pop\n      jump\t// out\n        /* \"#utility.yul\":3969:4112   */\n    tag_179:\n        /* \"#utility.yul\":4026:4031   */\n      0x00\n        /* \"#utility.yul\":4057:4063   */\n      dup2\n        /* \"#utility.yul\":4051:4064   */\n      mload\n        /* \"#utility.yul\":4042:4064   */\n      swap1\n      pop\n        /* \"#utility.yul\":4073:4106   */\n      tag_263\n        /* \"#utility.yul\":4100:4105   */\n      dup2\n        /* \"#utility.yul\":4073:4106   */\n      tag_175\n      jump\t// in\n    tag_263:\n        /* \"#utility.yul\":3969:4112   */\n      swap3\n      swap2\n      pop\n      pop\n      jump\t// out\n        /* \"#utility.yul\":4118:4469   */\n    tag_39:\n        /* \"#utility.yul\":4188:4194   */\n      0x00\n        /* \"#utility.yul\":4237:4239   */\n      0x20\n        /* \"#utility.yul\":4225:4234   */\n      dup3\n        /* \"#utility.yul\":4216:4223   */\n      dup5\n        /* \"#utility.yul\":4212:4235   */\n      sub\n        /* \"#utility.yul\":4208:4240   */\n      slt\n        /* \"#utility.yul\":4205:4324   */\n      iszero\n      tag_265\n      jumpi\n        /* \"#utility.yul\":4243:4322   */\n      tag_266\n      tag_166\n      jump\t// in\n    tag_266:\n        /* \"#utility.yul\":4205:4324   */\n    tag_265:\n        /* \"#utility.yul\":4363:4364   */\n      0x00\n        /* \"#utility.yul\":4388:4452   */\n      tag_267\n        /* \"#utility.yul\":4444:4451   */\n      dup5\n        /* \"#utility.yul\":4435:4441   */\n      dup3\n        /* \"#utility.yul\":4424:4433   */\n      dup6\n        /* \"#utility.yul\":4420:4442   */\n      add\n        /* \"#utility.yul\":4388:4452   */\n      tag_179\n      jump\t// in\n    tag_267:\n        /* \"#utility.yul\":4378:4452   */\n      swap2\n      pop\n        /* \"#utility.yul\":4334:4462   */\n      pop\n        /* \"#utility.yul\":4118:4469   */\n      swap3\n      swap2\n      pop\n      pop\n      jump\t// out\n        /* \"#utility.yul\":4475:4807   */\n    tag_42:\n        /* \"#utility.yul\":4596:4600   */\n      0x00\n        /* \"#utility.yul\":4634:4636   */\n      0x40\n        /* \"#utility.yul\":4623:4632   */\n      dup3\n        /* \"#utility.yul\":4619:4637   */\n      add\n        /* \"#utility.yul\":4611:4637   */\n      swap1\n      pop\n        /* \"#utility.yul\":4647:4718   */\n      tag_269\n        /* \"#utility.yul\":4715:4716   */\n      0x00\n        /* \"#utility.yul\":4704:4713   */\n      dup4\n        /* \"#utility.yul\":4700:4717   */\n      add\n        /* \"#utility.yul\":4691:4697   */\n      dup6\n        /* \"#utility.yul\":4647:4718   */\n      tag_174\n      jump\t// in\n    tag_269:\n        /* \"#utility.yul\":4728:4800   */\n      tag_270\n        /* \"#utility.yul\":4796:4798   */\n      0x20\n        /* \"#utility.yul\":4785:4794   */\n      dup4\n        /* \"#utility.yul\":4781:4799   */\n      add\n        /* \"#utility.yul\":4772:4778   */\n      dup5\n        /* \"#utility.yul\":4728:4800   */\n      tag_173\n      jump\t// in\n    tag_270:\n        /* \"#utility.yul\":4475:4807   */\n      swap4\n      swap3\n      pop\n      pop\n      pop\n      jump\t// out\n        /* \"#utility.yul\":4813:4903   */\n    tag_180:\n        /* \"#utility.yul\":4847:4854   */\n      0x00\n        /* \"#utility.yul\":4890:4895   */\n      dup2\n        /* \"#utility.yul\":4883:4896   */\n      iszero\n        /* \"#utility.yul\":4876:4897   */\n      iszero\n        /* \"#utility.yul\":4865:4897   */\n      swap1\n      pop\n        /* \"#utility.yul\":4813:4903   */\n      swap2\n      swap1\n      pop\n      jump\t// out\n        /* \"#utility.yul\":4909:5025   */\n    tag_181:\n        /* \"#utility.yul\":4979:5000   */\n      tag_273\n        /* \"#utility.yul\":4994:4999   */\n      dup2\n        /* \"#utility.yul\":4979:5000   */\n      tag_180\n      jump\t// in\n    tag_273:\n        /* \"#utility.yul\":4972:4977   */\n      dup2\n        /* \"#utility.yul\":4969:5001   */\n      eq\n        /* \"#utility.yul\":4959:5019   */\n      tag_274\n      jumpi\n        /* \"#utility.yul\":5015:5016   */\n      0x00\n        /* \"#utility.yul\":5012:5013   */\n      dup1\n        /* \"#utility.yul\":5005:5017   */\n      revert\n        /* \"#utility.yul\":4959:5019   */\n    tag_274:\n        /* \"#utility.yul\":4909:5025   */\n      pop\n      jump\t// out\n        /* \"#utility.yul\":5031:5168   */\n    tag_182:\n        /* \"#utility.yul\":5085:5090   */\n      0x00\n        /* \"#utility.yul\":5116:5122   */\n      dup2\n        /* \"#utility.yul\":5110:5123   */\n      mload\n        /* \"#utility.yul\":5101:5123   */\n      swap1\n      pop\n        /* \"#utility.yul\":5132:5162   */\n      tag_276\n        /* \"#utility.yul\":5156:5161   */\n      dup2\n        /* \"#utility.yul\":5132:5162   */\n      tag_181\n      jump\t// in\n    tag_276:\n        /* \"#utility.yul\":5031:5168   */\n      swap3\n      swap2\n      pop\n      pop\n      jump\t// out\n        /* \"#utility.yul\":5174:5519   */\n    tag_46:\n        /* \"#utility.yul\":5241:5247   */\n      0x00\n        /* \"#utility.yul\":5290:5292   */\n      0x20\n        /* \"#utility.yul\":5278:5287   */\n      dup3\n        /* \"#utility.yul\":5269:5276   */\n      dup5\n        /* \"#utility.yul\":5265:5288   */\n      sub\n        /* \"#utility.yul\":5261:5293   */\n      slt\n        /* \"#utility.yul\":5258:5377   */\n      iszero\n      tag_278\n      jumpi\n        /* \"#utility.yul\":5296:5375   */\n      tag_279\n      tag_166\n      jump\t// in\n    tag_279:\n        /* \"#utility.yul\":5258:5377   */\n    tag_278:\n        /* \"#utility.yul\":5416:5417   */\n      0x00\n        /* \"#utility.yul\":5441:5502   */\n      tag_280\n        /* \"#utility.yul\":5494:5501   */\n      dup5\n        /* \"#utility.yul\":5485:5491   */\n      dup3\n        /* \"#utility.yul\":5474:5483   */\n      dup6\n        /* \"#utility.yul\":5470:5492   */\n      add\n        /* \"#utility.yul\":5441:5502   */\n      tag_182\n      jump\t// in\n    tag_280:\n        /* \"#utility.yul\":5431:5502   */\n      swap2\n      pop\n        /* \"#utility.yul\":5387:5512   */\n      pop\n        /* \"#utility.yul\":5174:5519   */\n      swap3\n      swap2\n      pop\n      pop\n      jump\t// out\n        /* \"#utility.yul\":5525:5857   */\n    tag_58:\n        /* \"#utility.yul\":5646:5650   */\n      0x00\n        /* \"#utility.yul\":5684:5686   */\n      0x40\n        /* \"#utility.yul\":5673:5682   */\n      dup3\n        /* \"#utility.yul\":5669:5687   */\n      add\n        /* \"#utility.yul\":5661:5687   */\n      swap1\n      pop\n        /* \"#utility.yul\":5697:5768   */\n      tag_282\n        /* \"#utility.yul\":5765:5766   */\n      0x00\n        /* \"#utility.yul\":5754:5763   */\n      dup4\n        /* \"#utility.yul\":5750:5767   */\n      add\n        /* \"#utility.yul\":5741:5747   */\n      dup6\n        /* \"#utility.yul\":5697:5768   */\n      tag_174\n      jump\t// in\n    tag_282:\n        /* \"#utility.yul\":5778:5850   */\n      tag_283\n        /* \"#utility.yul\":5846:5848   */\n      0x20\n        /* \"#utility.yul\":5835:5844   */\n      dup4\n        /* \"#utility.yul\":5831:5849   */\n      add\n        /* \"#utility.yul\":5822:5828   */\n      dup5\n        /* \"#utility.yul\":5778:5850   */\n      tag_174\n      jump\t// in\n    tag_283:\n        /* \"#utility.yul\":5525:5857   */\n      swap4\n      swap3\n      pop\n      pop\n      pop\n      jump\t// out\n        /* \"#utility.yul\":5863:6043   */\n    tag_65:\n        /* \"#utility.yul\":5911:5988   */\n      0x4e487b7100000000000000000000000000000000000000000000000000000000\n        /* \"#utility.yul\":5908:5909   */\n      0x00\n        /* \"#utility.yul\":5901:5989   */\n      mstore\n        /* \"#utility.yul\":6008:6012   */\n      0x41\n        /* \"#utility.yul\":6005:6006   */\n      0x04\n        /* \"#utility.yul\":5998:6013   */\n      mstore\n        /* \"#utility.yul\":6032:6036   */\n      0x24\n        /* \"#utility.yul\":6029:6030   */\n      0x00\n        /* \"#utility.yul\":6022:6037   */\n      revert\n        /* \"#utility.yul\":6049:6229   */\n    tag_72:\n        /* \"#utility.yul\":6097:6174   */\n      0x4e487b7100000000000000000000000000000000000000000000000000000000\n        /* \"#utility.yul\":6094:6095   */\n      0x00\n        /* \"#utility.yul\":6087:6175   */\n      mstore\n        /* \"#utility.yul\":6194:6198   */\n      0x32\n        /* \"#utility.yul\":6191:6192   */\n      0x04\n        /* \"#utility.yul\":6184:6199   */\n      mstore\n        /* \"#utility.yul\":6218:6222   */\n      0x24\n        /* \"#utility.yul\":6215:6216   */\n      0x00\n        /* \"#utility.yul\":6208:6223   */\n      revert\n        /* \"#utility.yul\":6235:6336   */\n    tag_183:\n        /* \"#utility.yul\":6271:6278   */\n      0x00\n        /* \"#utility.yul\":6311:6329   */\n      0xffffffffffffffff\n        /* \"#utility.yul\":6304:6309   */\n      dup3\n        /* \"#utility.yul\":6300:6330   */\n      and\n        /* \"#utility.yul\":6289:6330   */\n      swap1\n      pop\n        /* \"#utility.yul\":6235:6336   */\n      swap2\n      swap1\n      pop\n      jump\t// out\n        /* \"#utility.yul\":6342:6457   */\n    tag_184:\n        /* \"#utility.yul\":6427:6450   */\n      tag_288\n        /* \"#utility.yul\":6444:6449   */\n      dup2\n        /* \"#utility.yul\":6427:6450   */\n      tag_183\n      jump\t// in\n    tag_288:\n        /* \"#utility.yul\":6422:6425   */\n      dup3\n        /* \"#utility.yul\":6415:6451   */\n      mstore\n        /* \"#utility.yul\":6342:6457   */\n      pop\n      pop\n      jump\t// out\n        /* \"#utility.yul\":6463:6561   */\n    tag_185:\n        /* \"#utility.yul\":6514:6520   */\n      0x00\n        /* \"#utility.yul\":6548:6553   */\n      dup2\n        /* \"#utility.yul\":6542:6554   */\n      mload\n        /* \"#utility.yul\":6532:6554   */\n      swap1\n      pop\n        /* \"#utility.yul\":6463:6561   */\n      swap2\n      swap1\n      pop\n      jump\t// out\n        /* \"#utility.yul\":6567:6725   */\n    tag_186:\n        /* \"#utility.yul\":6640:6651   */\n      0x00\n        /* \"#utility.yul\":6674:6680   */\n      dup3\n        /* \"#utility.yul\":6669:6672   */\n      dup3\n        /* \"#utility.yul\":6662:6681   */\n      mstore\n        /* \"#utility.yul\":6714:6718   */\n      0x20\n        /* \"#utility.yul\":6709:6712   */\n      dup3\n        /* \"#utility.yul\":6705:6719   */\n      add\n        /* \"#utility.yul\":6690:6719   */\n      swap1\n      pop\n        /* \"#utility.yul\":6567:6725   */\n      swap3\n      swap2\n      pop\n      pop\n      jump\t// out\n        /* \"#utility.yul\":6731:6977   */\n    tag_187:\n        /* \"#utility.yul\":6812:6813   */\n      0x00\n        /* \"#utility.yul\":6822:6935   */\n    tag_292:\n        /* \"#utility.yul\":6836:6842   */\n      dup4\n        /* \"#utility.yul\":6833:6834   */\n      dup2\n        /* \"#utility.yul\":6830:6843   */\n      lt\n        /* \"#utility.yul\":6822:6935   */\n      iszero\n      tag_294\n      jumpi\n        /* \"#utility.yul\":6921:6922   */\n      dup1\n        /* \"#utility.yul\":6916:6919   */\n      dup3\n        /* \"#utility.yul\":6912:6923   */\n      add\n        /* \"#utility.yul\":6906:6924   */\n      mload\n        /* \"#utility.yul\":6902:6903   */\n      dup2\n        /* \"#utility.yul\":6897:6900   */\n      dup5\n        /* \"#utility.yul\":6893:6904   */\n      add\n        /* \"#utility.yul\":6886:6925   */\n      mstore\n        /* \"#utility.yul\":6858:6860   */\n      0x20\n        /* \"#utility.yul\":6855:6856   */\n      dup2\n        /* \"#utility.yul\":6851:6861   */\n      add\n        /* \"#utility.yul\":6846:6861   */\n      swap1\n      pop\n        /* \"#utility.yul\":6822:6935   */\n      jump(tag_292)\n    tag_294:\n        /* \"#utility.yul\":6969:6970   */\n      0x00\n        /* \"#utility.yul\":6960:6966   */\n      dup5\n        /* \"#utility.yul\":6955:6958   */\n      dup5\n        /* \"#utility.yul\":6951:6967   */\n      add\n        /* \"#utility.yul\":6944:6971   */\n      mstore\n        /* \"#utility.yul\":6793:6977   */\n      pop\n        /* \"#utility.yul\":6731:6977   */\n      pop\n      pop\n      pop\n      jump\t// out\n        /* \"#utility.yul\":6983:7085   */\n    tag_188:\n        /* \"#utility.yul\":7024:7030   */\n      0x00\n        /* \"#utility.yul\":7075:7077   */\n      0x1f\n        /* \"#utility.yul\":7071:7078   */\n      not\n        /* \"#utility.yul\":7066:7068   */\n      0x1f\n        /* \"#utility.yul\":7059:7064   */\n      dup4\n        /* \"#utility.yul\":7055:7069   */\n      add\n        /* \"#utility.yul\":7051:7079   */\n      and\n        /* \"#utility.yul\":7041:7079   */\n      swap1\n      pop\n        /* \"#utility.yul\":6983:7085   */\n      swap2\n      swap1\n      pop\n      jump\t// out\n        /* \"#utility.yul\":7091:7444   */\n    tag_189:\n        /* \"#utility.yul\":7167:7170   */\n      0x00\n        /* \"#utility.yul\":7195:7233   */\n      tag_297\n        /* \"#utility.yul\":7227:7232   */\n      dup3\n        /* \"#utility.yul\":7195:7233   */\n      tag_185\n      jump\t// in\n    tag_297:\n        /* \"#utility.yul\":7249:7309   */\n      tag_298\n        /* \"#utility.yul\":7302:7308   */\n      dup2\n        /* \"#utility.yul\":7297:7300   */\n      dup6\n        /* \"#utility.yul\":7249:7309   */\n      tag_186\n      jump\t// in\n    tag_298:\n        /* \"#utility.yul\":7242:7309   */\n      swap4\n      pop\n        /* \"#utility.yul\":7318:7383   */\n      tag_299\n        /* \"#utility.yul\":7376:7382   */\n      dup2\n        /* \"#utility.yul\":7371:7374   */\n      dup6\n        /* \"#utility.yul\":7364:7368   */\n      0x20\n        /* \"#utility.yul\":7357:7362   */\n      dup7\n        /* \"#utility.yul\":7353:7369   */\n      add\n        /* \"#utility.yul\":7318:7383   */\n      tag_187\n      jump\t// in\n    tag_299:\n        /* \"#utility.yul\":7408:7437   */\n      tag_300\n        /* \"#utility.yul\":7430:7436   */\n      dup2\n        /* \"#utility.yul\":7408:7437   */\n      tag_188\n      jump\t// in\n    tag_300:\n        /* \"#utility.yul\":7403:7406   */\n      dup5\n        /* \"#utility.yul\":7399:7438   */\n      add\n        /* \"#utility.yul\":7392:7438   */\n      swap2\n      pop\n        /* \"#utility.yul\":7171:7444   */\n      pop\n        /* \"#utility.yul\":7091:7444   */\n      swap3\n      swap2\n      pop\n      pop\n      jump\t// out\n        /* \"#utility.yul\":7450:7594   */\n    tag_190:\n        /* \"#utility.yul\":7547:7553   */\n      0x00\n        /* \"#utility.yul\":7581:7586   */\n      dup2\n        /* \"#utility.yul\":7575:7587   */\n      mload\n        /* \"#utility.yul\":7565:7587   */\n      swap1\n      pop\n        /* \"#utility.yul\":7450:7594   */\n      swap2\n      swap1\n      pop\n      jump\t// out\n        /* \"#utility.yul\":7600:7804   */\n    tag_191:\n        /* \"#utility.yul\":7719:7730   */\n      0x00\n        /* \"#utility.yul\":7753:7759   */\n      dup3\n        /* \"#utility.yul\":7748:7751   */\n      dup3\n        /* \"#utility.yul\":7741:7760   */\n      mstore\n        /* \"#utility.yul\":7793:7797   */\n      0x20\n        /* \"#utility.yul\":7788:7791   */\n      dup3\n        /* \"#utility.yul\":7784:7798   */\n      add\n        /* \"#utility.yul\":7769:7798   */\n      swap1\n      pop\n        /* \"#utility.yul\":7600:7804   */\n      swap3\n      swap2\n      pop\n      pop\n      jump\t// out\n        /* \"#utility.yul\":7810:7972   */\n    tag_192:\n        /* \"#utility.yul\":7907:7911   */\n      0x00\n        /* \"#utility.yul\":7930:7933   */\n      dup2\n        /* \"#utility.yul\":7922:7933   */\n      swap1\n      pop\n        /* \"#utility.yul\":7960:7964   */\n      0x20\n        /* \"#utility.yul\":7955:7958   */\n      dup3\n        /* \"#utility.yul\":7951:7965   */\n      add\n        /* \"#utility.yul\":7943:7965   */\n      swap1\n      pop\n        /* \"#utility.yul\":7810:7972   */\n      swap2\n      swap1\n      pop\n      jump\t// out\n        /* \"#utility.yul\":7978:8086   */\n    tag_193:\n        /* \"#utility.yul\":8055:8079   */\n      tag_305\n        /* \"#utility.yul\":8073:8078   */\n      dup2\n        /* \"#utility.yul\":8055:8079   */\n      tag_169\n      jump\t// in\n    tag_305:\n        /* \"#utility.yul\":8050:8053   */\n      dup3\n        /* \"#utility.yul\":8043:8080   */\n      mstore\n        /* \"#utility.yul\":7978:8086   */\n      pop\n      pop\n      jump\t// out\n        /* \"#utility.yul\":8092:8200   */\n    tag_194:\n        /* \"#utility.yul\":8169:8193   */\n      tag_307\n        /* \"#utility.yul\":8187:8192   */\n      dup2\n        /* \"#utility.yul\":8169:8193   */\n      tag_172\n      jump\t// in\n    tag_307:\n        /* \"#utility.yul\":8164:8167   */\n      dup3\n        /* \"#utility.yul\":8157:8194   */\n      mstore\n        /* \"#utility.yul\":8092:8200   */\n      pop\n      pop\n      jump\t// out\n        /* \"#utility.yul\":8274:8784   */\n    tag_195:\n        /* \"#utility.yul\":8421:8425   */\n      0x40\n        /* \"#utility.yul\":8416:8419   */\n      dup3\n        /* \"#utility.yul\":8412:8426   */\n      add\n        /* \"#utility.yul\":8509:8513   */\n      0x00\n        /* \"#utility.yul\":8502:8507   */\n      dup3\n        /* \"#utility.yul\":8498:8514   */\n      add\n        /* \"#utility.yul\":8492:8515   */\n      mload\n        /* \"#utility.yul\":8528:8591   */\n      tag_309\n        /* \"#utility.yul\":8585:8589   */\n      0x00\n        /* \"#utility.yul\":8580:8583   */\n      dup6\n        /* \"#utility.yul\":8576:8590   */\n      add\n        /* \"#utility.yul\":8562:8574   */\n      dup3\n        /* \"#utility.yul\":8528:8591   */\n      tag_193\n      jump\t// in\n    tag_309:\n        /* \"#utility.yul\":8436:8601   */\n      pop\n        /* \"#utility.yul\":8685:8689   */\n      0x20\n        /* \"#utility.yul\":8678:8683   */\n      dup3\n        /* \"#utility.yul\":8674:8690   */\n      add\n        /* \"#utility.yul\":8668:8691   */\n      mload\n        /* \"#utility.yul\":8704:8767   */\n      tag_310\n        /* \"#utility.yul\":8761:8765   */\n      0x20\n        /* \"#utility.yul\":8756:8759   */\n      dup6\n        /* \"#utility.yul\":8752:8766   */\n      add\n        /* \"#utility.yul\":8738:8750   */\n      dup3\n        /* \"#utility.yul\":8704:8767   */\n      tag_194\n      jump\t// in\n    tag_310:\n        /* \"#utility.yul\":8611:8777   */\n      pop\n        /* \"#utility.yul\":8390:8784   */\n      pop\n        /* \"#utility.yul\":8274:8784   */\n      pop\n      pop\n      jump\t// out\n        /* \"#utility.yul\":8790:9089   */\n    tag_196:\n        /* \"#utility.yul\":8919:8929   */\n      0x00\n        /* \"#utility.yul\":8940:9046   */\n      tag_312\n        /* \"#utility.yul\":9042:9045   */\n      dup4\n        /* \"#utility.yul\":9034:9040   */\n      dup4\n        /* \"#utility.yul\":8940:9046   */\n      tag_195\n      jump\t// in\n    tag_312:\n        /* \"#utility.yul\":9078:9082   */\n      0x40\n        /* \"#utility.yul\":9073:9076   */\n      dup4\n        /* \"#utility.yul\":9069:9083   */\n      add\n        /* \"#utility.yul\":9055:9083   */\n      swap1\n      pop\n        /* \"#utility.yul\":8790:9089   */\n      swap3\n      swap2\n      pop\n      pop\n      jump\t// out\n        /* \"#utility.yul\":9095:9238   */\n    tag_197:\n        /* \"#utility.yul\":9195:9199   */\n      0x00\n        /* \"#utility.yul\":9227:9231   */\n      0x20\n        /* \"#utility.yul\":9222:9225   */\n      dup3\n        /* \"#utility.yul\":9218:9232   */\n      add\n        /* \"#utility.yul\":9210:9232   */\n      swap1\n      pop\n        /* \"#utility.yul\":9095:9238   */\n      swap2\n      swap1\n      pop\n      jump\t// out\n        /* \"#utility.yul\":9316:10268   */\n    tag_198:\n        /* \"#utility.yul\":9485:9488   */\n      0x00\n        /* \"#utility.yul\":9514:9598   */\n      tag_315\n        /* \"#utility.yul\":9592:9597   */\n      dup3\n        /* \"#utility.yul\":9514:9598   */\n      tag_190\n      jump\t// in\n    tag_315:\n        /* \"#utility.yul\":9614:9720   */\n      tag_316\n        /* \"#utility.yul\":9713:9719   */\n      dup2\n        /* \"#utility.yul\":9708:9711   */\n      dup6\n        /* \"#utility.yul\":9614:9720   */\n      tag_191\n      jump\t// in\n    tag_316:\n        /* \"#utility.yul\":9607:9720   */\n      swap4\n      pop\n        /* \"#utility.yul\":9744:9830   */\n      tag_317\n        /* \"#utility.yul\":9824:9829   */\n      dup4\n        /* \"#utility.yul\":9744:9830   */\n      tag_192\n      jump\t// in\n    tag_317:\n        /* \"#utility.yul\":9853:9860   */\n      dup1\n        /* \"#utility.yul\":9884:9885   */\n      0x00\n        /* \"#utility.yul\":9869:10243   */\n    tag_318:\n        /* \"#utility.yul\":9894:9900   */\n      dup4\n        /* \"#utility.yul\":9891:9892   */\n      dup2\n        /* \"#utility.yul\":9888:9901   */\n      lt\n        /* \"#utility.yul\":9869:10243   */\n      iszero\n      tag_320\n      jumpi\n        /* \"#utility.yul\":9970:9976   */\n      dup2\n        /* \"#utility.yul\":9964:9977   */\n      mload\n        /* \"#utility.yul\":9997:10120   */\n      tag_321\n        /* \"#utility.yul\":10116:10119   */\n      dup9\n        /* \"#utility.yul\":10101:10114   */\n      dup3\n        /* \"#utility.yul\":9997:10120   */\n      tag_196\n      jump\t// in\n    tag_321:\n        /* \"#utility.yul\":9990:10120   */\n      swap8\n      pop\n        /* \"#utility.yul\":10143:10233   */\n      tag_322\n        /* \"#utility.yul\":10226:10232   */\n      dup4\n        /* \"#utility.yul\":10143:10233   */\n      tag_197\n      jump\t// in\n    tag_322:\n        /* \"#utility.yul\":10133:10233   */\n      swap3\n      pop\n        /* \"#utility.yul\":9929:10243   */\n      pop\n        /* \"#utility.yul\":9916:9917   */\n      0x01\n        /* \"#utility.yul\":9913:9914   */\n      dup2\n        /* \"#utility.yul\":9909:9918   */\n      add\n        /* \"#utility.yul\":9904:9918   */\n      swap1\n      pop\n        /* \"#utility.yul\":9869:10243   */\n      jump(tag_318)\n    tag_320:\n        /* \"#utility.yul\":9873:9887   */\n      pop\n        /* \"#utility.yul\":10259:10262   */\n      dup6\n        /* \"#utility.yul\":10252:10262   */\n      swap4\n      pop\n        /* \"#utility.yul\":9490:10268   */\n      pop\n      pop\n      pop\n        /* \"#utility.yul\":9316:10268   */\n      swap3\n      swap2\n      pop\n      pop\n      jump\t// out\n        /* \"#utility.yul\":10342:11798   */\n    tag_199:\n        /* \"#utility.yul\":10471:10474   */\n      0x00\n        /* \"#utility.yul\":10507:10511   */\n      0xa0\n        /* \"#utility.yul\":10502:10505   */\n      dup4\n        /* \"#utility.yul\":10498:10512   */\n      add\n        /* \"#utility.yul\":10598:10602   */\n      0x00\n        /* \"#utility.yul\":10591:10596   */\n      dup4\n        /* \"#utility.yul\":10587:10603   */\n      add\n        /* \"#utility.yul\":10581:10604   */\n      mload\n        /* \"#utility.yul\":10651:10654   */\n      dup5\n        /* \"#utility.yul\":10645:10649   */\n      dup3\n        /* \"#utility.yul\":10641:10655   */\n      sub\n        /* \"#utility.yul\":10634:10638   */\n      0x00\n        /* \"#utility.yul\":10629:10632   */\n      dup7\n        /* \"#utility.yul\":10625:10639   */\n      add\n        /* \"#utility.yul\":10618:10656   */\n      mstore\n        /* \"#utility.yul\":10677:10748   */\n      tag_324\n        /* \"#utility.yul\":10743:10747   */\n      dup3\n        /* \"#utility.yul\":10729:10741   */\n      dup3\n        /* \"#utility.yul\":10677:10748   */\n      tag_189\n      jump\t// in\n    tag_324:\n        /* \"#utility.yul\":10669:10748   */\n      swap2\n      pop\n        /* \"#utility.yul\":10522:10759   */\n      pop\n        /* \"#utility.yul\":10841:10845   */\n      0x20\n        /* \"#utility.yul\":10834:10839   */\n      dup4\n        /* \"#utility.yul\":10830:10846   */\n      add\n        /* \"#utility.yul\":10824:10847   */\n      mload\n        /* \"#utility.yul\":10894:10897   */\n      dup5\n        /* \"#utility.yul\":10888:10892   */\n      dup3\n        /* \"#utility.yul\":10884:10898   */\n      sub\n        /* \"#utility.yul\":10877:10881   */\n      0x20\n        /* \"#utility.yul\":10872:10875   */\n      dup7\n        /* \"#utility.yul\":10868:10882   */\n      add\n        /* \"#utility.yul\":10861:10899   */\n      mstore\n        /* \"#utility.yul\":10920:10991   */\n      tag_325\n        /* \"#utility.yul\":10986:10990   */\n      dup3\n        /* \"#utility.yul\":10972:10984   */\n      dup3\n        /* \"#utility.yul\":10920:10991   */\n      tag_189\n      jump\t// in\n    tag_325:\n        /* \"#utility.yul\":10912:10991   */\n      swap2\n      pop\n        /* \"#utility.yul\":10769:11002   */\n      pop\n        /* \"#utility.yul\":11092:11096   */\n      0x40\n        /* \"#utility.yul\":11085:11090   */\n      dup4\n        /* \"#utility.yul\":11081:11097   */\n      add\n        /* \"#utility.yul\":11075:11098   */\n      mload\n        /* \"#utility.yul\":11145:11148   */\n      dup5\n        /* \"#utility.yul\":11139:11143   */\n      dup3\n        /* \"#utility.yul\":11135:11149   */\n      sub\n        /* \"#utility.yul\":11128:11132   */\n      0x40\n        /* \"#utility.yul\":11123:11126   */\n      dup7\n        /* \"#utility.yul\":11119:11133   */\n      add\n        /* \"#utility.yul\":11112:11150   */\n      mstore\n        /* \"#utility.yul\":11171:11334   */\n      tag_326\n        /* \"#utility.yul\":11329:11333   */\n      dup3\n        /* \"#utility.yul\":11315:11327   */\n      dup3\n        /* \"#utility.yul\":11171:11334   */\n      tag_198\n      jump\t// in\n    tag_326:\n        /* \"#utility.yul\":11163:11334   */\n      swap2\n      pop\n        /* \"#utility.yul\":11012:11345   */\n      pop\n        /* \"#utility.yul\":11431:11435   */\n      0x60\n        /* \"#utility.yul\":11424:11429   */\n      dup4\n        /* \"#utility.yul\":11420:11436   */\n      add\n        /* \"#utility.yul\":11414:11437   */\n      mload\n        /* \"#utility.yul\":11450:11513   */\n      tag_327\n        /* \"#utility.yul\":11507:11511   */\n      0x60\n        /* \"#utility.yul\":11502:11505   */\n      dup7\n        /* \"#utility.yul\":11498:11512   */\n      add\n        /* \"#utility.yul\":11484:11496   */\n      dup3\n        /* \"#utility.yul\":11450:11513   */\n      tag_193\n      jump\t// in\n    tag_327:\n        /* \"#utility.yul\":11355:11523   */\n      pop\n        /* \"#utility.yul\":11610:11614   */\n      0x80\n        /* \"#utility.yul\":11603:11608   */\n      dup4\n        /* \"#utility.yul\":11599:11615   */\n      add\n        /* \"#utility.yul\":11593:11616   */\n      mload\n        /* \"#utility.yul\":11663:11666   */\n      dup5\n        /* \"#utility.yul\":11657:11661   */\n      dup3\n        /* \"#utility.yul\":11653:11667   */\n      sub\n        /* \"#utility.yul\":11646:11650   */\n      0x80\n        /* \"#utility.yul\":11641:11644   */\n      dup7\n        /* \"#utility.yul\":11637:11651   */\n      add\n        /* \"#utility.yul\":11630:11668   */\n      mstore\n        /* \"#utility.yul\":11689:11760   */\n      tag_328\n        /* \"#utility.yul\":11755:11759   */\n      dup3\n        /* \"#utility.yul\":11741:11753   */\n      dup3\n        /* \"#utility.yul\":11689:11760   */\n      tag_189\n      jump\t// in\n    tag_328:\n        /* \"#utility.yul\":11681:11760   */\n      swap2\n      pop\n        /* \"#utility.yul\":11533:11771   */\n      pop\n        /* \"#utility.yul\":11788:11792   */\n      dup1\n        /* \"#utility.yul\":11781:11792   */\n      swap2\n      pop\n        /* \"#utility.yul\":10476:11798   */\n      pop\n        /* \"#utility.yul\":10342:11798   */\n      swap3\n      swap2\n      pop\n      pop\n      jump\t// out\n        /* \"#utility.yul\":11804:12303   */\n    tag_77:\n        /* \"#utility.yul\":11983:11987   */\n      0x00\n        /* \"#utility.yul\":12021:12023   */\n      0x40\n        /* \"#utility.yul\":12010:12019   */\n      dup3\n        /* \"#utility.yul\":12006:12024   */\n      add\n        /* \"#utility.yul\":11998:12024   */\n      swap1\n      pop\n        /* \"#utility.yul\":12034:12103   */\n      tag_330\n        /* \"#utility.yul\":12100:12101   */\n      0x00\n        /* \"#utility.yul\":12089:12098   */\n      dup4\n        /* \"#utility.yul\":12085:12102   */\n      add\n        /* \"#utility.yul\":12076:12082   */\n      dup6\n        /* \"#utility.yul\":12034:12103   */\n      tag_184\n      jump\t// in\n    tag_330:\n        /* \"#utility.yul\":12150:12159   */\n      dup2\n        /* \"#utility.yul\":12144:12148   */\n      dup2\n        /* \"#utility.yul\":12140:12160   */\n      sub\n        /* \"#utility.yul\":12135:12137   */\n      0x20\n        /* \"#utility.yul\":12124:12133   */\n      dup4\n        /* \"#utility.yul\":12120:12138   */\n      add\n        /* \"#utility.yul\":12113:12161   */\n      mstore\n        /* \"#utility.yul\":12178:12296   */\n      tag_331\n        /* \"#utility.yul\":12291:12295   */\n      dup2\n        /* \"#utility.yul\":12282:12288   */\n      dup5\n        /* \"#utility.yul\":12178:12296   */\n      tag_199\n      jump\t// in\n    tag_331:\n        /* \"#utility.yul\":12170:12296   */\n      swap1\n      pop\n        /* \"#utility.yul\":11804:12303   */\n      swap4\n      swap3\n      pop\n      pop\n      pop\n      jump\t// out\n        /* \"#utility.yul\":12309:12431   */\n    tag_200:\n        /* \"#utility.yul\":12382:12406   */\n      tag_333\n        /* \"#utility.yul\":12400:12405   */\n      dup2\n        /* \"#utility.yul\":12382:12406   */\n      tag_177\n      jump\t// in\n    tag_333:\n        /* \"#utility.yul\":12375:12380   */\n      dup2\n        /* \"#utility.yul\":12372:12407   */\n      eq\n        /* \"#utility.yul\":12362:12425   */\n      tag_334\n      jumpi\n        /* \"#utility.yul\":12421:12422   */\n      0x00\n        /* \"#utility.yul\":12418:12419   */\n      dup1\n        /* \"#utility.yul\":12411:12423   */\n      revert\n        /* \"#utility.yul\":12362:12425   */\n    tag_334:\n        /* \"#utility.yul\":12309:12431   */\n      pop\n      jump\t// out\n        /* \"#utility.yul\":12437:12580   */\n    tag_201:\n        /* \"#utility.yul\":12494:12499   */\n      0x00\n        /* \"#utility.yul\":12525:12531   */\n      dup2\n        /* \"#utility.yul\":12519:12532   */\n      mload\n        /* \"#utility.yul\":12510:12532   */\n      swap1\n      pop\n        /* \"#utility.yul\":12541:12574   */\n      tag_336\n        /* \"#utility.yul\":12568:12573   */\n      dup2\n        /* \"#utility.yul\":12541:12574   */\n      tag_200\n      jump\t// in\n    tag_336:\n        /* \"#utility.yul\":12437:12580   */\n      swap3\n      swap2\n      pop\n      pop\n      jump\t// out\n        /* \"#utility.yul\":12586:12937   */\n    tag_115:\n        /* \"#utility.yul\":12656:12662   */\n      0x00\n        /* \"#utility.yul\":12705:12707   */\n      0x20\n        /* \"#utility.yul\":12693:12702   */\n      dup3\n        /* \"#utility.yul\":12684:12691   */\n      dup5\n        /* \"#utility.yul\":12680:12703   */\n      sub\n        /* \"#utility.yul\":12676:12708   */\n      slt\n        /* \"#utility.yul\":12673:12792   */\n      iszero\n      tag_338\n      jumpi\n        /* \"#utility.yul\":12711:12790   */\n      tag_339\n      tag_166\n      jump\t// in\n    tag_339:\n        /* \"#utility.yul\":12673:12792   */\n    tag_338:\n        /* \"#utility.yul\":12831:12832   */\n      0x00\n        /* \"#utility.yul\":12856:12920   */\n      tag_340\n        /* \"#utility.yul\":12912:12919   */\n      dup5\n        /* \"#utility.yul\":12903:12909   */\n      dup3\n        /* \"#utility.yul\":12892:12901   */\n      dup6\n        /* \"#utility.yul\":12888:12910   */\n      add\n        /* \"#utility.yul\":12856:12920   */\n      tag_201\n      jump\t// in\n    tag_340:\n        /* \"#utility.yul\":12846:12920   */\n      swap2\n      pop\n        /* \"#utility.yul\":12802:12930   */\n      pop\n        /* \"#utility.yul\":12586:12937   */\n      swap3\n      swap2\n      pop\n      pop\n      jump\t// out\n        /* \"#utility.yul\":12943:13603   */\n    tag_117:\n        /* \"#utility.yul\":13146:13150   */\n      0x00\n        /* \"#utility.yul\":13184:13187   */\n      0xa0\n        /* \"#utility.yul\":13173:13182   */\n      dup3\n        /* \"#utility.yul\":13169:13188   */\n      add\n        /* \"#utility.yul\":13161:13188   */\n      swap1\n      pop\n        /* \"#utility.yul\":13198:13269   */\n      tag_342\n        /* \"#utility.yul\":13266:13267   */\n      0x00\n        /* \"#utility.yul\":13255:13264   */\n      dup4\n        /* \"#utility.yul\":13251:13268   */\n      add\n        /* \"#utility.yul\":13242:13248   */\n      dup9\n        /* \"#utility.yul\":13198:13269   */\n      tag_178\n      jump\t// in\n    tag_342:\n        /* \"#utility.yul\":13279:13349   */\n      tag_343\n        /* \"#utility.yul\":13345:13347   */\n      0x20\n        /* \"#utility.yul\":13334:13343   */\n      dup4\n        /* \"#utility.yul\":13330:13348   */\n      add\n        /* \"#utility.yul\":13321:13327   */\n      dup8\n        /* \"#utility.yul\":13279:13349   */\n      tag_184\n      jump\t// in\n    tag_343:\n        /* \"#utility.yul\":13359:13431   */\n      tag_344\n        /* \"#utility.yul\":13427:13429   */\n      0x40\n        /* \"#utility.yul\":13416:13425   */\n      dup4\n        /* \"#utility.yul\":13412:13430   */\n      add\n        /* \"#utility.yul\":13403:13409   */\n      dup7\n        /* \"#utility.yul\":13359:13431   */\n      tag_174\n      jump\t// in\n    tag_344:\n        /* \"#utility.yul\":13441:13513   */\n      tag_345\n        /* \"#utility.yul\":13509:13511   */\n      0x60\n        /* \"#utility.yul\":13498:13507   */\n      dup4\n        /* \"#utility.yul\":13494:13512   */\n      add\n        /* \"#utility.yul\":13485:13491   */\n      dup6\n        /* \"#utility.yul\":13441:13513   */\n      tag_173\n      jump\t// in\n    tag_345:\n        /* \"#utility.yul\":13523:13596   */\n      tag_346\n        /* \"#utility.yul\":13591:13594   */\n      0x80\n        /* \"#utility.yul\":13580:13589   */\n      dup4\n        /* \"#utility.yul\":13576:13595   */\n      add\n        /* \"#utility.yul\":13567:13573   */\n      dup5\n        /* \"#utility.yul\":13523:13596   */\n      tag_173\n      jump\t// in\n    tag_346:\n        /* \"#utility.yul\":12943:13603   */\n      swap7\n      swap6\n      pop\n      pop\n      pop\n      pop\n      pop\n      pop\n      jump\t// out\n        /* \"#utility.yul\":13677:14024   */\n    tag_202:\n        /* \"#utility.yul\":13834:13838   */\n      0x20\n        /* \"#utility.yul\":13829:13832   */\n      dup3\n        /* \"#utility.yul\":13825:13839   */\n      add\n        /* \"#utility.yul\":13925:13929   */\n      0x00\n        /* \"#utility.yul\":13918:13923   */\n      dup3\n        /* \"#utility.yul\":13914:13930   */\n      add\n        /* \"#utility.yul\":13908:13931   */\n      mload\n        /* \"#utility.yul\":13944:14007   */\n      tag_348\n        /* \"#utility.yul\":14001:14005   */\n      0x00\n        /* \"#utility.yul\":13996:13999   */\n      dup6\n        /* \"#utility.yul\":13992:14006   */\n      add\n        /* \"#utility.yul\":13978:13990   */\n      dup3\n        /* \"#utility.yul\":13944:14007   */\n      tag_194\n      jump\t// in\n    tag_348:\n        /* \"#utility.yul\":13849:14017   */\n      pop\n        /* \"#utility.yul\":13803:14024   */\n      pop\n        /* \"#utility.yul\":13677:14024   */\n      pop\n      pop\n      jump\t// out\n        /* \"#utility.yul\":14030:14372   */\n    tag_120:\n        /* \"#utility.yul\":14183:14187   */\n      0x00\n        /* \"#utility.yul\":14221:14223   */\n      0x20\n        /* \"#utility.yul\":14210:14219   */\n      dup3\n        /* \"#utility.yul\":14206:14224   */\n      add\n        /* \"#utility.yul\":14198:14224   */\n      swap1\n      pop\n        /* \"#utility.yul\":14234:14365   */\n      tag_350\n        /* \"#utility.yul\":14362:14363   */\n      0x00\n        /* \"#utility.yul\":14351:14360   */\n      dup4\n        /* \"#utility.yul\":14347:14364   */\n      add\n        /* \"#utility.yul\":14338:14344   */\n      dup5\n        /* \"#utility.yul\":14234:14365   */\n      tag_202\n      jump\t// in\n    tag_350:\n        /* \"#utility.yul\":14030:14372   */\n      swap3\n      swap2\n      pop\n      pop\n      jump\t// out\n        /* \"#utility.yul\":14378:14820   */\n    tag_124:\n        /* \"#utility.yul\":14527:14531   */\n      0x00\n        /* \"#utility.yul\":14565:14567   */\n      0x60\n        /* \"#utility.yul\":14554:14563   */\n      dup3\n        /* \"#utility.yul\":14550:14568   */\n      add\n        /* \"#utility.yul\":14542:14568   */\n      swap1\n      pop\n        /* \"#utility.yul\":14578:14649   */\n      tag_352\n        /* \"#utility.yul\":14646:14647   */\n      0x00\n        /* \"#utility.yul\":14635:14644   */\n      dup4\n        /* \"#utility.yul\":14631:14648   */\n      add\n        /* \"#utility.yul\":14622:14628   */\n      dup7\n        /* \"#utility.yul\":14578:14649   */\n      tag_174\n      jump\t// in\n    tag_352:\n        /* \"#utility.yul\":14659:14731   */\n      tag_353\n        /* \"#utility.yul\":14727:14729   */\n      0x20\n        /* \"#utility.yul\":14716:14725   */\n      dup4\n        /* \"#utility.yul\":14712:14730   */\n      add\n        /* \"#utility.yul\":14703:14709   */\n      dup6\n        /* \"#utility.yul\":14659:14731   */\n      tag_174\n      jump\t// in\n    tag_353:\n        /* \"#utility.yul\":14741:14813   */\n      tag_354\n        /* \"#utility.yul\":14809:14811   */\n      0x40\n        /* \"#utility.yul\":14798:14807   */\n      dup4\n        /* \"#utility.yul\":14794:14812   */\n      add\n        /* \"#utility.yul\":14785:14791   */\n      dup5\n        /* \"#utility.yul\":14741:14813   */\n      tag_173\n      jump\t// in\n    tag_354:\n        /* \"#utility.yul\":14378:14820   */\n      swap5\n      swap4\n      pop\n      pop\n      pop\n      pop\n      jump\t// out\n        /* \"#utility.yul\":14826:14995   */\n    tag_203:\n        /* \"#utility.yul\":14910:14921   */\n      0x00\n        /* \"#utility.yul\":14944:14950   */\n      dup3\n        /* \"#utility.yul\":14939:14942   */\n      dup3\n        /* \"#utility.yul\":14932:14951   */\n      mstore\n        /* \"#utility.yul\":14984:14988   */\n      0x20\n        /* \"#utility.yul\":14979:14982   */\n      dup3\n        /* \"#utility.yul\":14975:14989   */\n      add\n        /* \"#utility.yul\":14960:14989   */\n      swap1\n      pop\n        /* \"#utility.yul\":14826:14995   */\n      swap3\n      swap2\n      pop\n      pop\n      jump\t// out\n        /* \"#utility.yul\":15001:15230   */\n    tag_204:\n        /* \"#utility.yul\":15141:15175   */\n      0x5361666545524332303a204552433230206f7065726174696f6e20646964206e\n        /* \"#utility.yul\":15137:15138   */\n      0x00\n        /* \"#utility.yul\":15129:15135   */\n      dup3\n        /* \"#utility.yul\":15125:15139   */\n      add\n        /* \"#utility.yul\":15118:15176   */\n      mstore\n        /* \"#utility.yul\":15210:15222   */\n      0x6f74207375636365656400000000000000000000000000000000000000000000\n        /* \"#utility.yul\":15205:15207   */\n      0x20\n        /* \"#utility.yul\":15197:15203   */\n      dup3\n        /* \"#utility.yul\":15193:15208   */\n      add\n        /* \"#utility.yul\":15186:15223   */\n      mstore\n        /* \"#utility.yul\":15001:15230   */\n      pop\n      jump\t// out\n        /* \"#utility.yul\":15236:15602   */\n    tag_205:\n        /* \"#utility.yul\":15378:15381   */\n      0x00\n        /* \"#utility.yul\":15399:15466   */\n      tag_358\n        /* \"#utility.yul\":15463:15465   */\n      0x2a\n        /* \"#utility.yul\":15458:15461   */\n      dup4\n        /* \"#utility.yul\":15399:15466   */\n      tag_203\n      jump\t// in\n    tag_358:\n        /* \"#utility.yul\":15392:15466   */\n      swap2\n      pop\n        /* \"#utility.yul\":15475:15568   */\n      tag_359\n        /* \"#utility.yul\":15564:15567   */\n      dup3\n        /* \"#utility.yul\":15475:15568   */\n      tag_204\n      jump\t// in\n    tag_359:\n        /* \"#utility.yul\":15593:15595   */\n      0x40\n        /* \"#utility.yul\":15588:15591   */\n      dup3\n        /* \"#utility.yul\":15584:15596   */\n      add\n        /* \"#utility.yul\":15577:15596   */\n      swap1\n      pop\n        /* \"#utility.yul\":15236:15602   */\n      swap2\n      swap1\n      pop\n      jump\t// out\n        /* \"#utility.yul\":15608:16027   */\n    tag_133:\n        /* \"#utility.yul\":15774:15778   */\n      0x00\n        /* \"#utility.yul\":15812:15814   */\n      0x20\n        /* \"#utility.yul\":15801:15810   */\n      dup3\n        /* \"#utility.yul\":15797:15815   */\n      add\n        /* \"#utility.yul\":15789:15815   */\n      swap1\n      pop\n        /* \"#utility.yul\":15861:15870   */\n      dup2\n        /* \"#utility.yul\":15855:15859   */\n      dup2\n        /* \"#utility.yul\":15851:15871   */\n      sub\n        /* \"#utility.yul\":15847:15848   */\n      0x00\n        /* \"#utility.yul\":15836:15845   */\n      dup4\n        /* \"#utility.yul\":15832:15849   */\n      add\n        /* \"#utility.yul\":15825:15872   */\n      mstore\n        /* \"#utility.yul\":15889:16020   */\n      tag_361\n        /* \"#utility.yul\":16015:16019   */\n      dup2\n        /* \"#utility.yul\":15889:16020   */\n      tag_205\n      jump\t// in\n    tag_361:\n        /* \"#utility.yul\":15881:16020   */\n      swap1\n      pop\n        /* \"#utility.yul\":15608:16027   */\n      swap2\n      swap1\n      pop\n      jump\t// out\n        /* \"#utility.yul\":16033:16258   */\n    tag_206:\n        /* \"#utility.yul\":16173:16207   */\n      0x416464726573733a20696e73756666696369656e742062616c616e636520666f\n        /* \"#utility.yul\":16169:16170   */\n      0x00\n        /* \"#utility.yul\":16161:16167   */\n      dup3\n        /* \"#utility.yul\":16157:16171   */\n      add\n        /* \"#utility.yul\":16150:16208   */\n      mstore\n        /* \"#utility.yul\":16242:16250   */\n      0x722063616c6c0000000000000000000000000000000000000000000000000000\n        /* \"#utility.yul\":16237:16239   */\n      0x20\n        /* \"#utility.yul\":16229:16235   */\n      dup3\n        /* \"#utility.yul\":16225:16240   */\n      add\n        /* \"#utility.yul\":16218:16251   */\n      mstore\n        /* \"#utility.yul\":16033:16258   */\n      pop\n      jump\t// out\n        /* \"#utility.yul\":16264:16630   */\n    tag_207:\n        /* \"#utility.yul\":16406:16409   */\n      0x00\n        /* \"#utility.yul\":16427:16494   */\n      tag_364\n        /* \"#utility.yul\":16491:16493   */\n      0x26\n        /* \"#utility.yul\":16486:16489   */\n      dup4\n        /* \"#utility.yul\":16427:16494   */\n      tag_203\n      jump\t// in\n    tag_364:\n        /* \"#utility.yul\":16420:16494   */\n      swap2\n      pop\n        /* \"#utility.yul\":16503:16596   */\n      tag_365\n        /* \"#utility.yul\":16592:16595   */\n      dup3\n        /* \"#utility.yul\":16503:16596   */\n      tag_206\n      jump\t// in\n    tag_365:\n        /* \"#utility.yul\":16621:16623   */\n      0x40\n        /* \"#utility.yul\":16616:16619   */\n      dup3\n        /* \"#utility.yul\":16612:16624   */\n      add\n        /* \"#utility.yul\":16605:16624   */\n      swap1\n      pop\n        /* \"#utility.yul\":16264:16630   */\n      swap2\n      swap1\n      pop\n      jump\t// out\n        /* \"#utility.yul\":16636:17055   */\n    tag_140:\n        /* \"#utility.yul\":16802:16806   */\n      0x00\n        /* \"#utility.yul\":16840:16842   */\n      0x20\n        /* \"#utility.yul\":16829:16838   */\n      dup3\n        /* \"#utility.yul\":16825:16843   */\n      add\n        /* \"#utility.yul\":16817:16843   */\n      swap1\n      pop\n        /* \"#utility.yul\":16889:16898   */\n      dup2\n        /* \"#utility.yul\":16883:16887   */\n      dup2\n        /* \"#utility.yul\":16879:16899   */\n      sub\n        /* \"#utility.yul\":16875:16876   */\n      0x00\n        /* \"#utility.yul\":16864:16873   */\n      dup4\n        /* \"#utility.yul\":16860:16877   */\n      add\n        /* \"#utility.yul\":16853:16900   */\n      mstore\n        /* \"#utility.yul\":16917:17048   */\n      tag_367\n        /* \"#utility.yul\":17043:17047   */\n      dup2\n        /* \"#utility.yul\":16917:17048   */\n      tag_207\n      jump\t// in\n    tag_367:\n        /* \"#utility.yul\":16909:17048   */\n      swap1\n      pop\n        /* \"#utility.yul\":16636:17055   */\n      swap2\n      swap1\n      pop\n      jump\t// out\n        /* \"#utility.yul\":17061:17208   */\n    tag_208:\n        /* \"#utility.yul\":17162:17173   */\n      0x00\n        /* \"#utility.yul\":17199:17202   */\n      dup2\n        /* \"#utility.yul\":17184:17202   */\n      swap1\n      pop\n        /* \"#utility.yul\":17061:17208   */\n      swap3\n      swap2\n      pop\n      pop\n      jump\t// out\n        /* \"#utility.yul\":17214:17600   */\n    tag_209:\n        /* \"#utility.yul\":17318:17321   */\n      0x00\n        /* \"#utility.yul\":17346:17384   */\n      tag_370\n        /* \"#utility.yul\":17378:17383   */\n      dup3\n        /* \"#utility.yul\":17346:17384   */\n      tag_185\n      jump\t// in\n    tag_370:\n        /* \"#utility.yul\":17400:17488   */\n      tag_371\n        /* \"#utility.yul\":17481:17487   */\n      dup2\n        /* \"#utility.yul\":17476:17479   */\n      dup6\n        /* \"#utility.yul\":17400:17488   */\n      tag_208\n      jump\t// in\n    tag_371:\n        /* \"#utility.yul\":17393:17488   */\n      swap4\n      pop\n        /* \"#utility.yul\":17497:17562   */\n      tag_372\n        /* \"#utility.yul\":17555:17561   */\n      dup2\n        /* \"#utility.yul\":17550:17553   */\n      dup6\n        /* \"#utility.yul\":17543:17547   */\n      0x20\n        /* \"#utility.yul\":17536:17541   */\n      dup7\n        /* \"#utility.yul\":17532:17548   */\n      add\n        /* \"#utility.yul\":17497:17562   */\n      tag_187\n      jump\t// in\n    tag_372:\n        /* \"#utility.yul\":17587:17593   */\n      dup1\n        /* \"#utility.yul\":17582:17585   */\n      dup5\n        /* \"#utility.yul\":17578:17594   */\n      add\n        /* \"#utility.yul\":17571:17594   */\n      swap2\n      pop\n        /* \"#utility.yul\":17322:17600   */\n      pop\n        /* \"#utility.yul\":17214:17600   */\n      swap3\n      swap2\n      pop\n      pop\n      jump\t// out\n        /* \"#utility.yul\":17606:17877   */\n    tag_142:\n        /* \"#utility.yul\":17736:17739   */\n      0x00\n        /* \"#utility.yul\":17758:17851   */\n      tag_374\n        /* \"#utility.yul\":17847:17850   */\n      dup3\n        /* \"#utility.yul\":17838:17844   */\n      dup5\n        /* \"#utility.yul\":17758:17851   */\n      tag_209\n      jump\t// in\n    tag_374:\n        /* \"#utility.yul\":17751:17851   */\n      swap2\n      pop\n        /* \"#utility.yul\":17868:17871   */\n      dup2\n        /* \"#utility.yul\":17861:17871   */\n      swap1\n      pop\n        /* \"#utility.yul\":17606:17877   */\n      swap3\n      swap2\n      pop\n      pop\n      jump\t// out\n        /* \"#utility.yul\":17883:18062   */\n    tag_210:\n        /* \"#utility.yul\":18023:18054   */\n      0x416464726573733a2063616c6c20746f206e6f6e2d636f6e7472616374000000\n        /* \"#utility.yul\":18019:18020   */\n      0x00\n        /* \"#utility.yul\":18011:18017   */\n      dup3\n        /* \"#utility.yul\":18007:18021   */\n      add\n        /* \"#utility.yul\":18000:18055   */\n      mstore\n        /* \"#utility.yul\":17883:18062   */\n      pop\n      jump\t// out\n        /* \"#utility.yul\":18068:18434   */\n    tag_211:\n        /* \"#utility.yul\":18210:18213   */\n      0x00\n        /* \"#utility.yul\":18231:18298   */\n      tag_377\n        /* \"#utility.yul\":18295:18297   */\n      0x1d\n        /* \"#utility.yul\":18290:18293   */\n      dup4\n        /* \"#utility.yul\":18231:18298   */\n      tag_203\n      jump\t// in\n    tag_377:\n        /* \"#utility.yul\":18224:18298   */\n      swap2\n      pop\n        /* \"#utility.yul\":18307:18400   */\n      tag_378\n        /* \"#utility.yul\":18396:18399   */\n      dup3\n        /* \"#utility.yul\":18307:18400   */\n      tag_210\n      jump\t// in\n    tag_378:\n        /* \"#utility.yul\":18425:18427   */\n      0x20\n        /* \"#utility.yul\":18420:18423   */\n      dup3\n        /* \"#utility.yul\":18416:18428   */\n      add\n        /* \"#utility.yul\":18409:18428   */\n      swap1\n      pop\n        /* \"#utility.yul\":18068:18434   */\n      swap2\n      swap1\n      pop\n      jump\t// out\n        /* \"#utility.yul\":18440:18859   */\n    tag_155:\n        /* \"#utility.yul\":18606:18610   */\n      0x00\n        /* \"#utility.yul\":18644:18646   */\n      0x20\n        /* \"#utility.yul\":18633:18642   */\n      dup3\n        /* \"#utility.yul\":18629:18647   */\n      add\n        /* \"#utility.yul\":18621:18647   */\n      swap1\n      pop\n        /* \"#utility.yul\":18693:18702   */\n      dup2\n        /* \"#utility.yul\":18687:18691   */\n      dup2\n        /* \"#utility.yul\":18683:18703   */\n      sub\n        /* \"#utility.yul\":18679:18680   */\n      0x00\n        /* \"#utility.yul\":18668:18677   */\n      dup4\n        /* \"#utility.yul\":18664:18681   */\n      add\n        /* \"#utility.yul\":18657:18704   */\n      mstore\n        /* \"#utility.yul\":18721:18852   */\n      tag_380\n        /* \"#utility.yul\":18847:18851   */\n      dup2\n        /* \"#utility.yul\":18721:18852   */\n      tag_211\n      jump\t// in\n    tag_380:\n        /* \"#utility.yul\":18713:18852   */\n      swap1\n      pop\n        /* \"#utility.yul\":18440:18859   */\n      swap2\n      swap1\n      pop\n      jump\t// out\n        /* \"#utility.yul\":18865:18964   */\n    tag_212:\n        /* \"#utility.yul\":18917:18923   */\n      0x00\n        /* \"#utility.yul\":18951:18956   */\n      dup2\n        /* \"#utility.yul\":18945:18957   */\n      mload\n        /* \"#utility.yul\":18935:18957   */\n      swap1\n      pop\n        /* \"#utility.yul\":18865:18964   */\n      swap2\n      swap1\n      pop\n      jump\t// out\n        /* \"#utility.yul\":18970:19347   */\n    tag_213:\n        /* \"#utility.yul\":19058:19061   */\n      0x00\n        /* \"#utility.yul\":19086:19125   */\n      tag_383\n        /* \"#utility.yul\":19119:19124   */\n      dup3\n        /* \"#utility.yul\":19086:19125   */\n      tag_212\n      jump\t// in\n    tag_383:\n        /* \"#utility.yul\":19141:19212   */\n      tag_384\n        /* \"#utility.yul\":19205:19211   */\n      dup2\n        /* \"#utility.yul\":19200:19203   */\n      dup6\n        /* \"#utility.yul\":19141:19212   */\n      tag_203\n      jump\t// in\n    tag_384:\n        /* \"#utility.yul\":19134:19212   */\n      swap4\n      pop\n        /* \"#utility.yul\":19221:19286   */\n      tag_385\n        /* \"#utility.yul\":19279:19285   */\n      dup2\n        /* \"#utility.yul\":19274:19277   */\n      dup6\n        /* \"#utility.yul\":19267:19271   */\n      0x20\n        /* \"#utility.yul\":19260:19265   */\n      dup7\n        /* \"#utility.yul\":19256:19272   */\n      add\n        /* \"#utility.yul\":19221:19286   */\n      tag_187\n      jump\t// in\n    tag_385:\n        /* \"#utility.yul\":19311:19340   */\n      tag_386\n        /* \"#utility.yul\":19333:19339   */\n      dup2\n        /* \"#utility.yul\":19311:19340   */\n      tag_188\n      jump\t// in\n    tag_386:\n        /* \"#utility.yul\":19306:19309   */\n      dup5\n        /* \"#utility.yul\":19302:19341   */\n      add\n        /* \"#utility.yul\":19295:19341   */\n      swap2\n      pop\n        /* \"#utility.yul\":19062:19347   */\n      pop\n        /* \"#utility.yul\":18970:19347   */\n      swap3\n      swap2\n      pop\n      pop\n      jump\t// out\n        /* \"#utility.yul\":19353:19666   */\n    tag_164:\n        /* \"#utility.yul\":19466:19470   */\n      0x00\n        /* \"#utility.yul\":19504:19506   */\n      0x20\n        /* \"#utility.yul\":19493:19502   */\n      dup3\n        /* \"#utility.yul\":19489:19507   */\n      add\n        /* \"#utility.yul\":19481:19507   */\n      swap1\n      pop\n        /* \"#utility.yul\":19553:19562   */\n      dup2\n        /* \"#utility.yul\":19547:19551   */\n      dup2\n        /* \"#utility.yul\":19543:19563   */\n      sub\n        /* \"#utility.yul\":19539:19540   */\n      0x00\n        /* \"#utility.yul\":19528:19537   */\n      dup4\n        /* \"#utility.yul\":19524:19541   */\n      add\n        /* \"#utility.yul\":19517:19564   */\n      mstore\n        /* \"#utility.yul\":19581:19659   */\n      tag_388\n        /* \"#utility.yul\":19654:19658   */\n      dup2\n        /* \"#utility.yul\":19645:19651   */\n      dup5\n        /* \"#utility.yul\":19581:19659   */\n      tag_213\n      jump\t// in\n    tag_388:\n        /* \"#utility.yul\":19573:19659   */\n      swap1\n      pop\n        /* \"#utility.yul\":19353:19666   */\n      swap3\n      swap2\n      pop\n      pop\n      jump\t// out\n\n    auxdata: 0xa2646970667358221220c8e00b1600b7eb3867bf3f93ce033666756ce62033cf050fa67abafcbe112c0064736f6c63430008130033\n}\n",
				"bytecode": {
					"linkReferences": {},
					"object": "60e060405273f694e193200268f9a4868e4aa017a0118c9a8177600160006101000a81548173ffffffffffffffffffffffffffffffffffffffff021916908373ffffffffffffffffffffffffffffffffffffffff160217905550730b9d5d9136855f6fec3c0993fee6e9ce8a297846600260006101000a81548173ffffffffffffffffffffffffffffffffffffffff021916908373ffffffffffffffffffffffffffffffffffffffff160217905550735425890298aed601595a70ab815c96711a31bc65600360006101000a81548173ffffffffffffffffffffffffffffffffffffffff021916908373ffffffffffffffffffffffffffffffffffffffff16021790555067de41ba4fc9d91ad9600360146101000a81548167ffffffffffffffff021916908367ffffffffffffffff16021790555034801561014057600080fd5b50336000806101000a81548173ffffffffffffffffffffffffffffffffffffffff021916908373ffffffffffffffffffffffffffffffffffffffff160217905550600160009054906101000a900473ffffffffffffffffffffffffffffffffffffffff1673ffffffffffffffffffffffffffffffffffffffff1660808173ffffffffffffffffffffffffffffffffffffffff1681525050600260009054906101000a900473ffffffffffffffffffffffffffffffffffffffff1673ffffffffffffffffffffffffffffffffffffffff1660a08173ffffffffffffffffffffffffffffffffffffffff1681525050600360009054906101000a900473ffffffffffffffffffffffffffffffffffffffff1673ffffffffffffffffffffffffffffffffffffffff1660c08173ffffffffffffffffffffffffffffffffffffffff168152505060805160a05160c0516119d361030d6000396000818161034a01528181610411015281816105190152818161090f015281816109b001528181610a8c0152610ad30152600081816102ae015281816105c8015281816106d70152818161077801526108500152600081816106230152818161088c01528181610b0f0152610b9201526119d36000f3fe608060405234801561001057600080fd5b50600436106100575760003560e01c80633aeac4e11461005c5780636392a51f146100785780638da5cb5b146100a9578063ed3bd5bc146100c7578063fe2c5d36146100e5575b600080fd5b610076600480360381019061007191906110d4565b610115565b005b610092600480360381019061008d9190611114565b6102a9565b6040516100a092919061115a565b60405180910390f35b6100b16103e9565b6040516100be9190611192565b60405180910390f35b6100cf61040d565b6040516100dc91906111ad565b60405180910390f35b6100ff60048036038101906100fa91906111f4565b6104b0565b60405161010c919061124d565b60405180910390f35b60008054906101000a900473ffffffffffffffffffffffffffffffffffffffff1673ffffffffffffffffffffffffffffffffffffffff163373ffffffffffffffffffffffffffffffffffffffff161461016d57600080fd5b60008173ffffffffffffffffffffffffffffffffffffffff166370a08231306040518263ffffffff1660e01b81526004016101a89190611192565b602060405180830381865afa1580156101c5573d6000803e3d6000fd5b505050506040513d601f19601f820116820180604052508101906101e9919061127d565b905060008103610225576040517fd0d04f6000000000000000000000000000000000000000000000000000000000815260040160405180910390fd5b8173ffffffffffffffffffffffffffffffffffffffff1663a9059cbb84836040518363ffffffff1660e01b81526004016102609291906112aa565b6020604051808303816000875af115801561027f573d6000803e3d6000fd5b505050506040513d601f19601f820116820180604052508101906102a3919061130b565b50505050565b6000807f000000000000000000000000000000000000000000000000000000000000000073ffffffffffffffffffffffffffffffffffffffff166370a08231846040518263ffffffff1660e01b81526004016103059190611192565b602060405180830381865afa158015610322573d6000803e3d6000fd5b505050506040513d601f19601f82011682018060405250810190610346919061127d565b91507f000000000000000000000000000000000000000000000000000000000000000073ffffffffffffffffffffffffffffffffffffffff166370a08231846040518263ffffffff1660e01b81526004016103a19190611192565b602060405180830381865afa1580156103be573d6000803e3d6000fd5b505050506040513d601f19601f820116820180604052508101906103e2919061127d565b9050915091565b60008054906101000a900473ffffffffffffffffffffffffffffffffffffffff1681565b60007f000000000000000000000000000000000000000000000000000000000000000073ffffffffffffffffffffffffffffffffffffffff1663dd62ed3e33306040518363ffffffff1660e01b815260040161046a929190611338565b602060405180830381865afa158015610487573d6000803e3d6000fd5b505050506040513d601f19601f820116820180604052508101906104ab919061127d565b905090565b600080600167ffffffffffffffff8111156104ce576104cd611361565b5b60405190808252806020026020018201604052801561050757816020015b6104f4611041565b8152602001906001900390816104ec5790505b509050600060405180604001604052807f000000000000000000000000000000000000000000000000000000000000000073ffffffffffffffffffffffffffffffffffffffff168152602001858152509050808260008151811061056e5761056d611390565b5b602002602001018190525060006040518060a00160405280876040516020016105979190611192565b60405160208183030381529060405281526020016040518060200160405280600081525081526020018481526020017f000000000000000000000000000000000000000000000000000000000000000073ffffffffffffffffffffffffffffffffffffffff16815260200161061a60405180602001604052806000815250610ca5565b815250905060007f000000000000000000000000000000000000000000000000000000000000000073ffffffffffffffffffffffffffffffffffffffff166320487ded600360149054906101000a900467ffffffffffffffff16846040518363ffffffff1660e01b81526004016106929291906115f9565b602060405180830381865afa1580156106af573d6000803e3d6000fd5b505050506040513d601f19601f820116820180604052508101906106d3919061127d565b90507f000000000000000000000000000000000000000000000000000000000000000073ffffffffffffffffffffffffffffffffffffffff166370a08231306040518263ffffffff1660e01b815260040161072e9190611192565b602060405180830381865afa15801561074b573d6000803e3d6000fd5b505050506040513d601f19601f8201168201806040525081019061076f919061127d565b81111561084e577f000000000000000000000000000000000000000000000000000000000000000073ffffffffffffffffffffffffffffffffffffffff166370a08231306040518263ffffffff1660e01b81526004016107cf9190611192565b602060405180830381865afa1580156107ec573d6000803e3d6000fd5b505050506040513d601f19601f82011682018060405250810190610810919061127d565b816040517f28fdcaa100000000000000000000000000000000000000000000000000000000815260040161084592919061115a565b60405180910390fd5b7f000000000000000000000000000000000000000000000000000000000000000073ffffffffffffffffffffffffffffffffffffffff1663095ea7b37f0000000000000000000000000000000000000000000000000000000000000000836040518363ffffffff1660e01b81526004016108c99291906112aa565b6020604051808303816000875af11580156108e8573d6000803e3d6000fd5b505050506040513d601f19601f8201168201806040525081019061090c919061130b565b507f000000000000000000000000000000000000000000000000000000000000000073ffffffffffffffffffffffffffffffffffffffff166370a08231336040518263ffffffff1660e01b81526004016109669190611192565b602060405180830381865afa158015610983573d6000803e3d6000fd5b505050506040513d601f19601f820116820180604052508101906109a7919061127d565b861115610a84577f000000000000000000000000000000000000000000000000000000000000000073ffffffffffffffffffffffffffffffffffffffff166370a08231336040518263ffffffff1660e01b8152600401610a079190611192565b602060405180830381865afa158015610a24573d6000803e3d6000fd5b505050506040513d601f19601f82011682018060405250810190610a48919061127d565b6040517f6212cf3b000000000000000000000000000000000000000000000000000000008152600401610a7b91906111ad565b60405180910390fd5b610ad13330887f000000000000000000000000000000000000000000000000000000000000000073ffffffffffffffffffffffffffffffffffffffff16610d24909392919063ffffffff16565b7f000000000000000000000000000000000000000000000000000000000000000073ffffffffffffffffffffffffffffffffffffffff1663095ea7b37f0000000000000000000000000000000000000000000000000000000000000000886040518363ffffffff1660e01b8152600401610b4c9291906112aa565b6020604051808303816000875af1158015610b6b573d6000803e3d6000fd5b505050506040513d601f19601f82011682018060405250810190610b8f919061130b565b507f000000000000000000000000000000000000000000000000000000000000000073ffffffffffffffffffffffffffffffffffffffff166396f4e9f9600360149054906101000a900467ffffffffffffffff16846040518363ffffffff1660e01b8152600401610c019291906115f9565b6020604051808303816000875af1158015610c20573d6000803e3d6000fd5b505050506040513d601f19601f82011682018060405250810190610c449190611655565b94507fb55a3d3f1ccd1c10f00aff03ad884028d98fa1d478fae03acecbf884ce8e8fbc85600360149054906101000a900467ffffffffffffffff16898985604051610c93959493929190611682565b60405180910390a15050505092915050565b60606397a657c960e01b82604051602401610cc091906116f1565b604051602081830303815290604052907bffffffffffffffffffffffffffffffffffffffffffffffffffffffff19166020820180517bffffffffffffffffffffffffffffffffffffffffffffffffffffffff83818316178352505050509050919050565b610da7846323b872dd60e01b858585604051602401610d459392919061170c565b604051602081830303815290604052907bffffffffffffffffffffffffffffffffffffffffffffffffffffffff19166020820180517bffffffffffffffffffffffffffffffffffffffffffffffffffffffff8381831617835250505050610dad565b50505050565b6000610e0f826040518060400160405280602081526020017f5361666545524332303a206c6f772d6c6576656c2063616c6c206661696c65648152508573ffffffffffffffffffffffffffffffffffffffff16610e749092919063ffffffff16565b9050600081511115610e6f5780806020019051810190610e2f919061130b565b610e6e576040517f08c379a0000000000000000000000000000000000000000000000000000000008152600401610e65906117c6565b60405180910390fd5b5b505050565b6060610e838484600085610e8c565b90509392505050565b606082471015610ed1576040517f08c379a0000000000000000000000000000000000000000000000000000000008152600401610ec890611858565b60405180910390fd5b6000808673ffffffffffffffffffffffffffffffffffffffff168587604051610efa91906118b4565b60006040518083038185875af1925050503d8060008114610f37576040519150601f19603f3d011682016040523d82523d6000602084013e610f3c565b606091505b5091509150610f4d87838387610f59565b92505050949350505050565b60608315610fbb576000835103610fb357610f7385610fce565b610fb2576040517f08c379a0000000000000000000000000000000000000000000000000000000008152600401610fa990611917565b60405180910390fd5b5b829050610fc6565b610fc58383610ff1565b5b949350505050565b6000808273ffffffffffffffffffffffffffffffffffffffff163b119050919050565b6000825111156110045781518083602001fd5b806040517f08c379a0000000000000000000000000000000000000000000000000000000008152600401611038919061197b565b60405180910390fd5b6040518060400160405280600073ffffffffffffffffffffffffffffffffffffffff168152602001600081525090565b600080fd5b600073ffffffffffffffffffffffffffffffffffffffff82169050919050565b60006110a182611076565b9050919050565b6110b181611096565b81146110bc57600080fd5b50565b6000813590506110ce816110a8565b92915050565b600080604083850312156110eb576110ea611071565b5b60006110f9858286016110bf565b925050602061110a858286016110bf565b9150509250929050565b60006020828403121561112a57611129611071565b5b6000611138848285016110bf565b91505092915050565b6000819050919050565b61115481611141565b82525050565b600060408201905061116f600083018561114b565b61117c602083018461114b565b9392505050565b61118c81611096565b82525050565b60006020820190506111a76000830184611183565b92915050565b60006020820190506111c2600083018461114b565b92915050565b6111d181611141565b81146111dc57600080fd5b50565b6000813590506111ee816111c8565b92915050565b6000806040838503121561120b5761120a611071565b5b6000611219858286016110bf565b925050602061122a858286016111df565b9150509250929050565b6000819050919050565b61124781611234565b82525050565b6000602082019050611262600083018461123e565b92915050565b600081519050611277816111c8565b92915050565b60006020828403121561129357611292611071565b5b60006112a184828501611268565b91505092915050565b60006040820190506112bf6000830185611183565b6112cc602083018461114b565b9392505050565b60008115159050919050565b6112e8816112d3565b81146112f357600080fd5b50565b600081519050611305816112df565b92915050565b60006020828403121561132157611320611071565b5b600061132f848285016112f6565b91505092915050565b600060408201905061134d6000830185611183565b61135a6020830184611183565b9392505050565b7f4e487b7100000000000000000000000000000000000000000000000000000000600052604160045260246000fd5b7f4e487b7100000000000000000000000000000000000000000000000000000000600052603260045260246000fd5b600067ffffffffffffffff82169050919050565b6113dc816113bf565b82525050565b600081519050919050565b600082825260208201905092915050565b60005b8381101561141c578082015181840152602081019050611401565b60008484015250505050565b6000601f19601f8301169050919050565b6000611444826113e2565b61144e81856113ed565b935061145e8185602086016113fe565b61146781611428565b840191505092915050565b600081519050919050565b600082825260208201905092915050565b6000819050602082019050919050565b6114a781611096565b82525050565b6114b681611141565b82525050565b6040820160008201516114d2600085018261149e565b5060208201516114e560208501826114ad565b50505050565b60006114f783836114bc565b60408301905092915050565b6000602082019050919050565b600061151b82611472565b611525818561147d565b93506115308361148e565b8060005b8381101561156157815161154888826114eb565b975061155383611503565b925050600181019050611534565b5085935050505092915050565b600060a083016000830151848203600086015261158b8282611439565b915050602083015184820360208601526115a58282611439565b915050604083015184820360408601526115bf8282611510565b91505060608301516115d4606086018261149e565b50608083015184820360808601526115ec8282611439565b9150508091505092915050565b600060408201905061160e60008301856113d3565b8181036020830152611620818461156e565b90509392505050565b61163281611234565b811461163d57600080fd5b50565b60008151905061164f81611629565b92915050565b60006020828403121561166b5761166a611071565b5b600061167984828501611640565b91505092915050565b600060a082019050611697600083018861123e565b6116a460208301876113d3565b6116b16040830186611183565b6116be606083018561114b565b6116cb608083018461114b565b9695505050505050565b6020820160008201516116eb60008501826114ad565b50505050565b600060208201905061170660008301846116d5565b92915050565b60006060820190506117216000830186611183565b61172e6020830185611183565b61173b604083018461114b565b949350505050565b600082825260208201905092915050565b7f5361666545524332303a204552433230206f7065726174696f6e20646964206e60008201527f6f74207375636365656400000000000000000000000000000000000000000000602082015250565b60006117b0602a83611743565b91506117bb82611754565b604082019050919050565b600060208201905081810360008301526117df816117a3565b9050919050565b7f416464726573733a20696e73756666696369656e742062616c616e636520666f60008201527f722063616c6c0000000000000000000000000000000000000000000000000000602082015250565b6000611842602683611743565b915061184d826117e6565b604082019050919050565b6000602082019050818103600083015261187181611835565b9050919050565b600081905092915050565b600061188e826113e2565b6118988185611878565b93506118a88185602086016113fe565b80840191505092915050565b60006118c08284611883565b915081905092915050565b7f416464726573733a2063616c6c20746f206e6f6e2d636f6e7472616374000000600082015250565b6000611901601d83611743565b915061190c826118cb565b602082019050919050565b60006020820190508181036000830152611930816118f4565b9050919050565b600081519050919050565b600061194d82611937565b6119578185611743565b93506119678185602086016113fe565b61197081611428565b840191505092915050565b600060208201905081810360008301526119958184611942565b90509291505056fea2646970667358221220c8e00b1600b7eb3867bf3f93ce033666756ce62033cf050fa67abafcbe112c0064736f6c63430008130033",
					"opcodes": "PUSH1 0xE0 PUSH1 0x40 MSTORE PUSH20 0xF694E193200268F9A4868E4AA017A0118C9A8177 PUSH1 0x1 PUSH1 0x0 PUSH2 0x100 EXP DUP2 SLOAD DUP2 PUSH20 0xFFFFFFFFFFFFFFFFFFFFFFFFFFFFFFFFFFFFFFFF MUL NOT AND SWAP1 DUP4 PUSH20 0xFFFFFFFFFFFFFFFFFFFFFFFFFFFFFFFFFFFFFFFF AND MUL OR SWAP1 SSTORE POP PUSH20 0xB9D5D9136855F6FEC3C0993FEE6E9CE8A297846 PUSH1 0x2 PUSH1 0x0 PUSH2 0x100 EXP DUP2 SLOAD DUP2 PUSH20 0xFFFFFFFFFFFFFFFFFFFFFFFFFFFFFFFFFFFFFFFF MUL NOT AND SWAP1 DUP4 PUSH20 0xFFFFFFFFFFFFFFFFFFFFFFFFFFFFFFFFFFFFFFFF AND MUL OR SWAP1 SSTORE POP PUSH20 0x5425890298AED601595A70AB815C96711A31BC65 PUSH1 0x3 PUSH1 0x0 PUSH2 0x100 EXP DUP2 SLOAD DUP2 PUSH20 0xFFFFFFFFFFFFFFFFFFFFFFFFFFFFFFFFFFFFFFFF MUL NOT AND SWAP1 DUP4 PUSH20 0xFFFFFFFFFFFFFFFFFFFFFFFFFFFFFFFFFFFFFFFF AND MUL OR SWAP1 SSTORE POP PUSH8 0xDE41BA4FC9D91AD9 PUSH1 0x3 PUSH1 0x14 PUSH2 0x100 EXP DUP2 SLOAD DUP2 PUSH8 0xFFFFFFFFFFFFFFFF MUL NOT AND SWAP1 DUP4 PUSH8 0xFFFFFFFFFFFFFFFF AND MUL OR SWAP1 SSTORE POP CALLVALUE DUP1 ISZERO PUSH2 0x140 JUMPI PUSH1 0x0 DUP1 REVERT JUMPDEST POP CALLER PUSH1 0x0 DUP1 PUSH2 0x100 EXP DUP2 SLOAD DUP2 PUSH20 0xFFFFFFFFFFFFFFFFFFFFFFFFFFFFFFFFFFFFFFFF MUL NOT AND SWAP1 DUP4 PUSH20 0xFFFFFFFFFFFFFFFFFFFFFFFFFFFFFFFFFFFFFFFF AND MUL OR SWAP1 SSTORE POP PUSH1 0x1 PUSH1 0x0 SWAP1 SLOAD SWAP1 PUSH2 0x100 EXP SWAP1 DIV PUSH20 0xFFFFFFFFFFFFFFFFFFFFFFFFFFFFFFFFFFFFFFFF AND PUSH20 0xFFFFFFFFFFFFFFFFFFFFFFFFFFFFFFFFFFFFFFFF AND PUSH1 0x80 DUP2 PUSH20 0xFFFFFFFFFFFFFFFFFFFFFFFFFFFFFFFFFFFFFFFF AND DUP2 MSTORE POP POP PUSH1 0x2 PUSH1 0x0 SWAP1 SLOAD SWAP1 PUSH2 0x100 EXP SWAP1 DIV PUSH20 0xFFFFFFFFFFFFFFFFFFFFFFFFFFFFFFFFFFFFFFFF AND PUSH20 0xFFFFFFFFFFFFFFFFFFFFFFFFFFFFFFFFFFFFFFFF AND PUSH1 0xA0 DUP2 PUSH20 0xFFFFFFFFFFFFFFFFFFFFFFFFFFFFFFFFFFFFFFFF AND DUP2 MSTORE POP POP PUSH1 0x3 PUSH1 0x0 SWAP1 SLOAD SWAP1 PUSH2 0x100 EXP SWAP1 DIV PUSH20 0xFFFFFFFFFFFFFFFFFFFFFFFFFFFFFFFFFFFFFFFF AND PUSH20 0xFFFFFFFFFFFFFFFFFFFFFFFFFFFFFFFFFFFFFFFF AND PUSH1 0xC0 DUP2 PUSH20 0xFFFFFFFFFFFFFFFFFFFFFFFFFFFFFFFFFFFFFFFF AND DUP2 MSTORE POP POP PUSH1 0x80 MLOAD PUSH1 0xA0 MLOAD PUSH1 0xC0 MLOAD PUSH2 0x19D3 PUSH2 0x30D PUSH1 0x0 CODECOPY PUSH1 0x0 DUP2 DUP2 PUSH2 0x34A ADD MSTORE DUP2 DUP2 PUSH2 0x411 ADD MSTORE DUP2 DUP2 PUSH2 0x519 ADD MSTORE DUP2 DUP2 PUSH2 0x90F ADD MSTORE DUP2 DUP2 PUSH2 0x9B0 ADD MSTORE DUP2 DUP2 PUSH2 0xA8C ADD MSTORE PUSH2 0xAD3 ADD MSTORE PUSH1 0x0 DUP2 DUP2 PUSH2 0x2AE ADD MSTORE DUP2 DUP2 PUSH2 0x5C8 ADD MSTORE DUP2 DUP2 PUSH2 0x6D7 ADD MSTORE DUP2 DUP2 PUSH2 0x778 ADD MSTORE PUSH2 0x850 ADD MSTORE PUSH1 0x0 DUP2 DUP2 PUSH2 0x623 ADD MSTORE DUP2 DUP2 PUSH2 0x88C ADD MSTORE DUP2 DUP2 PUSH2 0xB0F ADD MSTORE PUSH2 0xB92 ADD MSTORE PUSH2 0x19D3 PUSH1 0x0 RETURN INVALID PUSH1 0x80 PUSH1 0x40 MSTORE CALLVALUE DUP1 ISZERO PUSH2 0x10 JUMPI PUSH1 0x0 DUP1 REVERT JUMPDEST POP PUSH1 0x4 CALLDATASIZE LT PUSH2 0x57 JUMPI PUSH1 0x0 CALLDATALOAD PUSH1 0xE0 SHR DUP1 PUSH4 0x3AEAC4E1 EQ PUSH2 0x5C JUMPI DUP1 PUSH4 0x6392A51F EQ PUSH2 0x78 JUMPI DUP1 PUSH4 0x8DA5CB5B EQ PUSH2 0xA9 JUMPI DUP1 PUSH4 0xED3BD5BC EQ PUSH2 0xC7 JUMPI DUP1 PUSH4 0xFE2C5D36 EQ PUSH2 0xE5 JUMPI JUMPDEST PUSH1 0x0 DUP1 REVERT JUMPDEST PUSH2 0x76 PUSH1 0x4 DUP1 CALLDATASIZE SUB DUP2 ADD SWAP1 PUSH2 0x71 SWAP2 SWAP1 PUSH2 0x10D4 JUMP JUMPDEST PUSH2 0x115 JUMP JUMPDEST STOP JUMPDEST PUSH2 0x92 PUSH1 0x4 DUP1 CALLDATASIZE SUB DUP2 ADD SWAP1 PUSH2 0x8D SWAP2 SWAP1 PUSH2 0x1114 JUMP JUMPDEST PUSH2 0x2A9 JUMP JUMPDEST PUSH1 0x40 MLOAD PUSH2 0xA0 SWAP3 SWAP2 SWAP1 PUSH2 0x115A JUMP JUMPDEST PUSH1 0x40 MLOAD DUP1 SWAP2 SUB SWAP1 RETURN JUMPDEST PUSH2 0xB1 PUSH2 0x3E9 JUMP JUMPDEST PUSH1 0x40 MLOAD PUSH2 0xBE SWAP2 SWAP1 PUSH2 0x1192 JUMP JUMPDEST PUSH1 0x40 MLOAD DUP1 SWAP2 SUB SWAP1 RETURN JUMPDEST PUSH2 0xCF PUSH2 0x40D JUMP JUMPDEST PUSH1 0x40 MLOAD PUSH2 0xDC SWAP2 SWAP1 PUSH2 0x11AD JUMP JUMPDEST PUSH1 0x40 MLOAD DUP1 SWAP2 SUB SWAP1 RETURN JUMPDEST PUSH2 0xFF PUSH1 0x4 DUP1 CALLDATASIZE SUB DUP2 ADD SWAP1 PUSH2 0xFA SWAP2 SWAP1 PUSH2 0x11F4 JUMP JUMPDEST PUSH2 0x4B0 JUMP JUMPDEST PUSH1 0x40 MLOAD PUSH2 0x10C SWAP2 SWAP1 PUSH2 0x124D JUMP JUMPDEST PUSH1 0x40 MLOAD DUP1 SWAP2 SUB SWAP1 RETURN JUMPDEST PUSH1 0x0 DUP1 SLOAD SWAP1 PUSH2 0x100 EXP SWAP1 DIV PUSH20 0xFFFFFFFFFFFFFFFFFFFFFFFFFFFFFFFFFFFFFFFF AND PUSH20 0xFFFFFFFFFFFFFFFFFFFFFFFFFFFFFFFFFFFFFFFF AND CALLER PUSH20 0xFFFFFFFFFFFFFFFFFFFFFFFFFFFFFFFFFFFFFFFF AND EQ PUSH2 0x16D JUMPI PUSH1 0x0 DUP1 REVERT JUMPDEST PUSH1 0x0 DUP2 PUSH20 0xFFFFFFFFFFFFFFFFFFFFFFFFFFFFFFFFFFFFFFFF AND PUSH4 0x70A08231 ADDRESS PUSH1 0x40 MLOAD DUP3 PUSH4 0xFFFFFFFF AND PUSH1 0xE0 SHL DUP2 MSTORE PUSH1 0x4 ADD PUSH2 0x1A8 SWAP2 SWAP1 PUSH2 0x1192 JUMP JUMPDEST PUSH1 0x20 PUSH1 0x40 MLOAD DUP1 DUP4 SUB DUP2 DUP7 GAS STATICCALL ISZERO DUP1 ISZERO PUSH2 0x1C5 JUMPI RETURNDATASIZE PUSH1 0x0 DUP1 RETURNDATACOPY RETURNDATASIZE PUSH1 0x0 REVERT JUMPDEST POP POP POP POP PUSH1 0x40 MLOAD RETURNDATASIZE PUSH1 0x1F NOT PUSH1 0x1F DUP3 ADD AND DUP3 ADD DUP1 PUSH1 0x40 MSTORE POP DUP2 ADD SWAP1 PUSH2 0x1E9 SWAP2 SWAP1 PUSH2 0x127D JUMP JUMPDEST SWAP1 POP PUSH1 0x0 DUP2 SUB PUSH2 0x225 JUMPI PUSH1 0x40 MLOAD PUSH32 0xD0D04F6000000000000000000000000000000000000000000000000000000000 DUP2 MSTORE PUSH1 0x4 ADD PUSH1 0x40 MLOAD DUP1 SWAP2 SUB SWAP1 REVERT JUMPDEST DUP2 PUSH20 0xFFFFFFFFFFFFFFFFFFFFFFFFFFFFFFFFFFFFFFFF AND PUSH4 0xA9059CBB DUP5 DUP4 PUSH1 0x40 MLOAD DUP4 PUSH4 0xFFFFFFFF AND PUSH1 0xE0 SHL DUP2 MSTORE PUSH1 0x4 ADD PUSH2 0x260 SWAP3 SWAP2 SWAP1 PUSH2 0x12AA JUMP JUMPDEST PUSH1 0x20 PUSH1 0x40 MLOAD DUP1 DUP4 SUB DUP2 PUSH1 0x0 DUP8 GAS CALL ISZERO DUP1 ISZERO PUSH2 0x27F JUMPI RETURNDATASIZE PUSH1 0x0 DUP1 RETURNDATACOPY RETURNDATASIZE PUSH1 0x0 REVERT JUMPDEST POP POP POP POP PUSH1 0x40 MLOAD RETURNDATASIZE PUSH1 0x1F NOT PUSH1 0x1F DUP3 ADD AND DUP3 ADD DUP1 PUSH1 0x40 MSTORE POP DUP2 ADD SWAP1 PUSH2 0x2A3 SWAP2 SWAP1 PUSH2 0x130B JUMP JUMPDEST POP POP POP POP JUMP JUMPDEST PUSH1 0x0 DUP1 PUSH32 0x0 PUSH20 0xFFFFFFFFFFFFFFFFFFFFFFFFFFFFFFFFFFFFFFFF AND PUSH4 0x70A08231 DUP5 PUSH1 0x40 MLOAD DUP3 PUSH4 0xFFFFFFFF AND PUSH1 0xE0 SHL DUP2 MSTORE PUSH1 0x4 ADD PUSH2 0x305 SWAP2 SWAP1 PUSH2 0x1192 JUMP JUMPDEST PUSH1 0x20 PUSH1 0x40 MLOAD DUP1 DUP4 SUB DUP2 DUP7 GAS STATICCALL ISZERO DUP1 ISZERO PUSH2 0x322 JUMPI RETURNDATASIZE PUSH1 0x0 DUP1 RETURNDATACOPY RETURNDATASIZE PUSH1 0x0 REVERT JUMPDEST POP POP POP POP PUSH1 0x40 MLOAD RETURNDATASIZE PUSH1 0x1F NOT PUSH1 0x1F DUP3 ADD AND DUP3 ADD DUP1 PUSH1 0x40 MSTORE POP DUP2 ADD SWAP1 PUSH2 0x346 SWAP2 SWAP1 PUSH2 0x127D JUMP JUMPDEST SWAP2 POP PUSH32 0x0 PUSH20 0xFFFFFFFFFFFFFFFFFFFFFFFFFFFFFFFFFFFFFFFF AND PUSH4 0x70A08231 DUP5 PUSH1 0x40 MLOAD DUP3 PUSH4 0xFFFFFFFF AND PUSH1 0xE0 SHL DUP2 MSTORE PUSH1 0x4 ADD PUSH2 0x3A1 SWAP2 SWAP1 PUSH2 0x1192 JUMP JUMPDEST PUSH1 0x20 PUSH1 0x40 MLOAD DUP1 DUP4 SUB DUP2 DUP7 GAS STATICCALL ISZERO DUP1 ISZERO PUSH2 0x3BE JUMPI RETURNDATASIZE PUSH1 0x0 DUP1 RETURNDATACOPY RETURNDATASIZE PUSH1 0x0 REVERT JUMPDEST POP POP POP POP PUSH1 0x40 MLOAD RETURNDATASIZE PUSH1 0x1F NOT PUSH1 0x1F DUP3 ADD AND DUP3 ADD DUP1 PUSH1 0x40 MSTORE POP DUP2 ADD SWAP1 PUSH2 0x3E2 SWAP2 SWAP1 PUSH2 0x127D JUMP JUMPDEST SWAP1 POP SWAP2 POP SWAP2 JUMP JUMPDEST PUSH1 0x0 DUP1 SLOAD SWAP1 PUSH2 0x100 EXP SWAP1 DIV PUSH20 0xFFFFFFFFFFFFFFFFFFFFFFFFFFFFFFFFFFFFFFFF AND DUP2 JUMP JUMPDEST PUSH1 0x0 PUSH32 0x0 PUSH20 0xFFFFFFFFFFFFFFFFFFFFFFFFFFFFFFFFFFFFFFFF AND PUSH4 0xDD62ED3E CALLER ADDRESS PUSH1 0x40 MLOAD DUP4 PUSH4 0xFFFFFFFF AND PUSH1 0xE0 SHL DUP2 MSTORE PUSH1 0x4 ADD PUSH2 0x46A SWAP3 SWAP2 SWAP1 PUSH2 0x1338 JUMP JUMPDEST PUSH1 0x20 PUSH1 0x40 MLOAD DUP1 DUP4 SUB DUP2 DUP7 GAS STATICCALL ISZERO DUP1 ISZERO PUSH2 0x487 JUMPI RETURNDATASIZE PUSH1 0x0 DUP1 RETURNDATACOPY RETURNDATASIZE PUSH1 0x0 REVERT JUMPDEST POP POP POP POP PUSH1 0x40 MLOAD RETURNDATASIZE PUSH1 0x1F NOT PUSH1 0x1F DUP3 ADD AND DUP3 ADD DUP1 PUSH1 0x40 MSTORE POP DUP2 ADD SWAP1 PUSH2 0x4AB SWAP2 SWAP1 PUSH2 0x127D JUMP JUMPDEST SWAP1 POP SWAP1 JUMP JUMPDEST PUSH1 0x0 DUP1 PUSH1 0x1 PUSH8 0xFFFFFFFFFFFFFFFF DUP2 GT ISZERO PUSH2 0x4CE JUMPI PUSH2 0x4CD PUSH2 0x1361 JUMP JUMPDEST JUMPDEST PUSH1 0x40 MLOAD SWAP1 DUP1 DUP3 MSTORE DUP1 PUSH1 0x20 MUL PUSH1 0x20 ADD DUP3 ADD PUSH1 0x40 MSTORE DUP1 ISZERO PUSH2 0x507 JUMPI DUP2 PUSH1 0x20 ADD JUMPDEST PUSH2 0x4F4 PUSH2 0x1041 JUMP JUMPDEST DUP2 MSTORE PUSH1 0x20 ADD SWAP1 PUSH1 0x1 SWAP1 SUB SWAP1 DUP2 PUSH2 0x4EC JUMPI SWAP1 POP JUMPDEST POP SWAP1 POP PUSH1 0x0 PUSH1 0x40 MLOAD DUP1 PUSH1 0x40 ADD PUSH1 0x40 MSTORE DUP1 PUSH32 0x0 PUSH20 0xFFFFFFFFFFFFFFFFFFFFFFFFFFFFFFFFFFFFFFFF AND DUP2 MSTORE PUSH1 0x20 ADD DUP6 DUP2 MSTORE POP SWAP1 POP DUP1 DUP3 PUSH1 0x0 DUP2 MLOAD DUP2 LT PUSH2 0x56E JUMPI PUSH2 0x56D PUSH2 0x1390 JUMP JUMPDEST JUMPDEST PUSH1 0x20 MUL PUSH1 0x20 ADD ADD DUP2 SWAP1 MSTORE POP PUSH1 0x0 PUSH1 0x40 MLOAD DUP1 PUSH1 0xA0 ADD PUSH1 0x40 MSTORE DUP1 DUP8 PUSH1 0x40 MLOAD PUSH1 0x20 ADD PUSH2 0x597 SWAP2 SWAP1 PUSH2 0x1192 JUMP JUMPDEST PUSH1 0x40 MLOAD PUSH1 0x20 DUP2 DUP4 SUB SUB DUP2 MSTORE SWAP1 PUSH1 0x40 MSTORE DUP2 MSTORE PUSH1 0x20 ADD PUSH1 0x40 MLOAD DUP1 PUSH1 0x20 ADD PUSH1 0x40 MSTORE DUP1 PUSH1 0x0 DUP2 MSTORE POP DUP2 MSTORE PUSH1 0x20 ADD DUP5 DUP2 MSTORE PUSH1 0x20 ADD PUSH32 0x0 PUSH20 0xFFFFFFFFFFFFFFFFFFFFFFFFFFFFFFFFFFFFFFFF AND DUP2 MSTORE PUSH1 0x20 ADD PUSH2 0x61A PUSH1 0x40 MLOAD DUP1 PUSH1 0x20 ADD PUSH1 0x40 MSTORE DUP1 PUSH1 0x0 DUP2 MSTORE POP PUSH2 0xCA5 JUMP JUMPDEST DUP2 MSTORE POP SWAP1 POP PUSH1 0x0 PUSH32 0x0 PUSH20 0xFFFFFFFFFFFFFFFFFFFFFFFFFFFFFFFFFFFFFFFF AND PUSH4 0x20487DED PUSH1 0x3 PUSH1 0x14 SWAP1 SLOAD SWAP1 PUSH2 0x100 EXP SWAP1 DIV PUSH8 0xFFFFFFFFFFFFFFFF AND DUP5 PUSH1 0x40 MLOAD DUP4 PUSH4 0xFFFFFFFF AND PUSH1 0xE0 SHL DUP2 MSTORE PUSH1 0x4 ADD PUSH2 0x692 SWAP3 SWAP2 SWAP1 PUSH2 0x15F9 JUMP JUMPDEST PUSH1 0x20 PUSH1 0x40 MLOAD DUP1 DUP4 SUB DUP2 DUP7 GAS STATICCALL ISZERO DUP1 ISZERO PUSH2 0x6AF JUMPI RETURNDATASIZE PUSH1 0x0 DUP1 RETURNDATACOPY RETURNDATASIZE PUSH1 0x0 REVERT JUMPDEST POP POP POP POP PUSH1 0x40 MLOAD RETURNDATASIZE PUSH1 0x1F NOT PUSH1 0x1F DUP3 ADD AND DUP3 ADD DUP1 PUSH1 0x40 MSTORE POP DUP2 ADD SWAP1 PUSH2 0x6D3 SWAP2 SWAP1 PUSH2 0x127D JUMP JUMPDEST SWAP1 POP PUSH32 0x0 PUSH20 0xFFFFFFFFFFFFFFFFFFFFFFFFFFFFFFFFFFFFFFFF AND PUSH4 0x70A08231 ADDRESS PUSH1 0x40 MLOAD DUP3 PUSH4 0xFFFFFFFF AND PUSH1 0xE0 SHL DUP2 MSTORE PUSH1 0x4 ADD PUSH2 0x72E SWAP2 SWAP1 PUSH2 0x1192 JUMP JUMPDEST PUSH1 0x20 PUSH1 0x40 MLOAD DUP1 DUP4 SUB DUP2 DUP7 GAS STATICCALL ISZERO DUP1 ISZERO PUSH2 0x74B JUMPI RETURNDATASIZE PUSH1 0x0 DUP1 RETURNDATACOPY RETURNDATASIZE PUSH1 0x0 REVERT JUMPDEST POP POP POP POP PUSH1 0x40 MLOAD RETURNDATASIZE PUSH1 0x1F NOT PUSH1 0x1F DUP3 ADD AND DUP3 ADD DUP1 PUSH1 0x40 MSTORE POP DUP2 ADD SWAP1 PUSH2 0x76F SWAP2 SWAP1 PUSH2 0x127D JUMP JUMPDEST DUP2 GT ISZERO PUSH2 0x84E JUMPI PUSH32 0x0 PUSH20 0xFFFFFFFFFFFFFFFFFFFFFFFFFFFFFFFFFFFFFFFF AND PUSH4 0x70A08231 ADDRESS PUSH1 0x40 MLOAD DUP3 PUSH4 0xFFFFFFFF AND PUSH1 0xE0 SHL DUP2 MSTORE PUSH1 0x4 ADD PUSH2 0x7CF SWAP2 SWAP1 PUSH2 0x1192 JUMP JUMPDEST PUSH1 0x20 PUSH1 0x40 MLOAD DUP1 DUP4 SUB DUP2 DUP7 GAS STATICCALL ISZERO DUP1 ISZERO PUSH2 0x7EC JUMPI RETURNDATASIZE PUSH1 0x0 DUP1 RETURNDATACOPY RETURNDATASIZE PUSH1 0x0 REVERT JUMPDEST POP POP POP POP PUSH1 0x40 MLOAD RETURNDATASIZE PUSH1 0x1F NOT PUSH1 0x1F DUP3 ADD AND DUP3 ADD DUP1 PUSH1 0x40 MSTORE POP DUP2 ADD SWAP1 PUSH2 0x810 SWAP2 SWAP1 PUSH2 0x127D JUMP JUMPDEST DUP2 PUSH1 0x40 MLOAD PUSH32 0x28FDCAA100000000000000000000000000000000000000000000000000000000 DUP2 MSTORE PUSH1 0x4 ADD PUSH2 0x845 SWAP3 SWAP2 SWAP1 PUSH2 0x115A JUMP JUMPDEST PUSH1 0x40 MLOAD DUP1 SWAP2 SUB SWAP1 REVERT JUMPDEST PUSH32 0x0 PUSH20 0xFFFFFFFFFFFFFFFFFFFFFFFFFFFFFFFFFFFFFFFF AND PUSH4 0x95EA7B3 PUSH32 0x0 DUP4 PUSH1 0x40 MLOAD DUP4 PUSH4 0xFFFFFFFF AND PUSH1 0xE0 SHL DUP2 MSTORE PUSH1 0x4 ADD PUSH2 0x8C9 SWAP3 SWAP2 SWAP1 PUSH2 0x12AA JUMP JUMPDEST PUSH1 0x20 PUSH1 0x40 MLOAD DUP1 DUP4 SUB DUP2 PUSH1 0x0 DUP8 GAS CALL ISZERO DUP1 ISZERO PUSH2 0x8E8 JUMPI RETURNDATASIZE PUSH1 0x0 DUP1 RETURNDATACOPY RETURNDATASIZE PUSH1 0x0 REVERT JUMPDEST POP POP POP POP PUSH1 0x40 MLOAD RETURNDATASIZE PUSH1 0x1F NOT PUSH1 0x1F DUP3 ADD AND DUP3 ADD DUP1 PUSH1 0x40 MSTORE POP DUP2 ADD SWAP1 PUSH2 0x90C SWAP2 SWAP1 PUSH2 0x130B JUMP JUMPDEST POP PUSH32 0x0 PUSH20 0xFFFFFFFFFFFFFFFFFFFFFFFFFFFFFFFFFFFFFFFF AND PUSH4 0x70A08231 CALLER PUSH1 0x40 MLOAD DUP3 PUSH4 0xFFFFFFFF AND PUSH1 0xE0 SHL DUP2 MSTORE PUSH1 0x4 ADD PUSH2 0x966 SWAP2 SWAP1 PUSH2 0x1192 JUMP JUMPDEST PUSH1 0x20 PUSH1 0x40 MLOAD DUP1 DUP4 SUB DUP2 DUP7 GAS STATICCALL ISZERO DUP1 ISZERO PUSH2 0x983 JUMPI RETURNDATASIZE PUSH1 0x0 DUP1 RETURNDATACOPY RETURNDATASIZE PUSH1 0x0 REVERT JUMPDEST POP POP POP POP PUSH1 0x40 MLOAD RETURNDATASIZE PUSH1 0x1F NOT PUSH1 0x1F DUP3 ADD AND DUP3 ADD DUP1 PUSH1 0x40 MSTORE POP DUP2 ADD SWAP1 PUSH2 0x9A7 SWAP2 SWAP1 PUSH2 0x127D JUMP JUMPDEST DUP7 GT ISZERO PUSH2 0xA84 JUMPI PUSH32 0x0 PUSH20 0xFFFFFFFFFFFFFFFFFFFFFFFFFFFFFFFFFFFFFFFF AND PUSH4 0x70A08231 CALLER PUSH1 0x40 MLOAD DUP3 PUSH4 0xFFFFFFFF AND PUSH1 0xE0 SHL DUP2 MSTORE PUSH1 0x4 ADD PUSH2 0xA07 SWAP2 SWAP1 PUSH2 0x1192 JUMP JUMPDEST PUSH1 0x20 PUSH1 0x40 MLOAD DUP1 DUP4 SUB DUP2 DUP7 GAS STATICCALL ISZERO DUP1 ISZERO PUSH2 0xA24 JUMPI RETURNDATASIZE PUSH1 0x0 DUP1 RETURNDATACOPY RETURNDATASIZE PUSH1 0x0 REVERT JUMPDEST POP POP POP POP PUSH1 0x40 MLOAD RETURNDATASIZE PUSH1 0x1F NOT PUSH1 0x1F DUP3 ADD AND DUP3 ADD DUP1 PUSH1 0x40 MSTORE POP DUP2 ADD SWAP1 PUSH2 0xA48 SWAP2 SWAP1 PUSH2 0x127D JUMP JUMPDEST PUSH1 0x40 MLOAD PUSH32 0x6212CF3B00000000000000000000000000000000000000000000000000000000 DUP2 MSTORE PUSH1 0x4 ADD PUSH2 0xA7B SWAP2 SWAP1 PUSH2 0x11AD JUMP JUMPDEST PUSH1 0x40 MLOAD DUP1 SWAP2 SUB SWAP1 REVERT JUMPDEST PUSH2 0xAD1 CALLER ADDRESS DUP9 PUSH32 0x0 PUSH20 0xFFFFFFFFFFFFFFFFFFFFFFFFFFFFFFFFFFFFFFFF AND PUSH2 0xD24 SWAP1 SWAP4 SWAP3 SWAP2 SWAP1 PUSH4 0xFFFFFFFF AND JUMP JUMPDEST PUSH32 0x0 PUSH20 0xFFFFFFFFFFFFFFFFFFFFFFFFFFFFFFFFFFFFFFFF AND PUSH4 0x95EA7B3 PUSH32 0x0 DUP9 PUSH1 0x40 MLOAD DUP4 PUSH4 0xFFFFFFFF AND PUSH1 0xE0 SHL DUP2 MSTORE PUSH1 0x4 ADD PUSH2 0xB4C SWAP3 SWAP2 SWAP1 PUSH2 0x12AA JUMP JUMPDEST PUSH1 0x20 PUSH1 0x40 MLOAD DUP1 DUP4 SUB DUP2 PUSH1 0x0 DUP8 GAS CALL ISZERO DUP1 ISZERO PUSH2 0xB6B JUMPI RETURNDATASIZE PUSH1 0x0 DUP1 RETURNDATACOPY RETURNDATASIZE PUSH1 0x0 REVERT JUMPDEST POP POP POP POP PUSH1 0x40 MLOAD RETURNDATASIZE PUSH1 0x1F NOT PUSH1 0x1F DUP3 ADD AND DUP3 ADD DUP1 PUSH1 0x40 MSTORE POP DUP2 ADD SWAP1 PUSH2 0xB8F SWAP2 SWAP1 PUSH2 0x130B JUMP JUMPDEST POP PUSH32 0x0 PUSH20 0xFFFFFFFFFFFFFFFFFFFFFFFFFFFFFFFFFFFFFFFF AND PUSH4 0x96F4E9F9 PUSH1 0x3 PUSH1 0x14 SWAP1 SLOAD SWAP1 PUSH2 0x100 EXP SWAP1 DIV PUSH8 0xFFFFFFFFFFFFFFFF AND DUP5 PUSH1 0x40 MLOAD DUP4 PUSH4 0xFFFFFFFF AND PUSH1 0xE0 SHL DUP2 MSTORE PUSH1 0x4 ADD PUSH2 0xC01 SWAP3 SWAP2 SWAP1 PUSH2 0x15F9 JUMP JUMPDEST PUSH1 0x20 PUSH1 0x40 MLOAD DUP1 DUP4 SUB DUP2 PUSH1 0x0 DUP8 GAS CALL ISZERO DUP1 ISZERO PUSH2 0xC20 JUMPI RETURNDATASIZE PUSH1 0x0 DUP1 RETURNDATACOPY RETURNDATASIZE PUSH1 0x0 REVERT JUMPDEST POP POP POP POP PUSH1 0x40 MLOAD RETURNDATASIZE PUSH1 0x1F NOT PUSH1 0x1F DUP3 ADD AND DUP3 ADD DUP1 PUSH1 0x40 MSTORE POP DUP2 ADD SWAP1 PUSH2 0xC44 SWAP2 SWAP1 PUSH2 0x1655 JUMP JUMPDEST SWAP5 POP PUSH32 0xB55A3D3F1CCD1C10F00AFF03AD884028D98FA1D478FAE03ACECBF884CE8E8FBC DUP6 PUSH1 0x3 PUSH1 0x14 SWAP1 SLOAD SWAP1 PUSH2 0x100 EXP SWAP1 DIV PUSH8 0xFFFFFFFFFFFFFFFF AND DUP10 DUP10 DUP6 PUSH1 0x40 MLOAD PUSH2 0xC93 SWAP6 SWAP5 SWAP4 SWAP3 SWAP2 SWAP1 PUSH2 0x1682 JUMP JUMPDEST PUSH1 0x40 MLOAD DUP1 SWAP2 SUB SWAP1 LOG1 POP POP POP POP SWAP3 SWAP2 POP POP JUMP JUMPDEST PUSH1 0x60 PUSH4 0x97A657C9 PUSH1 0xE0 SHL DUP3 PUSH1 0x40 MLOAD PUSH1 0x24 ADD PUSH2 0xCC0 SWAP2 SWAP1 PUSH2 0x16F1 JUMP JUMPDEST PUSH1 0x40 MLOAD PUSH1 0x20 DUP2 DUP4 SUB SUB DUP2 MSTORE SWAP1 PUSH1 0x40 MSTORE SWAP1 PUSH28 0xFFFFFFFFFFFFFFFFFFFFFFFFFFFFFFFFFFFFFFFFFFFFFFFFFFFFFFFF NOT AND PUSH1 0x20 DUP3 ADD DUP1 MLOAD PUSH28 0xFFFFFFFFFFFFFFFFFFFFFFFFFFFFFFFFFFFFFFFFFFFFFFFFFFFFFFFF DUP4 DUP2 DUP4 AND OR DUP4 MSTORE POP POP POP POP SWAP1 POP SWAP2 SWAP1 POP JUMP JUMPDEST PUSH2 0xDA7 DUP5 PUSH4 0x23B872DD PUSH1 0xE0 SHL DUP6 DUP6 DUP6 PUSH1 0x40 MLOAD PUSH1 0x24 ADD PUSH2 0xD45 SWAP4 SWAP3 SWAP2 SWAP1 PUSH2 0x170C JUMP JUMPDEST PUSH1 0x40 MLOAD PUSH1 0x20 DUP2 DUP4 SUB SUB DUP2 MSTORE SWAP1 PUSH1 0x40 MSTORE SWAP1 PUSH28 0xFFFFFFFFFFFFFFFFFFFFFFFFFFFFFFFFFFFFFFFFFFFFFFFFFFFFFFFF NOT AND PUSH1 0x20 DUP3 ADD DUP1 MLOAD PUSH28 0xFFFFFFFFFFFFFFFFFFFFFFFFFFFFFFFFFFFFFFFFFFFFFFFFFFFFFFFF DUP4 DUP2 DUP4 AND OR DUP4 MSTORE POP POP POP POP PUSH2 0xDAD JUMP JUMPDEST POP POP POP POP JUMP JUMPDEST PUSH1 0x0 PUSH2 0xE0F DUP3 PUSH1 0x40 MLOAD DUP1 PUSH1 0x40 ADD PUSH1 0x40 MSTORE DUP1 PUSH1 0x20 DUP2 MSTORE PUSH1 0x20 ADD PUSH32 0x5361666545524332303A206C6F772D6C6576656C2063616C6C206661696C6564 DUP2 MSTORE POP DUP6 PUSH20 0xFFFFFFFFFFFFFFFFFFFFFFFFFFFFFFFFFFFFFFFF AND PUSH2 0xE74 SWAP1 SWAP3 SWAP2 SWAP1 PUSH4 0xFFFFFFFF AND JUMP JUMPDEST SWAP1 POP PUSH1 0x0 DUP2 MLOAD GT ISZERO PUSH2 0xE6F JUMPI DUP1 DUP1 PUSH1 0x20 ADD SWAP1 MLOAD DUP2 ADD SWAP1 PUSH2 0xE2F SWAP2 SWAP1 PUSH2 0x130B JUMP JUMPDEST PUSH2 0xE6E JUMPI PUSH1 0x40 MLOAD PUSH32 0x8C379A000000000000000000000000000000000000000000000000000000000 DUP2 MSTORE PUSH1 0x4 ADD PUSH2 0xE65 SWAP1 PUSH2 0x17C6 JUMP JUMPDEST PUSH1 0x40 MLOAD DUP1 SWAP2 SUB SWAP1 REVERT JUMPDEST JUMPDEST POP POP POP JUMP JUMPDEST PUSH1 0x60 PUSH2 0xE83 DUP5 DUP5 PUSH1 0x0 DUP6 PUSH2 0xE8C JUMP JUMPDEST SWAP1 POP SWAP4 SWAP3 POP POP POP JUMP JUMPDEST PUSH1 0x60 DUP3 SELFBALANCE LT ISZERO PUSH2 0xED1 JUMPI PUSH1 0x40 MLOAD PUSH32 0x8C379A000000000000000000000000000000000000000000000000000000000 DUP2 MSTORE PUSH1 0x4 ADD PUSH2 0xEC8 SWAP1 PUSH2 0x1858 JUMP JUMPDEST PUSH1 0x40 MLOAD DUP1 SWAP2 SUB SWAP1 REVERT JUMPDEST PUSH1 0x0 DUP1 DUP7 PUSH20 0xFFFFFFFFFFFFFFFFFFFFFFFFFFFFFFFFFFFFFFFF AND DUP6 DUP8 PUSH1 0x40 MLOAD PUSH2 0xEFA SWAP2 SWAP1 PUSH2 0x18B4 JUMP JUMPDEST PUSH1 0x0 PUSH1 0x40 MLOAD DUP1 DUP4 SUB DUP2 DUP6 DUP8 GAS CALL SWAP3 POP POP POP RETURNDATASIZE DUP1 PUSH1 0x0 DUP2 EQ PUSH2 0xF37 JUMPI PUSH1 0x40 MLOAD SWAP2 POP PUSH1 0x1F NOT PUSH1 0x3F RETURNDATASIZE ADD AND DUP3 ADD PUSH1 0x40 MSTORE RETURNDATASIZE DUP3 MSTORE RETURNDATASIZE PUSH1 0x0 PUSH1 0x20 DUP5 ADD RETURNDATACOPY PUSH2 0xF3C JUMP JUMPDEST PUSH1 0x60 SWAP2 POP JUMPDEST POP SWAP2 POP SWAP2 POP PUSH2 0xF4D DUP8 DUP4 DUP4 DUP8 PUSH2 0xF59 JUMP JUMPDEST SWAP3 POP POP POP SWAP5 SWAP4 POP POP POP POP JUMP JUMPDEST PUSH1 0x60 DUP4 ISZERO PUSH2 0xFBB JUMPI PUSH1 0x0 DUP4 MLOAD SUB PUSH2 0xFB3 JUMPI PUSH2 0xF73 DUP6 PUSH2 0xFCE JUMP JUMPDEST PUSH2 0xFB2 JUMPI PUSH1 0x40 MLOAD PUSH32 0x8C379A000000000000000000000000000000000000000000000000000000000 DUP2 MSTORE PUSH1 0x4 ADD PUSH2 0xFA9 SWAP1 PUSH2 0x1917 JUMP JUMPDEST PUSH1 0x40 MLOAD DUP1 SWAP2 SUB SWAP1 REVERT JUMPDEST JUMPDEST DUP3 SWAP1 POP PUSH2 0xFC6 JUMP JUMPDEST PUSH2 0xFC5 DUP4 DUP4 PUSH2 0xFF1 JUMP JUMPDEST JUMPDEST SWAP5 SWAP4 POP POP POP POP JUMP JUMPDEST PUSH1 0x0 DUP1 DUP3 PUSH20 0xFFFFFFFFFFFFFFFFFFFFFFFFFFFFFFFFFFFFFFFF AND EXTCODESIZE GT SWAP1 POP SWAP2 SWAP1 POP JUMP JUMPDEST PUSH1 0x0 DUP3 MLOAD GT ISZERO PUSH2 0x1004 JUMPI DUP2 MLOAD DUP1 DUP4 PUSH1 0x20 ADD REVERT JUMPDEST DUP1 PUSH1 0x40 MLOAD PUSH32 0x8C379A000000000000000000000000000000000000000000000000000000000 DUP2 MSTORE PUSH1 0x4 ADD PUSH2 0x1038 SWAP2 SWAP1 PUSH2 0x197B JUMP JUMPDEST PUSH1 0x40 MLOAD DUP1 SWAP2 SUB SWAP1 REVERT JUMPDEST PUSH1 0x40 MLOAD DUP1 PUSH1 0x40 ADD PUSH1 0x40 MSTORE DUP1 PUSH1 0x0 PUSH20 0xFFFFFFFFFFFFFFFFFFFFFFFFFFFFFFFFFFFFFFFF AND DUP2 MSTORE PUSH1 0x20 ADD PUSH1 0x0 DUP2 MSTORE POP SWAP1 JUMP JUMPDEST PUSH1 0x0 DUP1 REVERT JUMPDEST PUSH1 0x0 PUSH20 0xFFFFFFFFFFFFFFFFFFFFFFFFFFFFFFFFFFFFFFFF DUP3 AND SWAP1 POP SWAP2 SWAP1 POP JUMP JUMPDEST PUSH1 0x0 PUSH2 0x10A1 DUP3 PUSH2 0x1076 JUMP JUMPDEST SWAP1 POP SWAP2 SWAP1 POP JUMP JUMPDEST PUSH2 0x10B1 DUP2 PUSH2 0x1096 JUMP JUMPDEST DUP2 EQ PUSH2 0x10BC JUMPI PUSH1 0x0 DUP1 REVERT JUMPDEST POP JUMP JUMPDEST PUSH1 0x0 DUP2 CALLDATALOAD SWAP1 POP PUSH2 0x10CE DUP2 PUSH2 0x10A8 JUMP JUMPDEST SWAP3 SWAP2 POP POP JUMP JUMPDEST PUSH1 0x0 DUP1 PUSH1 0x40 DUP4 DUP6 SUB SLT ISZERO PUSH2 0x10EB JUMPI PUSH2 0x10EA PUSH2 0x1071 JUMP JUMPDEST JUMPDEST PUSH1 0x0 PUSH2 0x10F9 DUP6 DUP3 DUP7 ADD PUSH2 0x10BF JUMP JUMPDEST SWAP3 POP POP PUSH1 0x20 PUSH2 0x110A DUP6 DUP3 DUP7 ADD PUSH2 0x10BF JUMP JUMPDEST SWAP2 POP POP SWAP3 POP SWAP3 SWAP1 POP JUMP JUMPDEST PUSH1 0x0 PUSH1 0x20 DUP3 DUP5 SUB SLT ISZERO PUSH2 0x112A JUMPI PUSH2 0x1129 PUSH2 0x1071 JUMP JUMPDEST JUMPDEST PUSH1 0x0 PUSH2 0x1138 DUP5 DUP3 DUP6 ADD PUSH2 0x10BF JUMP JUMPDEST SWAP2 POP POP SWAP3 SWAP2 POP POP JUMP JUMPDEST PUSH1 0x0 DUP2 SWAP1 POP SWAP2 SWAP1 POP JUMP JUMPDEST PUSH2 0x1154 DUP2 PUSH2 0x1141 JUMP JUMPDEST DUP3 MSTORE POP POP JUMP JUMPDEST PUSH1 0x0 PUSH1 0x40 DUP3 ADD SWAP1 POP PUSH2 0x116F PUSH1 0x0 DUP4 ADD DUP6 PUSH2 0x114B JUMP JUMPDEST PUSH2 0x117C PUSH1 0x20 DUP4 ADD DUP5 PUSH2 0x114B JUMP JUMPDEST SWAP4 SWAP3 POP POP POP JUMP JUMPDEST PUSH2 0x118C DUP2 PUSH2 0x1096 JUMP JUMPDEST DUP3 MSTORE POP POP JUMP JUMPDEST PUSH1 0x0 PUSH1 0x20 DUP3 ADD SWAP1 POP PUSH2 0x11A7 PUSH1 0x0 DUP4 ADD DUP5 PUSH2 0x1183 JUMP JUMPDEST SWAP3 SWAP2 POP POP JUMP JUMPDEST PUSH1 0x0 PUSH1 0x20 DUP3 ADD SWAP1 POP PUSH2 0x11C2 PUSH1 0x0 DUP4 ADD DUP5 PUSH2 0x114B JUMP JUMPDEST SWAP3 SWAP2 POP POP JUMP JUMPDEST PUSH2 0x11D1 DUP2 PUSH2 0x1141 JUMP JUMPDEST DUP2 EQ PUSH2 0x11DC JUMPI PUSH1 0x0 DUP1 REVERT JUMPDEST POP JUMP JUMPDEST PUSH1 0x0 DUP2 CALLDATALOAD SWAP1 POP PUSH2 0x11EE DUP2 PUSH2 0x11C8 JUMP JUMPDEST SWAP3 SWAP2 POP POP JUMP JUMPDEST PUSH1 0x0 DUP1 PUSH1 0x40 DUP4 DUP6 SUB SLT ISZERO PUSH2 0x120B JUMPI PUSH2 0x120A PUSH2 0x1071 JUMP JUMPDEST JUMPDEST PUSH1 0x0 PUSH2 0x1219 DUP6 DUP3 DUP7 ADD PUSH2 0x10BF JUMP JUMPDEST SWAP3 POP POP PUSH1 0x20 PUSH2 0x122A DUP6 DUP3 DUP7 ADD PUSH2 0x11DF JUMP JUMPDEST SWAP2 POP POP SWAP3 POP SWAP3 SWAP1 POP JUMP JUMPDEST PUSH1 0x0 DUP2 SWAP1 POP SWAP2 SWAP1 POP JUMP JUMPDEST PUSH2 0x1247 DUP2 PUSH2 0x1234 JUMP JUMPDEST DUP3 MSTORE POP POP JUMP JUMPDEST PUSH1 0x0 PUSH1 0x20 DUP3 ADD SWAP1 POP PUSH2 0x1262 PUSH1 0x0 DUP4 ADD DUP5 PUSH2 0x123E JUMP JUMPDEST SWAP3 SWAP2 POP POP JUMP JUMPDEST PUSH1 0x0 DUP2 MLOAD SWAP1 POP PUSH2 0x1277 DUP2 PUSH2 0x11C8 JUMP JUMPDEST SWAP3 SWAP2 POP POP JUMP JUMPDEST PUSH1 0x0 PUSH1 0x20 DUP3 DUP5 SUB SLT ISZERO PUSH2 0x1293 JUMPI PUSH2 0x1292 PUSH2 0x1071 JUMP JUMPDEST JUMPDEST PUSH1 0x0 PUSH2 0x12A1 DUP5 DUP3 DUP6 ADD PUSH2 0x1268 JUMP JUMPDEST SWAP2 POP POP SWAP3 SWAP2 POP POP JUMP JUMPDEST PUSH1 0x0 PUSH1 0x40 DUP3 ADD SWAP1 POP PUSH2 0x12BF PUSH1 0x0 DUP4 ADD DUP6 PUSH2 0x1183 JUMP JUMPDEST PUSH2 0x12CC PUSH1 0x20 DUP4 ADD DUP5 PUSH2 0x114B JUMP JUMPDEST SWAP4 SWAP3 POP POP POP JUMP JUMPDEST PUSH1 0x0 DUP2 ISZERO ISZERO SWAP1 POP SWAP2 SWAP1 POP JUMP JUMPDEST PUSH2 0x12E8 DUP2 PUSH2 0x12D3 JUMP JUMPDEST DUP2 EQ PUSH2 0x12F3 JUMPI PUSH1 0x0 DUP1 REVERT JUMPDEST POP JUMP JUMPDEST PUSH1 0x0 DUP2 MLOAD SWAP1 POP PUSH2 0x1305 DUP2 PUSH2 0x12DF JUMP JUMPDEST SWAP3 SWAP2 POP POP JUMP JUMPDEST PUSH1 0x0 PUSH1 0x20 DUP3 DUP5 SUB SLT ISZERO PUSH2 0x1321 JUMPI PUSH2 0x1320 PUSH2 0x1071 JUMP JUMPDEST JUMPDEST PUSH1 0x0 PUSH2 0x132F DUP5 DUP3 DUP6 ADD PUSH2 0x12F6 JUMP JUMPDEST SWAP2 POP POP SWAP3 SWAP2 POP POP JUMP JUMPDEST PUSH1 0x0 PUSH1 0x40 DUP3 ADD SWAP1 POP PUSH2 0x134D PUSH1 0x0 DUP4 ADD DUP6 PUSH2 0x1183 JUMP JUMPDEST PUSH2 0x135A PUSH1 0x20 DUP4 ADD DUP5 PUSH2 0x1183 JUMP JUMPDEST SWAP4 SWAP3 POP POP POP JUMP JUMPDEST PUSH32 0x4E487B7100000000000000000000000000000000000000000000000000000000 PUSH1 0x0 MSTORE PUSH1 0x41 PUSH1 0x4 MSTORE PUSH1 0x24 PUSH1 0x0 REVERT JUMPDEST PUSH32 0x4E487B7100000000000000000000000000000000000000000000000000000000 PUSH1 0x0 MSTORE PUSH1 0x32 PUSH1 0x4 MSTORE PUSH1 0x24 PUSH1 0x0 REVERT JUMPDEST PUSH1 0x0 PUSH8 0xFFFFFFFFFFFFFFFF DUP3 AND SWAP1 POP SWAP2 SWAP1 POP JUMP JUMPDEST PUSH2 0x13DC DUP2 PUSH2 0x13BF JUMP JUMPDEST DUP3 MSTORE POP POP JUMP JUMPDEST PUSH1 0x0 DUP2 MLOAD SWAP1 POP SWAP2 SWAP1 POP JUMP JUMPDEST PUSH1 0x0 DUP3 DUP3 MSTORE PUSH1 0x20 DUP3 ADD SWAP1 POP SWAP3 SWAP2 POP POP JUMP JUMPDEST PUSH1 0x0 JUMPDEST DUP4 DUP2 LT ISZERO PUSH2 0x141C JUMPI DUP1 DUP3 ADD MLOAD DUP2 DUP5 ADD MSTORE PUSH1 0x20 DUP2 ADD SWAP1 POP PUSH2 0x1401 JUMP JUMPDEST PUSH1 0x0 DUP5 DUP5 ADD MSTORE POP POP POP POP JUMP JUMPDEST PUSH1 0x0 PUSH1 0x1F NOT PUSH1 0x1F DUP4 ADD AND SWAP1 POP SWAP2 SWAP1 POP JUMP JUMPDEST PUSH1 0x0 PUSH2 0x1444 DUP3 PUSH2 0x13E2 JUMP JUMPDEST PUSH2 0x144E DUP2 DUP6 PUSH2 0x13ED JUMP JUMPDEST SWAP4 POP PUSH2 0x145E DUP2 DUP6 PUSH1 0x20 DUP7 ADD PUSH2 0x13FE JUMP JUMPDEST PUSH2 0x1467 DUP2 PUSH2 0x1428 JUMP JUMPDEST DUP5 ADD SWAP2 POP POP SWAP3 SWAP2 POP POP JUMP JUMPDEST PUSH1 0x0 DUP2 MLOAD SWAP1 POP SWAP2 SWAP1 POP JUMP JUMPDEST PUSH1 0x0 DUP3 DUP3 MSTORE PUSH1 0x20 DUP3 ADD SWAP1 POP SWAP3 SWAP2 POP POP JUMP JUMPDEST PUSH1 0x0 DUP2 SWAP1 POP PUSH1 0x20 DUP3 ADD SWAP1 POP SWAP2 SWAP1 POP JUMP JUMPDEST PUSH2 0x14A7 DUP2 PUSH2 0x1096 JUMP JUMPDEST DUP3 MSTORE POP POP JUMP JUMPDEST PUSH2 0x14B6 DUP2 PUSH2 0x1141 JUMP JUMPDEST DUP3 MSTORE POP POP JUMP JUMPDEST PUSH1 0x40 DUP3 ADD PUSH1 0x0 DUP3 ADD MLOAD PUSH2 0x14D2 PUSH1 0x0 DUP6 ADD DUP3 PUSH2 0x149E JUMP JUMPDEST POP PUSH1 0x20 DUP3 ADD MLOAD PUSH2 0x14E5 PUSH1 0x20 DUP6 ADD DUP3 PUSH2 0x14AD JUMP JUMPDEST POP POP POP POP JUMP JUMPDEST PUSH1 0x0 PUSH2 0x14F7 DUP4 DUP4 PUSH2 0x14BC JUMP JUMPDEST PUSH1 0x40 DUP4 ADD SWAP1 POP SWAP3 SWAP2 POP POP JUMP JUMPDEST PUSH1 0x0 PUSH1 0x20 DUP3 ADD SWAP1 POP SWAP2 SWAP1 POP JUMP JUMPDEST PUSH1 0x0 PUSH2 0x151B DUP3 PUSH2 0x1472 JUMP JUMPDEST PUSH2 0x1525 DUP2 DUP6 PUSH2 0x147D JUMP JUMPDEST SWAP4 POP PUSH2 0x1530 DUP4 PUSH2 0x148E JUMP JUMPDEST DUP1 PUSH1 0x0 JUMPDEST DUP4 DUP2 LT ISZERO PUSH2 0x1561 JUMPI DUP2 MLOAD PUSH2 0x1548 DUP9 DUP3 PUSH2 0x14EB JUMP JUMPDEST SWAP8 POP PUSH2 0x1553 DUP4 PUSH2 0x1503 JUMP JUMPDEST SWAP3 POP POP PUSH1 0x1 DUP2 ADD SWAP1 POP PUSH2 0x1534 JUMP JUMPDEST POP DUP6 SWAP4 POP POP POP POP SWAP3 SWAP2 POP POP JUMP JUMPDEST PUSH1 0x0 PUSH1 0xA0 DUP4 ADD PUSH1 0x0 DUP4 ADD MLOAD DUP5 DUP3 SUB PUSH1 0x0 DUP7 ADD MSTORE PUSH2 0x158B DUP3 DUP3 PUSH2 0x1439 JUMP JUMPDEST SWAP2 POP POP PUSH1 0x20 DUP4 ADD MLOAD DUP5 DUP3 SUB PUSH1 0x20 DUP7 ADD MSTORE PUSH2 0x15A5 DUP3 DUP3 PUSH2 0x1439 JUMP JUMPDEST SWAP2 POP POP PUSH1 0x40 DUP4 ADD MLOAD DUP5 DUP3 SUB PUSH1 0x40 DUP7 ADD MSTORE PUSH2 0x15BF DUP3 DUP3 PUSH2 0x1510 JUMP JUMPDEST SWAP2 POP POP PUSH1 0x60 DUP4 ADD MLOAD PUSH2 0x15D4 PUSH1 0x60 DUP7 ADD DUP3 PUSH2 0x149E JUMP JUMPDEST POP PUSH1 0x80 DUP4 ADD MLOAD DUP5 DUP3 SUB PUSH1 0x80 DUP7 ADD MSTORE PUSH2 0x15EC DUP3 DUP3 PUSH2 0x1439 JUMP JUMPDEST SWAP2 POP POP DUP1 SWAP2 POP POP SWAP3 SWAP2 POP POP JUMP JUMPDEST PUSH1 0x0 PUSH1 0x40 DUP3 ADD SWAP1 POP PUSH2 0x160E PUSH1 0x0 DUP4 ADD DUP6 PUSH2 0x13D3 JUMP JUMPDEST DUP2 DUP2 SUB PUSH1 0x20 DUP4 ADD MSTORE PUSH2 0x1620 DUP2 DUP5 PUSH2 0x156E JUMP JUMPDEST SWAP1 POP SWAP4 SWAP3 POP POP POP JUMP JUMPDEST PUSH2 0x1632 DUP2 PUSH2 0x1234 JUMP JUMPDEST DUP2 EQ PUSH2 0x163D JUMPI PUSH1 0x0 DUP1 REVERT JUMPDEST POP JUMP JUMPDEST PUSH1 0x0 DUP2 MLOAD SWAP1 POP PUSH2 0x164F DUP2 PUSH2 0x1629 JUMP JUMPDEST SWAP3 SWAP2 POP POP JUMP JUMPDEST PUSH1 0x0 PUSH1 0x20 DUP3 DUP5 SUB SLT ISZERO PUSH2 0x166B JUMPI PUSH2 0x166A PUSH2 0x1071 JUMP JUMPDEST JUMPDEST PUSH1 0x0 PUSH2 0x1679 DUP5 DUP3 DUP6 ADD PUSH2 0x1640 JUMP JUMPDEST SWAP2 POP POP SWAP3 SWAP2 POP POP JUMP JUMPDEST PUSH1 0x0 PUSH1 0xA0 DUP3 ADD SWAP1 POP PUSH2 0x1697 PUSH1 0x0 DUP4 ADD DUP9 PUSH2 0x123E JUMP JUMPDEST PUSH2 0x16A4 PUSH1 0x20 DUP4 ADD DUP8 PUSH2 0x13D3 JUMP JUMPDEST PUSH2 0x16B1 PUSH1 0x40 DUP4 ADD DUP7 PUSH2 0x1183 JUMP JUMPDEST PUSH2 0x16BE PUSH1 0x60 DUP4 ADD DUP6 PUSH2 0x114B JUMP JUMPDEST PUSH2 0x16CB PUSH1 0x80 DUP4 ADD DUP5 PUSH2 0x114B JUMP JUMPDEST SWAP7 SWAP6 POP POP POP POP POP POP JUMP JUMPDEST PUSH1 0x20 DUP3 ADD PUSH1 0x0 DUP3 ADD MLOAD PUSH2 0x16EB PUSH1 0x0 DUP6 ADD DUP3 PUSH2 0x14AD JUMP JUMPDEST POP POP POP POP JUMP JUMPDEST PUSH1 0x0 PUSH1 0x20 DUP3 ADD SWAP1 POP PUSH2 0x1706 PUSH1 0x0 DUP4 ADD DUP5 PUSH2 0x16D5 JUMP JUMPDEST SWAP3 SWAP2 POP POP JUMP JUMPDEST PUSH1 0x0 PUSH1 0x60 DUP3 ADD SWAP1 POP PUSH2 0x1721 PUSH1 0x0 DUP4 ADD DUP7 PUSH2 0x1183 JUMP JUMPDEST PUSH2 0x172E PUSH1 0x20 DUP4 ADD DUP6 PUSH2 0x1183 JUMP JUMPDEST PUSH2 0x173B PUSH1 0x40 DUP4 ADD DUP5 PUSH2 0x114B JUMP JUMPDEST SWAP5 SWAP4 POP POP POP POP JUMP JUMPDEST PUSH1 0x0 DUP3 DUP3 MSTORE PUSH1 0x20 DUP3 ADD SWAP1 POP SWAP3 SWAP2 POP POP JUMP JUMPDEST PUSH32 0x5361666545524332303A204552433230206F7065726174696F6E20646964206E PUSH1 0x0 DUP3 ADD MSTORE PUSH32 0x6F74207375636365656400000000000000000000000000000000000000000000 PUSH1 0x20 DUP3 ADD MSTORE POP JUMP JUMPDEST PUSH1 0x0 PUSH2 0x17B0 PUSH1 0x2A DUP4 PUSH2 0x1743 JUMP JUMPDEST SWAP2 POP PUSH2 0x17BB DUP3 PUSH2 0x1754 JUMP JUMPDEST PUSH1 0x40 DUP3 ADD SWAP1 POP SWAP2 SWAP1 POP JUMP JUMPDEST PUSH1 0x0 PUSH1 0x20 DUP3 ADD SWAP1 POP DUP2 DUP2 SUB PUSH1 0x0 DUP4 ADD MSTORE PUSH2 0x17DF DUP2 PUSH2 0x17A3 JUMP JUMPDEST SWAP1 POP SWAP2 SWAP1 POP JUMP JUMPDEST PUSH32 0x416464726573733A20696E73756666696369656E742062616C616E636520666F PUSH1 0x0 DUP3 ADD MSTORE PUSH32 0x722063616C6C0000000000000000000000000000000000000000000000000000 PUSH1 0x20 DUP3 ADD MSTORE POP JUMP JUMPDEST PUSH1 0x0 PUSH2 0x1842 PUSH1 0x26 DUP4 PUSH2 0x1743 JUMP JUMPDEST SWAP2 POP PUSH2 0x184D DUP3 PUSH2 0x17E6 JUMP JUMPDEST PUSH1 0x40 DUP3 ADD SWAP1 POP SWAP2 SWAP1 POP JUMP JUMPDEST PUSH1 0x0 PUSH1 0x20 DUP3 ADD SWAP1 POP DUP2 DUP2 SUB PUSH1 0x0 DUP4 ADD MSTORE PUSH2 0x1871 DUP2 PUSH2 0x1835 JUMP JUMPDEST SWAP1 POP SWAP2 SWAP1 POP JUMP JUMPDEST PUSH1 0x0 DUP2 SWAP1 POP SWAP3 SWAP2 POP POP JUMP JUMPDEST PUSH1 0x0 PUSH2 0x188E DUP3 PUSH2 0x13E2 JUMP JUMPDEST PUSH2 0x1898 DUP2 DUP6 PUSH2 0x1878 JUMP JUMPDEST SWAP4 POP PUSH2 0x18A8 DUP2 DUP6 PUSH1 0x20 DUP7 ADD PUSH2 0x13FE JUMP JUMPDEST DUP1 DUP5 ADD SWAP2 POP POP SWAP3 SWAP2 POP POP JUMP JUMPDEST PUSH1 0x0 PUSH2 0x18C0 DUP3 DUP5 PUSH2 0x1883 JUMP JUMPDEST SWAP2 POP DUP2 SWAP1 POP SWAP3 SWAP2 POP POP JUMP JUMPDEST PUSH32 0x416464726573733A2063616C6C20746F206E6F6E2D636F6E7472616374000000 PUSH1 0x0 DUP3 ADD MSTORE POP JUMP JUMPDEST PUSH1 0x0 PUSH2 0x1901 PUSH1 0x1D DUP4 PUSH2 0x1743 JUMP JUMPDEST SWAP2 POP PUSH2 0x190C DUP3 PUSH2 0x18CB JUMP JUMPDEST PUSH1 0x20 DUP3 ADD SWAP1 POP SWAP2 SWAP1 POP JUMP JUMPDEST PUSH1 0x0 PUSH1 0x20 DUP3 ADD SWAP1 POP DUP2 DUP2 SUB PUSH1 0x0 DUP4 ADD MSTORE PUSH2 0x1930 DUP2 PUSH2 0x18F4 JUMP JUMPDEST SWAP1 POP SWAP2 SWAP1 POP JUMP JUMPDEST PUSH1 0x0 DUP2 MLOAD SWAP1 POP SWAP2 SWAP1 POP JUMP JUMPDEST PUSH1 0x0 PUSH2 0x194D DUP3 PUSH2 0x1937 JUMP JUMPDEST PUSH2 0x1957 DUP2 DUP6 PUSH2 0x1743 JUMP JUMPDEST SWAP4 POP PUSH2 0x1967 DUP2 DUP6 PUSH1 0x20 DUP7 ADD PUSH2 0x13FE JUMP JUMPDEST PUSH2 0x1970 DUP2 PUSH2 0x1428 JUMP JUMPDEST DUP5 ADD SWAP2 POP POP SWAP3 SWAP2 POP POP JUMP JUMPDEST PUSH1 0x0 PUSH1 0x20 DUP3 ADD SWAP1 POP DUP2 DUP2 SUB PUSH1 0x0 DUP4 ADD MSTORE PUSH2 0x1995 DUP2 DUP5 PUSH2 0x1942 JUMP JUMPDEST SWAP1 POP SWAP3 SWAP2 POP POP JUMP INVALID LOG2 PUSH5 0x6970667358 0x22 SLT KECCAK256 0xC8 0xE0 SIGNEXTEND AND STOP 0xB7 0xEB CODESIZE PUSH8 0xBF3F93CE03366675 PUSH13 0xE62033CF050FA67ABAFCBE112C STOP PUSH5 0x736F6C6343 STOP ADDMOD SGT STOP CALLER "
				},
				"gasEstimates": {
					"creation": {
						"codeDepositCost": "1322200",
						"executionCost": "infinite",
						"totalCost": "infinite"
					},
					"external": {
						"allowanceUsdc()": "infinite",
						"balancesOf(address)": "infinite",
						"owner()": "2533",
						"transferUsdcToSepolia(address,uint256)": "infinite",
						"withdrawToken(address,address)": "infinite"
					}
				},
				"methodIdentifiers": {
					"allowanceUsdc()": "ed3bd5bc",
					"balancesOf(address)": "6392a51f",
					"owner()": "8da5cb5b",
					"transferUsdcToSepolia(address,uint256)": "fe2c5d36",
					"withdrawToken(address,address)": "3aeac4e1"
				}
			},
			"storageLayout": {
				"storage": [
					{
						"astId": 860,
						"contract": "Chainlink Bootcamp/Day4/TransferUSDCBasic.sol:TransferUSDCBasic",
						"label": "owner",
						"offset": 0,
						"slot": "0",
						"type": "t_address"
					},
					{
						"astId": 872,
						"contract": "Chainlink Bootcamp/Day4/TransferUSDCBasic.sol:TransferUSDCBasic",
						"label": "ccipRouterAddress",
						"offset": 0,
						"slot": "1",
						"type": "t_address"
					},
					{
						"astId": 875,
						"contract": "Chainlink Bootcamp/Day4/TransferUSDCBasic.sol:TransferUSDCBasic",
						"label": "linkAddress",
						"offset": 0,
						"slot": "2",
						"type": "t_address"
					},
					{
						"astId": 878,
						"contract": "Chainlink Bootcamp/Day4/TransferUSDCBasic.sol:TransferUSDCBasic",
						"label": "usdcAddress",
						"offset": 0,
						"slot": "3",
						"type": "t_address"
					},
					{
						"astId": 881,
						"contract": "Chainlink Bootcamp/Day4/TransferUSDCBasic.sol:TransferUSDCBasic",
						"label": "destinationChainSelector",
						"offset": 20,
						"slot": "3",
						"type": "t_uint64"
					}
				],
				"types": {
					"t_address": {
						"encoding": "inplace",
						"label": "address",
						"numberOfBytes": "20"
					},
					"t_uint64": {
						"encoding": "inplace",
						"label": "uint64",
						"numberOfBytes": "8"
					}
				}
			},
			"userdoc": {
				"kind": "user",
				"methods": {},
				"notice": "THIS IS AN EXAMPLE CONTRACT THAT USES HARDCODED VALUES FOR CLARITY. THIS IS AN EXAMPLE CONTRACT THAT USES UN-AUDITED CODE. DO NOT USE THIS CODE IN PRODUCTION.",
				"version": 1
			}
		}
	}
}